{
	"DegenToken.sol": {
		"DeGen": {
			"abi": [
				{
					"inputs": [],
					"stateMutability": "nonpayable",
					"type": "constructor"
				},
				{
					"inputs": [
						{
							"internalType": "address",
							"name": "user_address",
							"type": "address"
						}
					],
					"name": "Check_Balanace",
					"outputs": [
						{
							"internalType": "uint256",
							"name": "",
							"type": "uint256"
						}
					],
					"stateMutability": "view",
					"type": "function"
				},
				{
					"inputs": [
						{
							"internalType": "uint256",
							"name": "",
							"type": "uint256"
						}
					],
					"name": "Reward",
					"outputs": [
						{
							"internalType": "string",
							"name": "name",
							"type": "string"
						},
						{
							"internalType": "uint256",
							"name": "price",
							"type": "uint256"
						}
					],
					"stateMutability": "view",
					"type": "function"
				},
				{
					"inputs": [],
					"name": "Supply",
					"outputs": [
						{
							"internalType": "uint256",
							"name": "",
							"type": "uint256"
						}
					],
					"stateMutability": "view",
					"type": "function"
				},
				{
					"inputs": [],
					"name": "Symbol",
					"outputs": [
						{
							"internalType": "string",
							"name": "",
							"type": "string"
						}
					],
					"stateMutability": "view",
					"type": "function"
				},
				{
					"inputs": [],
					"name": "TokenName",
					"outputs": [
						{
							"internalType": "string",
							"name": "",
							"type": "string"
						}
					],
					"stateMutability": "view",
					"type": "function"
				},
				{
					"inputs": [
						{
							"internalType": "uint256",
							"name": "amount",
							"type": "uint256"
						}
					],
					"name": "burn",
					"outputs": [],
					"stateMutability": "nonpayable",
					"type": "function"
				},
				{
					"inputs": [],
					"name": "commandCenter",
					"outputs": [
						{
							"internalType": "address",
							"name": "",
							"type": "address"
						}
					],
					"stateMutability": "view",
					"type": "function"
				},
				{
					"inputs": [
						{
							"internalType": "address",
							"name": "user",
							"type": "address"
						}
					],
					"name": "getRedeemedItems",
					"outputs": [
						{
							"internalType": "string[]",
							"name": "",
							"type": "string[]"
						}
					],
					"stateMutability": "view",
					"type": "function"
				},
				{
					"inputs": [
						{
							"internalType": "uint256",
							"name": "amount",
							"type": "uint256"
						},
						{
							"internalType": "address",
							"name": "receiver_address",
							"type": "address"
						}
					],
					"name": "mint",
					"outputs": [],
					"stateMutability": "nonpayable",
					"type": "function"
				},
				{
					"inputs": [
						{
							"internalType": "uint256",
							"name": "reward_ID",
							"type": "uint256"
						}
					],
					"name": "redeem",
					"outputs": [
						{
							"internalType": "string",
							"name": "",
							"type": "string"
						}
					],
					"stateMutability": "nonpayable",
					"type": "function"
				},
				{
					"inputs": [
						{
							"internalType": "address",
							"name": "",
							"type": "address"
						},
						{
							"internalType": "uint256",
							"name": "",
							"type": "uint256"
						}
					],
					"name": "redeemedItems",
					"outputs": [
						{
							"internalType": "string",
							"name": "",
							"type": "string"
						}
					],
					"stateMutability": "view",
					"type": "function"
				},
				{
					"inputs": [
						{
							"internalType": "uint256",
							"name": "amount",
							"type": "uint256"
						},
						{
							"internalType": "address",
							"name": "receiver_address",
							"type": "address"
						}
					],
					"name": "transfer",
					"outputs": [],
					"stateMutability": "nonpayable",
					"type": "function"
				}
			],
			"devdoc": {
				"kind": "dev",
				"methods": {},
				"version": 1
			},
			"evm": {
				"assembly": "    /* \"DegenToken.sol\":60:2279  contract DeGen{... */\n  mstore(0x40, 0x80)\n    /* \"DegenToken.sol\":124:156  string public TokenName =\"Degen\" */\n  mload(0x40)\n  dup1\n  0x40\n  add\n  0x40\n  mstore\n  dup1\n  0x05\n  dup2\n  mstore\n  0x20\n  add\n  0x446567656e000000000000000000000000000000000000000000000000000000\n  dup2\n  mstore\n  pop\n  0x01\n  swap1\n  dup2\n  tag_1\n  swap2\n  swap1\n  tag_2\n  jump\t// in\ntag_1:\n  pop\n    /* \"DegenToken.sol\":163:190  string public Symbol =\"DGN\" */\n  mload(0x40)\n  dup1\n  0x40\n  add\n  0x40\n  mstore\n  dup1\n  0x03\n  dup2\n  mstore\n  0x20\n  add\n  0x44474e0000000000000000000000000000000000000000000000000000000000\n  dup2\n  mstore\n  pop\n  0x02\n  swap1\n  dup2\n  tag_3\n  swap2\n  swap1\n  tag_2\n  jump\t// in\ntag_3:\n  pop\n    /* \"DegenToken.sol\":217:218  0 */\n  0x00\n    /* \"DegenToken.sol\":197:218  uint public Supply =0 */\n  0x03\n  sstore\n    /* \"DegenToken.sol\":231:407  constructor(){... */\n  callvalue\n  dup1\n  iszero\n  tag_4\n  jumpi\n  0x00\n  dup1\n  revert\ntag_4:\n  pop\n    /* \"DegenToken.sol\":269:279  msg.sender */\n  caller\n    /* \"DegenToken.sol\":254:267  commandCenter */\n  0x00\n  dup1\n    /* \"DegenToken.sol\":254:279  commandCenter =msg.sender */\n  0x0100\n  exp\n  dup2\n  sload\n  dup2\n  0xffffffffffffffffffffffffffffffffffffffff\n  mul\n  not\n  and\n  swap1\n  dup4\n  0xffffffffffffffffffffffffffffffffffffffff\n  and\n  mul\n  or\n  swap1\n  sstore\n  pop\n    /* \"DegenToken.sol\":299:320  NFT(\"Slayer Sword\",2) */\n  mload(0x40)\n  dup1\n  0x40\n  add\n  0x40\n  mstore\n  dup1\n  mload(0x40)\n  dup1\n  0x40\n  add\n  0x40\n  mstore\n  dup1\n  0x0c\n  dup2\n  mstore\n  0x20\n  add\n  0x536c617965722053776f72640000000000000000000000000000000000000000\n  dup2\n  mstore\n  pop\n  dup2\n  mstore\n  0x20\n  add\n    /* \"DegenToken.sol\":318:319  2 */\n  0x02\n    /* \"DegenToken.sol\":299:320  NFT(\"Slayer Sword\",2) */\n  dup2\n  mstore\n  pop\n    /* \"DegenToken.sol\":289:295  Reward */\n  0x05\n    /* \"DegenToken.sol\":289:298  Reward[0] */\n  0x00\n    /* \"DegenToken.sol\":296:297  0 */\n  dup1\n    /* \"DegenToken.sol\":289:298  Reward[0] */\n  dup2\n  mstore\n  0x20\n  add\n  swap1\n  dup2\n  mstore\n  0x20\n  add\n  0x00\n  keccak256\n    /* \"DegenToken.sol\":289:320  Reward[0]=NFT(\"Slayer Sword\",2) */\n  0x00\n  dup3\n  add\n  mload\n  dup2\n  0x00\n  add\n  swap1\n  dup2\n  tag_7\n  swap2\n  swap1\n  tag_2\n  jump\t// in\ntag_7:\n  pop\n  0x20\n  dup3\n  add\n  mload\n  dup2\n  0x01\n  add\n  sstore\n  swap1\n  pop\n  pop\n    /* \"DegenToken.sol\":340:362  NFT(\"Dragon Shield\",3) */\n  mload(0x40)\n  dup1\n  0x40\n  add\n  0x40\n  mstore\n  dup1\n  mload(0x40)\n  dup1\n  0x40\n  add\n  0x40\n  mstore\n  dup1\n  0x0d\n  dup2\n  mstore\n  0x20\n  add\n  0x447261676f6e20536869656c6400000000000000000000000000000000000000\n  dup2\n  mstore\n  pop\n  dup2\n  mstore\n  0x20\n  add\n    /* \"DegenToken.sol\":360:361  3 */\n  0x03\n    /* \"DegenToken.sol\":340:362  NFT(\"Dragon Shield\",3) */\n  dup2\n  mstore\n  pop\n    /* \"DegenToken.sol\":330:336  Reward */\n  0x05\n    /* \"DegenToken.sol\":330:339  Reward[1] */\n  0x00\n    /* \"DegenToken.sol\":337:338  1 */\n  0x01\n    /* \"DegenToken.sol\":330:339  Reward[1] */\n  dup2\n  mstore\n  0x20\n  add\n  swap1\n  dup2\n  mstore\n  0x20\n  add\n  0x00\n  keccak256\n    /* \"DegenToken.sol\":330:362  Reward[1]=NFT(\"Dragon Shield\",3) */\n  0x00\n  dup3\n  add\n  mload\n  dup2\n  0x00\n  add\n  swap1\n  dup2\n  tag_8\n  swap2\n  swap1\n  tag_2\n  jump\t// in\ntag_8:\n  pop\n  0x20\n  dup3\n  add\n  mload\n  dup2\n  0x01\n  add\n  sstore\n  swap1\n  pop\n  pop\n    /* \"DegenToken.sol\":382:399  NFT(\"GOD HAND\",5) */\n  mload(0x40)\n  dup1\n  0x40\n  add\n  0x40\n  mstore\n  dup1\n  mload(0x40)\n  dup1\n  0x40\n  add\n  0x40\n  mstore\n  dup1\n  0x08\n  dup2\n  mstore\n  0x20\n  add\n  0x474f442048414e44000000000000000000000000000000000000000000000000\n  dup2\n  mstore\n  pop\n  dup2\n  mstore\n  0x20\n  add\n    /* \"DegenToken.sol\":397:398  5 */\n  0x05\n    /* \"DegenToken.sol\":382:399  NFT(\"GOD HAND\",5) */\n  dup2\n  mstore\n  pop\n    /* \"DegenToken.sol\":372:378  Reward */\n  0x05\n    /* \"DegenToken.sol\":372:381  Reward[2] */\n  0x00\n    /* \"DegenToken.sol\":379:380  2 */\n  0x02\n    /* \"DegenToken.sol\":372:381  Reward[2] */\n  dup2\n  mstore\n  0x20\n  add\n  swap1\n  dup2\n  mstore\n  0x20\n  add\n  0x00\n  keccak256\n    /* \"DegenToken.sol\":372:399  Reward[2]=NFT(\"GOD HAND\",5) */\n  0x00\n  dup3\n  add\n  mload\n  dup2\n  0x00\n  add\n  swap1\n  dup2\n  tag_9\n  swap2\n  swap1\n  tag_2\n  jump\t// in\ntag_9:\n  pop\n  0x20\n  dup3\n  add\n  mload\n  dup2\n  0x01\n  add\n  sstore\n  swap1\n  pop\n  pop\n    /* \"DegenToken.sol\":60:2279  contract DeGen{... */\n  jump(tag_10)\n    /* \"#utility.yul\":7:106   */\ntag_11:\n    /* \"#utility.yul\":59:65   */\n  0x00\n    /* \"#utility.yul\":93:98   */\n  dup2\n    /* \"#utility.yul\":87:99   */\n  mload\n    /* \"#utility.yul\":77:99   */\n  swap1\n  pop\n    /* \"#utility.yul\":7:106   */\n  swap2\n  swap1\n  pop\n  jump\t// out\n    /* \"#utility.yul\":112:292   */\ntag_12:\n    /* \"#utility.yul\":160:237   */\n  0x4e487b7100000000000000000000000000000000000000000000000000000000\n    /* \"#utility.yul\":157:158   */\n  0x00\n    /* \"#utility.yul\":150:238   */\n  mstore\n    /* \"#utility.yul\":257:261   */\n  0x41\n    /* \"#utility.yul\":254:255   */\n  0x04\n    /* \"#utility.yul\":247:262   */\n  mstore\n    /* \"#utility.yul\":281:285   */\n  0x24\n    /* \"#utility.yul\":278:279   */\n  0x00\n    /* \"#utility.yul\":271:286   */\n  revert\n    /* \"#utility.yul\":298:478   */\ntag_13:\n    /* \"#utility.yul\":346:423   */\n  0x4e487b7100000000000000000000000000000000000000000000000000000000\n    /* \"#utility.yul\":343:344   */\n  0x00\n    /* \"#utility.yul\":336:424   */\n  mstore\n    /* \"#utility.yul\":443:447   */\n  0x22\n    /* \"#utility.yul\":440:441   */\n  0x04\n    /* \"#utility.yul\":433:448   */\n  mstore\n    /* \"#utility.yul\":467:471   */\n  0x24\n    /* \"#utility.yul\":464:465   */\n  0x00\n    /* \"#utility.yul\":457:472   */\n  revert\n    /* \"#utility.yul\":484:804   */\ntag_14:\n    /* \"#utility.yul\":528:534   */\n  0x00\n    /* \"#utility.yul\":565:566   */\n  0x02\n    /* \"#utility.yul\":559:563   */\n  dup3\n    /* \"#utility.yul\":555:567   */\n  div\n    /* \"#utility.yul\":545:567   */\n  swap1\n  pop\n    /* \"#utility.yul\":612:613   */\n  0x01\n    /* \"#utility.yul\":606:610   */\n  dup3\n    /* \"#utility.yul\":602:614   */\n  and\n    /* \"#utility.yul\":633:651   */\n  dup1\n    /* \"#utility.yul\":623:704   */\n  tag_36\n  jumpi\n    /* \"#utility.yul\":689:693   */\n  0x7f\n    /* \"#utility.yul\":681:687   */\n  dup3\n    /* \"#utility.yul\":677:694   */\n  and\n    /* \"#utility.yul\":667:694   */\n  swap2\n  pop\n    /* \"#utility.yul\":623:704   */\ntag_36:\n    /* \"#utility.yul\":751:753   */\n  0x20\n    /* \"#utility.yul\":743:749   */\n  dup3\n    /* \"#utility.yul\":740:754   */\n  lt\n    /* \"#utility.yul\":720:738   */\n  dup2\n    /* \"#utility.yul\":717:755   */\n  sub\n    /* \"#utility.yul\":714:798   */\n  tag_37\n  jumpi\n    /* \"#utility.yul\":770:788   */\n  tag_38\n  tag_13\n  jump\t// in\ntag_38:\n    /* \"#utility.yul\":714:798   */\ntag_37:\n    /* \"#utility.yul\":535:804   */\n  pop\n    /* \"#utility.yul\":484:804   */\n  swap2\n  swap1\n  pop\n  jump\t// out\n    /* \"#utility.yul\":810:951   */\ntag_15:\n    /* \"#utility.yul\":859:863   */\n  0x00\n    /* \"#utility.yul\":882:885   */\n  dup2\n    /* \"#utility.yul\":874:885   */\n  swap1\n  pop\n    /* \"#utility.yul\":905:908   */\n  dup2\n    /* \"#utility.yul\":902:903   */\n  0x00\n    /* \"#utility.yul\":895:909   */\n  mstore\n    /* \"#utility.yul\":939:943   */\n  0x20\n    /* \"#utility.yul\":936:937   */\n  0x00\n    /* \"#utility.yul\":926:944   */\n  keccak256\n    /* \"#utility.yul\":918:944   */\n  swap1\n  pop\n    /* \"#utility.yul\":810:951   */\n  swap2\n  swap1\n  pop\n  jump\t// out\n    /* \"#utility.yul\":957:1050   */\ntag_16:\n    /* \"#utility.yul\":994:1000   */\n  0x00\n    /* \"#utility.yul\":1041:1043   */\n  0x20\n    /* \"#utility.yul\":1036:1038   */\n  0x1f\n    /* \"#utility.yul\":1029:1034   */\n  dup4\n    /* \"#utility.yul\":1025:1039   */\n  add\n    /* \"#utility.yul\":1021:1044   */\n  div\n    /* \"#utility.yul\":1011:1044   */\n  swap1\n  pop\n    /* \"#utility.yul\":957:1050   */\n  swap2\n  swap1\n  pop\n  jump\t// out\n    /* \"#utility.yul\":1056:1163   */\ntag_17:\n    /* \"#utility.yul\":1100:1108   */\n  0x00\n    /* \"#utility.yul\":1150:1155   */\n  dup3\n    /* \"#utility.yul\":1144:1148   */\n  dup3\n    /* \"#utility.yul\":1140:1156   */\n  shl\n    /* \"#utility.yul\":1119:1156   */\n  swap1\n  pop\n    /* \"#utility.yul\":1056:1163   */\n  swap3\n  swap2\n  pop\n  pop\n  jump\t// out\n    /* \"#utility.yul\":1169:1562   */\ntag_18:\n    /* \"#utility.yul\":1238:1244   */\n  0x00\n    /* \"#utility.yul\":1288:1289   */\n  0x08\n    /* \"#utility.yul\":1276:1286   */\n  dup4\n    /* \"#utility.yul\":1272:1290   */\n  mul\n    /* \"#utility.yul\":1311:1408   */\n  tag_43\n    /* \"#utility.yul\":1341:1407   */\n  0xffffffffffffffffffffffffffffffffffffffffffffffffffffffffffffffff\n    /* \"#utility.yul\":1330:1339   */\n  dup3\n    /* \"#utility.yul\":1311:1408   */\n  tag_17\n  jump\t// in\ntag_43:\n    /* \"#utility.yul\":1429:1468   */\n  tag_44\n    /* \"#utility.yul\":1459:1467   */\n  dup7\n    /* \"#utility.yul\":1448:1457   */\n  dup4\n    /* \"#utility.yul\":1429:1468   */\n  tag_17\n  jump\t// in\ntag_44:\n    /* \"#utility.yul\":1417:1468   */\n  swap6\n  pop\n    /* \"#utility.yul\":1501:1505   */\n  dup1\n    /* \"#utility.yul\":1497:1506   */\n  not\n    /* \"#utility.yul\":1490:1495   */\n  dup5\n    /* \"#utility.yul\":1486:1507   */\n  and\n    /* \"#utility.yul\":1477:1507   */\n  swap4\n  pop\n    /* \"#utility.yul\":1550:1554   */\n  dup1\n    /* \"#utility.yul\":1540:1548   */\n  dup7\n    /* \"#utility.yul\":1536:1555   */\n  and\n    /* \"#utility.yul\":1529:1534   */\n  dup5\n    /* \"#utility.yul\":1526:1556   */\n  or\n    /* \"#utility.yul\":1516:1556   */\n  swap3\n  pop\n    /* \"#utility.yul\":1245:1562   */\n  pop\n  pop\n    /* \"#utility.yul\":1169:1562   */\n  swap4\n  swap3\n  pop\n  pop\n  pop\n  jump\t// out\n    /* \"#utility.yul\":1568:1645   */\ntag_19:\n    /* \"#utility.yul\":1605:1612   */\n  0x00\n    /* \"#utility.yul\":1634:1639   */\n  dup2\n    /* \"#utility.yul\":1623:1639   */\n  swap1\n  pop\n    /* \"#utility.yul\":1568:1645   */\n  swap2\n  swap1\n  pop\n  jump\t// out\n    /* \"#utility.yul\":1651:1711   */\ntag_20:\n    /* \"#utility.yul\":1679:1682   */\n  0x00\n    /* \"#utility.yul\":1700:1705   */\n  dup2\n    /* \"#utility.yul\":1693:1705   */\n  swap1\n  pop\n    /* \"#utility.yul\":1651:1711   */\n  swap2\n  swap1\n  pop\n  jump\t// out\n    /* \"#utility.yul\":1717:1859   */\ntag_21:\n    /* \"#utility.yul\":1767:1776   */\n  0x00\n    /* \"#utility.yul\":1800:1853   */\n  tag_48\n    /* \"#utility.yul\":1818:1852   */\n  tag_49\n    /* \"#utility.yul\":1827:1851   */\n  tag_50\n    /* \"#utility.yul\":1845:1850   */\n  dup5\n    /* \"#utility.yul\":1827:1851   */\n  tag_19\n  jump\t// in\ntag_50:\n    /* \"#utility.yul\":1818:1852   */\n  tag_20\n  jump\t// in\ntag_49:\n    /* \"#utility.yul\":1800:1853   */\n  tag_19\n  jump\t// in\ntag_48:\n    /* \"#utility.yul\":1787:1853   */\n  swap1\n  pop\n    /* \"#utility.yul\":1717:1859   */\n  swap2\n  swap1\n  pop\n  jump\t// out\n    /* \"#utility.yul\":1865:1940   */\ntag_22:\n    /* \"#utility.yul\":1908:1911   */\n  0x00\n    /* \"#utility.yul\":1929:1934   */\n  dup2\n    /* \"#utility.yul\":1922:1934   */\n  swap1\n  pop\n    /* \"#utility.yul\":1865:1940   */\n  swap2\n  swap1\n  pop\n  jump\t// out\n    /* \"#utility.yul\":1946:2215   */\ntag_23:\n    /* \"#utility.yul\":2056:2095   */\n  tag_53\n    /* \"#utility.yul\":2087:2094   */\n  dup4\n    /* \"#utility.yul\":2056:2095   */\n  tag_21\n  jump\t// in\ntag_53:\n    /* \"#utility.yul\":2117:2208   */\n  tag_54\n    /* \"#utility.yul\":2166:2207   */\n  tag_55\n    /* \"#utility.yul\":2190:2206   */\n  dup3\n    /* \"#utility.yul\":2166:2207   */\n  tag_22\n  jump\t// in\ntag_55:\n    /* \"#utility.yul\":2158:2164   */\n  dup5\n    /* \"#utility.yul\":2151:2155   */\n  dup5\n    /* \"#utility.yul\":2145:2156   */\n  sload\n    /* \"#utility.yul\":2117:2208   */\n  tag_18\n  jump\t// in\ntag_54:\n    /* \"#utility.yul\":2111:2115   */\n  dup3\n    /* \"#utility.yul\":2104:2209   */\n  sstore\n    /* \"#utility.yul\":2022:2215   */\n  pop\n    /* \"#utility.yul\":1946:2215   */\n  pop\n  pop\n  pop\n  jump\t// out\n    /* \"#utility.yul\":2221:2294   */\ntag_24:\n    /* \"#utility.yul\":2266:2269   */\n  0x00\n    /* \"#utility.yul\":2221:2294   */\n  swap1\n  jump\t// out\n    /* \"#utility.yul\":2300:2489   */\ntag_25:\n    /* \"#utility.yul\":2377:2409   */\n  tag_58\n  tag_24\n  jump\t// in\ntag_58:\n    /* \"#utility.yul\":2418:2483   */\n  tag_59\n    /* \"#utility.yul\":2476:2482   */\n  dup2\n    /* \"#utility.yul\":2468:2474   */\n  dup5\n    /* \"#utility.yul\":2462:2466   */\n  dup5\n    /* \"#utility.yul\":2418:2483   */\n  tag_23\n  jump\t// in\ntag_59:\n    /* \"#utility.yul\":2353:2489   */\n  pop\n    /* \"#utility.yul\":2300:2489   */\n  pop\n  pop\n  jump\t// out\n    /* \"#utility.yul\":2495:2681   */\ntag_26:\n    /* \"#utility.yul\":2555:2675   */\ntag_61:\n    /* \"#utility.yul\":2572:2575   */\n  dup2\n    /* \"#utility.yul\":2565:2570   */\n  dup2\n    /* \"#utility.yul\":2562:2576   */\n  lt\n    /* \"#utility.yul\":2555:2675   */\n  iszero\n  tag_63\n  jumpi\n    /* \"#utility.yul\":2626:2665   */\n  tag_64\n    /* \"#utility.yul\":2663:2664   */\n  0x00\n    /* \"#utility.yul\":2656:2661   */\n  dup3\n    /* \"#utility.yul\":2626:2665   */\n  tag_25\n  jump\t// in\ntag_64:\n    /* \"#utility.yul\":2599:2600   */\n  0x01\n    /* \"#utility.yul\":2592:2597   */\n  dup2\n    /* \"#utility.yul\":2588:2601   */\n  add\n    /* \"#utility.yul\":2579:2601   */\n  swap1\n  pop\n    /* \"#utility.yul\":2555:2675   */\n  jump(tag_61)\ntag_63:\n    /* \"#utility.yul\":2495:2681   */\n  pop\n  pop\n  jump\t// out\n    /* \"#utility.yul\":2687:3230   */\ntag_27:\n    /* \"#utility.yul\":2788:2790   */\n  0x1f\n    /* \"#utility.yul\":2783:2786   */\n  dup3\n    /* \"#utility.yul\":2780:2791   */\n  gt\n    /* \"#utility.yul\":2777:3223   */\n  iszero\n  tag_66\n  jumpi\n    /* \"#utility.yul\":2822:2860   */\n  tag_67\n    /* \"#utility.yul\":2854:2859   */\n  dup2\n    /* \"#utility.yul\":2822:2860   */\n  tag_15\n  jump\t// in\ntag_67:\n    /* \"#utility.yul\":2906:2935   */\n  tag_68\n    /* \"#utility.yul\":2924:2934   */\n  dup5\n    /* \"#utility.yul\":2906:2935   */\n  tag_16\n  jump\t// in\ntag_68:\n    /* \"#utility.yul\":2896:2904   */\n  dup2\n    /* \"#utility.yul\":2892:2936   */\n  add\n    /* \"#utility.yul\":3089:3091   */\n  0x20\n    /* \"#utility.yul\":3077:3087   */\n  dup6\n    /* \"#utility.yul\":3074:3092   */\n  lt\n    /* \"#utility.yul\":3071:3120   */\n  iszero\n  tag_69\n  jumpi\n    /* \"#utility.yul\":3110:3118   */\n  dup2\n    /* \"#utility.yul\":3095:3118   */\n  swap1\n  pop\n    /* \"#utility.yul\":3071:3120   */\ntag_69:\n    /* \"#utility.yul\":3133:3213   */\n  tag_70\n    /* \"#utility.yul\":3189:3211   */\n  tag_71\n    /* \"#utility.yul\":3207:3210   */\n  dup6\n    /* \"#utility.yul\":3189:3211   */\n  tag_16\n  jump\t// in\ntag_71:\n    /* \"#utility.yul\":3179:3187   */\n  dup4\n    /* \"#utility.yul\":3175:3212   */\n  add\n    /* \"#utility.yul\":3162:3173   */\n  dup3\n    /* \"#utility.yul\":3133:3213   */\n  tag_26\n  jump\t// in\ntag_70:\n    /* \"#utility.yul\":2792:3223   */\n  pop\n  pop\n    /* \"#utility.yul\":2777:3223   */\ntag_66:\n    /* \"#utility.yul\":2687:3230   */\n  pop\n  pop\n  pop\n  jump\t// out\n    /* \"#utility.yul\":3236:3353   */\ntag_28:\n    /* \"#utility.yul\":3290:3298   */\n  0x00\n    /* \"#utility.yul\":3340:3345   */\n  dup3\n    /* \"#utility.yul\":3334:3338   */\n  dup3\n    /* \"#utility.yul\":3330:3346   */\n  shr\n    /* \"#utility.yul\":3309:3346   */\n  swap1\n  pop\n    /* \"#utility.yul\":3236:3353   */\n  swap3\n  swap2\n  pop\n  pop\n  jump\t// out\n    /* \"#utility.yul\":3359:3528   */\ntag_29:\n    /* \"#utility.yul\":3403:3409   */\n  0x00\n    /* \"#utility.yul\":3436:3487   */\n  tag_74\n    /* \"#utility.yul\":3484:3485   */\n  0x00\n    /* \"#utility.yul\":3480:3486   */\n  not\n    /* \"#utility.yul\":3472:3477   */\n  dup5\n    /* \"#utility.yul\":3469:3470   */\n  0x08\n    /* \"#utility.yul\":3465:3478   */\n  mul\n    /* \"#utility.yul\":3436:3487   */\n  tag_28\n  jump\t// in\ntag_74:\n    /* \"#utility.yul\":3432:3488   */\n  not\n    /* \"#utility.yul\":3517:3521   */\n  dup1\n    /* \"#utility.yul\":3511:3515   */\n  dup4\n    /* \"#utility.yul\":3507:3522   */\n  and\n    /* \"#utility.yul\":3497:3522   */\n  swap2\n  pop\n    /* \"#utility.yul\":3410:3528   */\n  pop\n    /* \"#utility.yul\":3359:3528   */\n  swap3\n  swap2\n  pop\n  pop\n  jump\t// out\n    /* \"#utility.yul\":3533:3828   */\ntag_30:\n    /* \"#utility.yul\":3609:3613   */\n  0x00\n    /* \"#utility.yul\":3755:3784   */\n  tag_76\n    /* \"#utility.yul\":3780:3783   */\n  dup4\n    /* \"#utility.yul\":3774:3778   */\n  dup4\n    /* \"#utility.yul\":3755:3784   */\n  tag_29\n  jump\t// in\ntag_76:\n    /* \"#utility.yul\":3747:3784   */\n  swap2\n  pop\n    /* \"#utility.yul\":3817:3820   */\n  dup3\n    /* \"#utility.yul\":3814:3815   */\n  0x02\n    /* \"#utility.yul\":3810:3821   */\n  mul\n    /* \"#utility.yul\":3804:3808   */\n  dup3\n    /* \"#utility.yul\":3801:3822   */\n  or\n    /* \"#utility.yul\":3793:3822   */\n  swap1\n  pop\n    /* \"#utility.yul\":3533:3828   */\n  swap3\n  swap2\n  pop\n  pop\n  jump\t// out\n    /* \"#utility.yul\":3833:5228   */\ntag_2:\n    /* \"#utility.yul\":3950:3987   */\n  tag_78\n    /* \"#utility.yul\":3983:3986   */\n  dup3\n    /* \"#utility.yul\":3950:3987   */\n  tag_11\n  jump\t// in\ntag_78:\n    /* \"#utility.yul\":4052:4070   */\n  0xffffffffffffffff\n    /* \"#utility.yul\":4044:4050   */\n  dup2\n    /* \"#utility.yul\":4041:4071   */\n  gt\n    /* \"#utility.yul\":4038:4094   */\n  iszero\n  tag_79\n  jumpi\n    /* \"#utility.yul\":4074:4092   */\n  tag_80\n  tag_12\n  jump\t// in\ntag_80:\n    /* \"#utility.yul\":4038:4094   */\ntag_79:\n    /* \"#utility.yul\":4118:4156   */\n  tag_81\n    /* \"#utility.yul\":4150:4154   */\n  dup3\n    /* \"#utility.yul\":4144:4155   */\n  sload\n    /* \"#utility.yul\":4118:4156   */\n  tag_14\n  jump\t// in\ntag_81:\n    /* \"#utility.yul\":4203:4270   */\n  tag_82\n    /* \"#utility.yul\":4263:4269   */\n  dup3\n    /* \"#utility.yul\":4255:4261   */\n  dup3\n    /* \"#utility.yul\":4249:4253   */\n  dup6\n    /* \"#utility.yul\":4203:4270   */\n  tag_27\n  jump\t// in\ntag_82:\n    /* \"#utility.yul\":4297:4298   */\n  0x00\n    /* \"#utility.yul\":4321:4325   */\n  0x20\n    /* \"#utility.yul\":4308:4325   */\n  swap1\n  pop\n    /* \"#utility.yul\":4353:4355   */\n  0x1f\n    /* \"#utility.yul\":4345:4351   */\n  dup4\n    /* \"#utility.yul\":4342:4356   */\n  gt\n    /* \"#utility.yul\":4370:4371   */\n  0x01\n    /* \"#utility.yul\":4365:4983   */\n  dup2\n  eq\n  tag_84\n  jumpi\n    /* \"#utility.yul\":5027:5028   */\n  0x00\n    /* \"#utility.yul\":5044:5050   */\n  dup5\n    /* \"#utility.yul\":5041:5118   */\n  iszero\n  tag_85\n  jumpi\n    /* \"#utility.yul\":5093:5102   */\n  dup3\n    /* \"#utility.yul\":5088:5091   */\n  dup8\n    /* \"#utility.yul\":5084:5103   */\n  add\n    /* \"#utility.yul\":5078:5104   */\n  mload\n    /* \"#utility.yul\":5069:5104   */\n  swap1\n  pop\n    /* \"#utility.yul\":5041:5118   */\ntag_85:\n    /* \"#utility.yul\":5144:5211   */\n  tag_86\n    /* \"#utility.yul\":5204:5210   */\n  dup6\n    /* \"#utility.yul\":5197:5202   */\n  dup3\n    /* \"#utility.yul\":5144:5211   */\n  tag_30\n  jump\t// in\ntag_86:\n    /* \"#utility.yul\":5138:5142   */\n  dup7\n    /* \"#utility.yul\":5131:5212   */\n  sstore\n    /* \"#utility.yul\":5000:5222   */\n  pop\n    /* \"#utility.yul\":4335:5222   */\n  jump(tag_83)\n    /* \"#utility.yul\":4365:4983   */\ntag_84:\n    /* \"#utility.yul\":4417:4421   */\n  0x1f\n    /* \"#utility.yul\":4413:4422   */\n  not\n    /* \"#utility.yul\":4405:4411   */\n  dup5\n    /* \"#utility.yul\":4401:4423   */\n  and\n    /* \"#utility.yul\":4451:4488   */\n  tag_87\n    /* \"#utility.yul\":4483:4487   */\n  dup7\n    /* \"#utility.yul\":4451:4488   */\n  tag_15\n  jump\t// in\ntag_87:\n    /* \"#utility.yul\":4510:4511   */\n  0x00\n    /* \"#utility.yul\":4524:4732   */\ntag_88:\n    /* \"#utility.yul\":4538:4545   */\n  dup3\n    /* \"#utility.yul\":4535:4536   */\n  dup2\n    /* \"#utility.yul\":4532:4546   */\n  lt\n    /* \"#utility.yul\":4524:4732   */\n  iszero\n  tag_90\n  jumpi\n    /* \"#utility.yul\":4617:4626   */\n  dup5\n    /* \"#utility.yul\":4612:4615   */\n  dup10\n    /* \"#utility.yul\":4608:4627   */\n  add\n    /* \"#utility.yul\":4602:4628   */\n  mload\n    /* \"#utility.yul\":4594:4600   */\n  dup3\n    /* \"#utility.yul\":4587:4629   */\n  sstore\n    /* \"#utility.yul\":4668:4669   */\n  0x01\n    /* \"#utility.yul\":4660:4666   */\n  dup3\n    /* \"#utility.yul\":4656:4670   */\n  add\n    /* \"#utility.yul\":4646:4670   */\n  swap2\n  pop\n    /* \"#utility.yul\":4715:4717   */\n  0x20\n    /* \"#utility.yul\":4704:4713   */\n  dup6\n    /* \"#utility.yul\":4700:4718   */\n  add\n    /* \"#utility.yul\":4687:4718   */\n  swap5\n  pop\n    /* \"#utility.yul\":4561:4565   */\n  0x20\n    /* \"#utility.yul\":4558:4559   */\n  dup2\n    /* \"#utility.yul\":4554:4566   */\n  add\n    /* \"#utility.yul\":4549:4566   */\n  swap1\n  pop\n    /* \"#utility.yul\":4524:4732   */\n  jump(tag_88)\ntag_90:\n    /* \"#utility.yul\":4760:4766   */\n  dup7\n    /* \"#utility.yul\":4751:4758   */\n  dup4\n    /* \"#utility.yul\":4748:4767   */\n  lt\n    /* \"#utility.yul\":4745:4924   */\n  iszero\n  tag_91\n  jumpi\n    /* \"#utility.yul\":4818:4827   */\n  dup5\n    /* \"#utility.yul\":4813:4816   */\n  dup10\n    /* \"#utility.yul\":4809:4828   */\n  add\n    /* \"#utility.yul\":4803:4829   */\n  mload\n    /* \"#utility.yul\":4861:4909   */\n  tag_92\n    /* \"#utility.yul\":4903:4907   */\n  0x1f\n    /* \"#utility.yul\":4895:4901   */\n  dup10\n    /* \"#utility.yul\":4891:4908   */\n  and\n    /* \"#utility.yul\":4880:4889   */\n  dup3\n    /* \"#utility.yul\":4861:4909   */\n  tag_29\n  jump\t// in\ntag_92:\n    /* \"#utility.yul\":4853:4859   */\n  dup4\n    /* \"#utility.yul\":4846:4910   */\n  sstore\n    /* \"#utility.yul\":4768:4924   */\n  pop\n    /* \"#utility.yul\":4745:4924   */\ntag_91:\n    /* \"#utility.yul\":4970:4971   */\n  0x01\n    /* \"#utility.yul\":4966:4967   */\n  0x02\n    /* \"#utility.yul\":4958:4964   */\n  dup9\n    /* \"#utility.yul\":4954:4968   */\n  mul\n    /* \"#utility.yul\":4950:4972   */\n  add\n    /* \"#utility.yul\":4944:4948   */\n  dup9\n    /* \"#utility.yul\":4937:4973   */\n  sstore\n    /* \"#utility.yul\":4372:4983   */\n  pop\n  pop\n  pop\n    /* \"#utility.yul\":4335:5222   */\ntag_83:\n  pop\n    /* \"#utility.yul\":3925:5228   */\n  pop\n  pop\n  pop\n    /* \"#utility.yul\":3833:5228   */\n  pop\n  pop\n  jump\t// out\n    /* \"DegenToken.sol\":60:2279  contract DeGen{... */\ntag_10:\n  dataSize(sub_0)\n  dup1\n  dataOffset(sub_0)\n  0x00\n  codecopy\n  0x00\n  return\nstop\n\nsub_0: assembly {\n        /* \"DegenToken.sol\":60:2279  contract DeGen{... */\n      mstore(0x40, 0x80)\n      callvalue\n      dup1\n      iszero\n      tag_1\n      jumpi\n      0x00\n      dup1\n      revert\n    tag_1:\n      pop\n      jumpi(tag_2, lt(calldatasize, 0x04))\n      shr(0xe0, calldataload(0x00))\n      dup1\n      0xb6d7855a\n      gt\n      tag_15\n      jumpi\n      dup1\n      0xb6d7855a\n      eq\n      tag_9\n      jumpi\n      dup1\n      0xb7760c8f\n      eq\n      tag_10\n      jumpi\n      dup1\n      0xc00aa3a5\n      eq\n      tag_11\n      jumpi\n      dup1\n      0xdb006a75\n      eq\n      tag_12\n      jumpi\n      dup1\n      0xee07bf22\n      eq\n      tag_13\n      jumpi\n      dup1\n      0xf8f4b574\n      eq\n      tag_14\n      jumpi\n      jump(tag_2)\n    tag_15:\n      dup1\n      0x3045aaf3\n      eq\n      tag_3\n      jumpi\n      dup1\n      0x37fa221b\n      eq\n      tag_4\n      jumpi\n      dup1\n      0x3ac0594a\n      eq\n      tag_5\n      jumpi\n      dup1\n      0x42966c68\n      eq\n      tag_6\n      jumpi\n      dup1\n      0x6428f530\n      eq\n      tag_7\n      jumpi\n      dup1\n      0x94bf804d\n      eq\n      tag_8\n      jumpi\n    tag_2:\n      0x00\n      dup1\n      revert\n        /* \"DegenToken.sol\":163:190  string public Symbol =\"DGN\" */\n    tag_3:\n      tag_16\n      tag_17\n      jump\t// in\n    tag_16:\n      mload(0x40)\n      tag_18\n      swap2\n      swap1\n      tag_19\n      jump\t// in\n    tag_18:\n      mload(0x40)\n      dup1\n      swap2\n      sub\n      swap1\n      return\n        /* \"DegenToken.sol\":83:111  address public commandCenter */\n    tag_4:\n      tag_20\n      tag_21\n      jump\t// in\n    tag_20:\n      mload(0x40)\n      tag_22\n      swap2\n      swap1\n      tag_23\n      jump\t// in\n    tag_22:\n      mload(0x40)\n      dup1\n      swap2\n      sub\n      swap1\n      return\n        /* \"DegenToken.sol\":616:653  mapping(uint256 => NFT) public Reward */\n    tag_5:\n      tag_24\n      0x04\n      dup1\n      calldatasize\n      sub\n      dup2\n      add\n      swap1\n      tag_25\n      swap2\n      swap1\n      tag_26\n      jump\t// in\n    tag_25:\n      tag_27\n      jump\t// in\n    tag_24:\n      mload(0x40)\n      tag_28\n      swap3\n      swap2\n      swap1\n      tag_29\n      jump\t// in\n    tag_28:\n      mload(0x40)\n      dup1\n      swap2\n      sub\n      swap1\n      return\n        /* \"DegenToken.sol\":1366:1550  function burn(uint amount) external{... */\n    tag_6:\n      tag_30\n      0x04\n      dup1\n      calldatasize\n      sub\n      dup2\n      add\n      swap1\n      tag_31\n      swap2\n      swap1\n      tag_26\n      jump\t// in\n    tag_31:\n      tag_32\n      jump\t// in\n    tag_30:\n      stop\n        /* \"DegenToken.sol\":1560:1681  function Check_Balanace(address user_address) external view returns(uint){... */\n    tag_7:\n      tag_33\n      0x04\n      dup1\n      calldatasize\n      sub\n      dup2\n      add\n      swap1\n      tag_34\n      swap2\n      swap1\n      tag_35\n      jump\t// in\n    tag_34:\n      tag_36\n      jump\t// in\n    tag_33:\n      mload(0x40)\n      tag_37\n      swap2\n      swap1\n      tag_38\n      jump\t// in\n    tag_37:\n      mload(0x40)\n      dup1\n      swap2\n      sub\n      swap1\n      return\n        /* \"DegenToken.sol\":797:1048  function mint(uint amount , address receiver_address) ownerOnly external {... */\n    tag_8:\n      tag_39\n      0x04\n      dup1\n      calldatasize\n      sub\n      dup2\n      add\n      swap1\n      tag_40\n      swap2\n      swap1\n      tag_41\n      jump\t// in\n    tag_40:\n      tag_42\n      jump\t// in\n    tag_39:\n      stop\n        /* \"DegenToken.sol\":124:156  string public TokenName =\"Degen\" */\n    tag_9:\n      tag_43\n      tag_44\n      jump\t// in\n    tag_43:\n      mload(0x40)\n      tag_45\n      swap2\n      swap1\n      tag_19\n      jump\t// in\n    tag_45:\n      mload(0x40)\n      dup1\n      swap2\n      sub\n      swap1\n      return\n        /* \"DegenToken.sol\":1058:1356  function transfer(uint amount, address receiver_address) external{... */\n    tag_10:\n      tag_46\n      0x04\n      dup1\n      calldatasize\n      sub\n      dup2\n      add\n      swap1\n      tag_47\n      swap2\n      swap1\n      tag_41\n      jump\t// in\n    tag_47:\n      tag_48\n      jump\t// in\n    tag_46:\n      stop\n        /* \"DegenToken.sol\":660:709  mapping(address => string[]) public redeemedItems */\n    tag_11:\n      tag_49\n      0x04\n      dup1\n      calldatasize\n      sub\n      dup2\n      add\n      swap1\n      tag_50\n      swap2\n      swap1\n      tag_51\n      jump\t// in\n    tag_50:\n      tag_52\n      jump\t// in\n    tag_49:\n      mload(0x40)\n      tag_53\n      swap2\n      swap1\n      tag_19\n      jump\t// in\n    tag_53:\n      mload(0x40)\n      dup1\n      swap2\n      sub\n      swap1\n      return\n        /* \"DegenToken.sol\":1691:2142  function redeem(uint reward_ID) external returns (string memory){... */\n    tag_12:\n      tag_54\n      0x04\n      dup1\n      calldatasize\n      sub\n      dup2\n      add\n      swap1\n      tag_55\n      swap2\n      swap1\n      tag_26\n      jump\t// in\n    tag_55:\n      tag_56\n      jump\t// in\n    tag_54:\n      mload(0x40)\n      tag_57\n      swap2\n      swap1\n      tag_19\n      jump\t// in\n    tag_57:\n      mload(0x40)\n      dup1\n      swap2\n      sub\n      swap1\n      return\n        /* \"DegenToken.sol\":197:218  uint public Supply =0 */\n    tag_13:\n      tag_58\n      tag_59\n      jump\t// in\n    tag_58:\n      mload(0x40)\n      tag_60\n      swap2\n      swap1\n      tag_38\n      jump\t// in\n    tag_60:\n      mload(0x40)\n      dup1\n      swap2\n      sub\n      swap1\n      return\n        /* \"DegenToken.sol\":2151:2276  function getRedeemedItems(address user) external view returns (string[] memory) {... */\n    tag_14:\n      tag_61\n      0x04\n      dup1\n      calldatasize\n      sub\n      dup2\n      add\n      swap1\n      tag_62\n      swap2\n      swap1\n      tag_35\n      jump\t// in\n    tag_62:\n      tag_63\n      jump\t// in\n    tag_61:\n      mload(0x40)\n      tag_64\n      swap2\n      swap1\n      tag_65\n      jump\t// in\n    tag_64:\n      mload(0x40)\n      dup1\n      swap2\n      sub\n      swap1\n      return\n        /* \"DegenToken.sol\":163:190  string public Symbol =\"DGN\" */\n    tag_17:\n      0x02\n      dup1\n      sload\n      tag_66\n      swap1\n      tag_67\n      jump\t// in\n    tag_66:\n      dup1\n      0x1f\n      add\n      0x20\n      dup1\n      swap2\n      div\n      mul\n      0x20\n      add\n      mload(0x40)\n      swap1\n      dup2\n      add\n      0x40\n      mstore\n      dup1\n      swap3\n      swap2\n      swap1\n      dup2\n      dup2\n      mstore\n      0x20\n      add\n      dup3\n      dup1\n      sload\n      tag_68\n      swap1\n      tag_67\n      jump\t// in\n    tag_68:\n      dup1\n      iszero\n      tag_69\n      jumpi\n      dup1\n      0x1f\n      lt\n      tag_70\n      jumpi\n      0x0100\n      dup1\n      dup4\n      sload\n      div\n      mul\n      dup4\n      mstore\n      swap2\n      0x20\n      add\n      swap2\n      jump(tag_69)\n    tag_70:\n      dup3\n      add\n      swap2\n      swap1\n      0x00\n      mstore\n      keccak256(0x00, 0x20)\n      swap1\n    tag_71:\n      dup2\n      sload\n      dup2\n      mstore\n      swap1\n      0x01\n      add\n      swap1\n      0x20\n      add\n      dup1\n      dup4\n      gt\n      tag_71\n      jumpi\n      dup3\n      swap1\n      sub\n      0x1f\n      and\n      dup3\n      add\n      swap2\n    tag_69:\n      pop\n      pop\n      pop\n      pop\n      pop\n      dup2\n      jump\t// out\n        /* \"DegenToken.sol\":83:111  address public commandCenter */\n    tag_21:\n      0x00\n      dup1\n      sload\n      swap1\n      0x0100\n      exp\n      swap1\n      div\n      0xffffffffffffffffffffffffffffffffffffffff\n      and\n      dup2\n      jump\t// out\n        /* \"DegenToken.sol\":616:653  mapping(uint256 => NFT) public Reward */\n    tag_27:\n      mstore(0x20, 0x05)\n      dup1\n      0x00\n      mstore\n      keccak256(0x00, 0x40)\n      0x00\n      swap2\n      pop\n      swap1\n      pop\n      dup1\n      0x00\n      add\n      dup1\n      sload\n      tag_72\n      swap1\n      tag_67\n      jump\t// in\n    tag_72:\n      dup1\n      0x1f\n      add\n      0x20\n      dup1\n      swap2\n      div\n      mul\n      0x20\n      add\n      mload(0x40)\n      swap1\n      dup2\n      add\n      0x40\n      mstore\n      dup1\n      swap3\n      swap2\n      swap1\n      dup2\n      dup2\n      mstore\n      0x20\n      add\n      dup3\n      dup1\n      sload\n      tag_73\n      swap1\n      tag_67\n      jump\t// in\n    tag_73:\n      dup1\n      iszero\n      tag_74\n      jumpi\n      dup1\n      0x1f\n      lt\n      tag_75\n      jumpi\n      0x0100\n      dup1\n      dup4\n      sload\n      div\n      mul\n      dup4\n      mstore\n      swap2\n      0x20\n      add\n      swap2\n      jump(tag_74)\n    tag_75:\n      dup3\n      add\n      swap2\n      swap1\n      0x00\n      mstore\n      keccak256(0x00, 0x20)\n      swap1\n    tag_76:\n      dup2\n      sload\n      dup2\n      mstore\n      swap1\n      0x01\n      add\n      swap1\n      0x20\n      add\n      dup1\n      dup4\n      gt\n      tag_76\n      jumpi\n      dup3\n      swap1\n      sub\n      0x1f\n      and\n      dup3\n      add\n      swap2\n    tag_74:\n      pop\n      pop\n      pop\n      pop\n      pop\n      swap1\n      dup1\n      0x01\n      add\n      sload\n      swap1\n      pop\n      dup3\n      jump\t// out\n        /* \"DegenToken.sol\":1366:1550  function burn(uint amount) external{... */\n    tag_32:\n        /* \"DegenToken.sol\":1428:1435  balance */\n      0x04\n        /* \"DegenToken.sol\":1428:1447  balance[msg.sender] */\n      0x00\n        /* \"DegenToken.sol\":1436:1446  msg.sender */\n      caller\n        /* \"DegenToken.sol\":1428:1447  balance[msg.sender] */\n      0xffffffffffffffffffffffffffffffffffffffff\n      and\n      0xffffffffffffffffffffffffffffffffffffffff\n      and\n      dup2\n      mstore\n      0x20\n      add\n      swap1\n      dup2\n      mstore\n      0x20\n      add\n      0x00\n      keccak256\n      sload\n        /* \"DegenToken.sol\":1420:1426  amount */\n      dup2\n        /* \"DegenToken.sol\":1420:1447  amount<=balance[msg.sender] */\n      gt\n      iszero\n        /* \"DegenToken.sol\":1412:1483  require(amount<=balance[msg.sender],\"Amount should not exceed balance\") */\n      tag_78\n      jumpi\n      mload(0x40)\n      0x08c379a000000000000000000000000000000000000000000000000000000000\n      dup2\n      mstore\n      0x04\n      add\n      tag_79\n      swap1\n      tag_80\n      jump\t// in\n    tag_79:\n      mload(0x40)\n      dup1\n      swap2\n      sub\n      swap1\n      revert\n    tag_78:\n        /* \"DegenToken.sol\":1536:1542  amount */\n      dup1\n        /* \"DegenToken.sol\":1516:1523  balance */\n      0x04\n        /* \"DegenToken.sol\":1516:1535  balance[msg.sender] */\n      0x00\n        /* \"DegenToken.sol\":1524:1534  msg.sender */\n      caller\n        /* \"DegenToken.sol\":1516:1535  balance[msg.sender] */\n      0xffffffffffffffffffffffffffffffffffffffff\n      and\n      0xffffffffffffffffffffffffffffffffffffffff\n      and\n      dup2\n      mstore\n      0x20\n      add\n      swap1\n      dup2\n      mstore\n      0x20\n      add\n      0x00\n      keccak256\n      sload\n        /* \"DegenToken.sol\":1516:1542  balance[msg.sender]-amount */\n      tag_81\n      swap2\n      swap1\n      tag_82\n      jump\t// in\n    tag_81:\n        /* \"DegenToken.sol\":1496:1503  balance */\n      0x04\n        /* \"DegenToken.sol\":1496:1515  balance[msg.sender] */\n      0x00\n        /* \"DegenToken.sol\":1504:1514  msg.sender */\n      caller\n        /* \"DegenToken.sol\":1496:1515  balance[msg.sender] */\n      0xffffffffffffffffffffffffffffffffffffffff\n      and\n      0xffffffffffffffffffffffffffffffffffffffff\n      and\n      dup2\n      mstore\n      0x20\n      add\n      swap1\n      dup2\n      mstore\n      0x20\n      add\n      0x00\n      keccak256\n        /* \"DegenToken.sol\":1496:1542  balance[msg.sender]=balance[msg.sender]-amount */\n      dup2\n      swap1\n      sstore\n      pop\n        /* \"DegenToken.sol\":1366:1550  function burn(uint amount) external{... */\n      pop\n      jump\t// out\n        /* \"DegenToken.sol\":1560:1681  function Check_Balanace(address user_address) external view returns(uint){... */\n    tag_36:\n        /* \"DegenToken.sol\":1628:1632  uint */\n      0x00\n        /* \"DegenToken.sol\":1651:1658  balance */\n      0x04\n        /* \"DegenToken.sol\":1651:1672  balance[user_address] */\n      0x00\n        /* \"DegenToken.sol\":1659:1671  user_address */\n      dup4\n        /* \"DegenToken.sol\":1651:1672  balance[user_address] */\n      0xffffffffffffffffffffffffffffffffffffffff\n      and\n      0xffffffffffffffffffffffffffffffffffffffff\n      and\n      dup2\n      mstore\n      0x20\n      add\n      swap1\n      dup2\n      mstore\n      0x20\n      add\n      0x00\n      keccak256\n      sload\n        /* \"DegenToken.sol\":1644:1673  return(balance[user_address]) */\n      swap1\n      pop\n        /* \"DegenToken.sol\":1560:1681  function Check_Balanace(address user_address) external view returns(uint){... */\n      swap2\n      swap1\n      pop\n      jump\t// out\n        /* \"DegenToken.sol\":797:1048  function mint(uint amount , address receiver_address) ownerOnly external {... */\n    tag_42:\n        /* \"DegenToken.sol\":473:486  commandCenter */\n      0x00\n      dup1\n      sload\n      swap1\n      0x0100\n      exp\n      swap1\n      div\n      0xffffffffffffffffffffffffffffffffffffffff\n      and\n        /* \"DegenToken.sol\":459:486  msg.sender == commandCenter */\n      0xffffffffffffffffffffffffffffffffffffffff\n      and\n        /* \"DegenToken.sol\":459:469  msg.sender */\n      caller\n        /* \"DegenToken.sol\":459:486  msg.sender == commandCenter */\n      0xffffffffffffffffffffffffffffffffffffffff\n      and\n      eq\n        /* \"DegenToken.sol\":451:534  require(msg.sender == commandCenter, \"Command center has rights to mint new token\") */\n      tag_85\n      jumpi\n      mload(0x40)\n      0x08c379a000000000000000000000000000000000000000000000000000000000\n      dup2\n      mstore\n      0x04\n      add\n      tag_86\n      swap1\n      tag_87\n      jump\t// in\n    tag_86:\n      mload(0x40)\n      dup1\n      swap2\n      sub\n      swap1\n      revert\n    tag_85:\n        /* \"DegenToken.sol\":896:897  0 */\n      0x00\n        /* \"DegenToken.sol\":889:895  amount */\n      dup3\n        /* \"DegenToken.sol\":889:897  amount>0 */\n      gt\n        /* \"DegenToken.sol\":881:940  require(amount>0,\"Minting amount should be greater than 0\") */\n      tag_89\n      jumpi\n      mload(0x40)\n      0x08c379a000000000000000000000000000000000000000000000000000000000\n      dup2\n      mstore\n      0x04\n      add\n      tag_90\n      swap1\n      tag_91\n      jump\t// in\n    tag_90:\n      mload(0x40)\n      dup1\n      swap2\n      sub\n      swap1\n      revert\n    tag_89:\n        /* \"DegenToken.sol\":965:971  amount */\n      dup2\n        /* \"DegenToken.sol\":958:964  Supply */\n      sload(0x03)\n        /* \"DegenToken.sol\":958:971  Supply+amount */\n      tag_92\n      swap2\n      swap1\n      tag_93\n      jump\t// in\n    tag_92:\n        /* \"DegenToken.sol\":951:957  Supply */\n      0x03\n        /* \"DegenToken.sol\":951:971  Supply=Supply+amount */\n      dup2\n      swap1\n      sstore\n      pop\n        /* \"DegenToken.sol\":1034:1040  amount */\n      dup2\n        /* \"DegenToken.sol\":1008:1015  balance */\n      0x04\n        /* \"DegenToken.sol\":1008:1033  balance[receiver_address] */\n      0x00\n        /* \"DegenToken.sol\":1016:1032  receiver_address */\n      dup4\n        /* \"DegenToken.sol\":1008:1033  balance[receiver_address] */\n      0xffffffffffffffffffffffffffffffffffffffff\n      and\n      0xffffffffffffffffffffffffffffffffffffffff\n      and\n      dup2\n      mstore\n      0x20\n      add\n      swap1\n      dup2\n      mstore\n      0x20\n      add\n      0x00\n      keccak256\n      sload\n        /* \"DegenToken.sol\":1008:1040  balance[receiver_address]+amount */\n      tag_94\n      swap2\n      swap1\n      tag_93\n      jump\t// in\n    tag_94:\n        /* \"DegenToken.sol\":982:989  balance */\n      0x04\n        /* \"DegenToken.sol\":982:1007  balance[receiver_address] */\n      0x00\n        /* \"DegenToken.sol\":990:1006  receiver_address */\n      dup4\n        /* \"DegenToken.sol\":982:1007  balance[receiver_address] */\n      0xffffffffffffffffffffffffffffffffffffffff\n      and\n      0xffffffffffffffffffffffffffffffffffffffff\n      and\n      dup2\n      mstore\n      0x20\n      add\n      swap1\n      dup2\n      mstore\n      0x20\n      add\n      0x00\n      keccak256\n        /* \"DegenToken.sol\":982:1040  balance[receiver_address]=balance[receiver_address]+amount */\n      dup2\n      swap1\n      sstore\n      pop\n        /* \"DegenToken.sol\":797:1048  function mint(uint amount , address receiver_address) ownerOnly external {... */\n      pop\n      pop\n      jump\t// out\n        /* \"DegenToken.sol\":124:156  string public TokenName =\"Degen\" */\n    tag_44:\n      0x01\n      dup1\n      sload\n      tag_95\n      swap1\n      tag_67\n      jump\t// in\n    tag_95:\n      dup1\n      0x1f\n      add\n      0x20\n      dup1\n      swap2\n      div\n      mul\n      0x20\n      add\n      mload(0x40)\n      swap1\n      dup2\n      add\n      0x40\n      mstore\n      dup1\n      swap3\n      swap2\n      swap1\n      dup2\n      dup2\n      mstore\n      0x20\n      add\n      dup3\n      dup1\n      sload\n      tag_96\n      swap1\n      tag_67\n      jump\t// in\n    tag_96:\n      dup1\n      iszero\n      tag_97\n      jumpi\n      dup1\n      0x1f\n      lt\n      tag_98\n      jumpi\n      0x0100\n      dup1\n      dup4\n      sload\n      div\n      mul\n      dup4\n      mstore\n      swap2\n      0x20\n      add\n      swap2\n      jump(tag_97)\n    tag_98:\n      dup3\n      add\n      swap2\n      swap1\n      0x00\n      mstore\n      keccak256(0x00, 0x20)\n      swap1\n    tag_99:\n      dup2\n      sload\n      dup2\n      mstore\n      swap1\n      0x01\n      add\n      swap1\n      0x20\n      add\n      dup1\n      dup4\n      gt\n      tag_99\n      jumpi\n      dup3\n      swap1\n      sub\n      0x1f\n      and\n      dup3\n      add\n      swap2\n    tag_97:\n      pop\n      pop\n      pop\n      pop\n      pop\n      dup2\n      jump\t// out\n        /* \"DegenToken.sol\":1058:1356  function transfer(uint amount, address receiver_address) external{... */\n    tag_48:\n        /* \"DegenToken.sol\":1150:1157  balance */\n      0x04\n        /* \"DegenToken.sol\":1150:1169  balance[msg.sender] */\n      0x00\n        /* \"DegenToken.sol\":1158:1168  msg.sender */\n      caller\n        /* \"DegenToken.sol\":1150:1169  balance[msg.sender] */\n      0xffffffffffffffffffffffffffffffffffffffff\n      and\n      0xffffffffffffffffffffffffffffffffffffffff\n      and\n      dup2\n      mstore\n      0x20\n      add\n      swap1\n      dup2\n      mstore\n      0x20\n      add\n      0x00\n      keccak256\n      sload\n        /* \"DegenToken.sol\":1142:1148  amount */\n      dup3\n        /* \"DegenToken.sol\":1142:1169  amount<=balance[msg.sender] */\n      gt\n      iszero\n        /* \"DegenToken.sol\":1134:1220  require(amount<=balance[msg.sender],\"Amount should be less than the sender's balance\") */\n      tag_101\n      jumpi\n      mload(0x40)\n      0x08c379a000000000000000000000000000000000000000000000000000000000\n      dup2\n      mstore\n      0x04\n      add\n      tag_102\n      swap1\n      tag_103\n      jump\t// in\n    tag_102:\n      mload(0x40)\n      dup1\n      swap2\n      sub\n      swap1\n      revert\n    tag_101:\n        /* \"DegenToken.sol\":1285:1291  amount */\n      dup2\n        /* \"DegenToken.sol\":1259:1266  balance */\n      0x04\n        /* \"DegenToken.sol\":1259:1284  balance[receiver_address] */\n      0x00\n        /* \"DegenToken.sol\":1267:1283  receiver_address */\n      dup4\n        /* \"DegenToken.sol\":1259:1284  balance[receiver_address] */\n      0xffffffffffffffffffffffffffffffffffffffff\n      and\n      0xffffffffffffffffffffffffffffffffffffffff\n      and\n      dup2\n      mstore\n      0x20\n      add\n      swap1\n      dup2\n      mstore\n      0x20\n      add\n      0x00\n      keccak256\n      sload\n        /* \"DegenToken.sol\":1259:1291  balance[receiver_address]+amount */\n      tag_104\n      swap2\n      swap1\n      tag_93\n      jump\t// in\n    tag_104:\n        /* \"DegenToken.sol\":1231:1238  balance */\n      0x04\n        /* \"DegenToken.sol\":1231:1256  balance[receiver_address] */\n      0x00\n        /* \"DegenToken.sol\":1239:1255  receiver_address */\n      dup4\n        /* \"DegenToken.sol\":1231:1256  balance[receiver_address] */\n      0xffffffffffffffffffffffffffffffffffffffff\n      and\n      0xffffffffffffffffffffffffffffffffffffffff\n      and\n      dup2\n      mstore\n      0x20\n      add\n      swap1\n      dup2\n      mstore\n      0x20\n      add\n      0x00\n      keccak256\n        /* \"DegenToken.sol\":1231:1291  balance[receiver_address] = balance[receiver_address]+amount */\n      dup2\n      swap1\n      sstore\n      pop\n        /* \"DegenToken.sol\":1342:1348  amount */\n      dup2\n        /* \"DegenToken.sol\":1322:1329  balance */\n      0x04\n        /* \"DegenToken.sol\":1322:1341  balance[msg.sender] */\n      0x00\n        /* \"DegenToken.sol\":1330:1340  msg.sender */\n      caller\n        /* \"DegenToken.sol\":1322:1341  balance[msg.sender] */\n      0xffffffffffffffffffffffffffffffffffffffff\n      and\n      0xffffffffffffffffffffffffffffffffffffffff\n      and\n      dup2\n      mstore\n      0x20\n      add\n      swap1\n      dup2\n      mstore\n      0x20\n      add\n      0x00\n      keccak256\n      sload\n        /* \"DegenToken.sol\":1322:1348  balance[msg.sender]-amount */\n      tag_105\n      swap2\n      swap1\n      tag_82\n      jump\t// in\n    tag_105:\n        /* \"DegenToken.sol\":1302:1309  balance */\n      0x04\n        /* \"DegenToken.sol\":1302:1321  balance[msg.sender] */\n      0x00\n        /* \"DegenToken.sol\":1310:1320  msg.sender */\n      caller\n        /* \"DegenToken.sol\":1302:1321  balance[msg.sender] */\n      0xffffffffffffffffffffffffffffffffffffffff\n      and\n      0xffffffffffffffffffffffffffffffffffffffff\n      and\n      dup2\n      mstore\n      0x20\n      add\n      swap1\n      dup2\n      mstore\n      0x20\n      add\n      0x00\n      keccak256\n        /* \"DegenToken.sol\":1302:1348  balance[msg.sender]=balance[msg.sender]-amount */\n      dup2\n      swap1\n      sstore\n      pop\n        /* \"DegenToken.sol\":1058:1356  function transfer(uint amount, address receiver_address) external{... */\n      pop\n      pop\n      jump\t// out\n        /* \"DegenToken.sol\":660:709  mapping(address => string[]) public redeemedItems */\n    tag_52:\n      mstore(0x20, 0x06)\n      dup2\n      0x00\n      mstore\n      keccak256(0x00, 0x40)\n      dup2\n      dup2\n      sload\n      dup2\n      lt\n      tag_106\n      jumpi\n      0x00\n      dup1\n      revert\n    tag_106:\n      swap1\n      0x00\n      mstore\n      keccak256(0x00, 0x20)\n      add\n      0x00\n      swap2\n      pop\n      swap2\n      pop\n      pop\n      dup1\n      sload\n      tag_108\n      swap1\n      tag_67\n      jump\t// in\n    tag_108:\n      dup1\n      0x1f\n      add\n      0x20\n      dup1\n      swap2\n      div\n      mul\n      0x20\n      add\n      mload(0x40)\n      swap1\n      dup2\n      add\n      0x40\n      mstore\n      dup1\n      swap3\n      swap2\n      swap1\n      dup2\n      dup2\n      mstore\n      0x20\n      add\n      dup3\n      dup1\n      sload\n      tag_109\n      swap1\n      tag_67\n      jump\t// in\n    tag_109:\n      dup1\n      iszero\n      tag_110\n      jumpi\n      dup1\n      0x1f\n      lt\n      tag_111\n      jumpi\n      0x0100\n      dup1\n      dup4\n      sload\n      div\n      mul\n      dup4\n      mstore\n      swap2\n      0x20\n      add\n      swap2\n      jump(tag_110)\n    tag_111:\n      dup3\n      add\n      swap2\n      swap1\n      0x00\n      mstore\n      keccak256(0x00, 0x20)\n      swap1\n    tag_112:\n      dup2\n      sload\n      dup2\n      mstore\n      swap1\n      0x01\n      add\n      swap1\n      0x20\n      add\n      dup1\n      dup4\n      gt\n      tag_112\n      jumpi\n      dup3\n      swap1\n      sub\n      0x1f\n      and\n      dup3\n      add\n      swap2\n    tag_110:\n      pop\n      pop\n      pop\n      pop\n      pop\n      dup2\n      jump\t// out\n        /* \"DegenToken.sol\":1691:2142  function redeem(uint reward_ID) external returns (string memory){... */\n    tag_56:\n        /* \"DegenToken.sol\":1741:1754  string memory */\n      0x60\n        /* \"DegenToken.sol\":1801:1808  balance */\n      0x04\n        /* \"DegenToken.sol\":1801:1820  balance[msg.sender] */\n      0x00\n        /* \"DegenToken.sol\":1809:1819  msg.sender */\n      caller\n        /* \"DegenToken.sol\":1801:1820  balance[msg.sender] */\n      0xffffffffffffffffffffffffffffffffffffffff\n      and\n      0xffffffffffffffffffffffffffffffffffffffff\n      and\n      dup2\n      mstore\n      0x20\n      add\n      swap1\n      dup2\n      mstore\n      0x20\n      add\n      0x00\n      keccak256\n      sload\n        /* \"DegenToken.sol\":1774:1780  Reward */\n      0x05\n        /* \"DegenToken.sol\":1774:1791  Reward[reward_ID] */\n      0x00\n        /* \"DegenToken.sol\":1781:1790  reward_ID */\n      dup5\n        /* \"DegenToken.sol\":1774:1791  Reward[reward_ID] */\n      dup2\n      mstore\n      0x20\n      add\n      swap1\n      dup2\n      mstore\n      0x20\n      add\n      0x00\n      keccak256\n        /* \"DegenToken.sol\":1774:1797  Reward[reward_ID].price */\n      0x01\n      add\n      sload\n        /* \"DegenToken.sol\":1774:1820  Reward[reward_ID].price <= balance[msg.sender] */\n      gt\n      iszero\n        /* \"DegenToken.sol\":1766:1844  require(Reward[reward_ID].price <= balance[msg.sender],\"Insufficient Balance\") */\n      tag_114\n      jumpi\n      mload(0x40)\n      0x08c379a000000000000000000000000000000000000000000000000000000000\n      dup2\n      mstore\n      0x04\n      add\n      tag_115\n      swap1\n      tag_116\n      jump\t// in\n    tag_115:\n      mload(0x40)\n      dup1\n      swap2\n      sub\n      swap1\n      revert\n    tag_114:\n        /* \"DegenToken.sol\":1871:1872  0 */\n      0x00\n        /* \"DegenToken.sol\":1858:1867  reward_ID */\n      dup3\n        /* \"DegenToken.sol\":1858:1872  reward_ID != 0 */\n      eq\n      iszero\n        /* \"DegenToken.sol\":1858:1890  reward_ID != 0 && reward_ID != 1 */\n      dup1\n      iszero\n      tag_117\n      jumpi\n      pop\n        /* \"DegenToken.sol\":1889:1890  1 */\n      0x01\n        /* \"DegenToken.sol\":1876:1885  reward_ID */\n      dup3\n        /* \"DegenToken.sol\":1876:1890  reward_ID != 1 */\n      eq\n      iszero\n        /* \"DegenToken.sol\":1858:1890  reward_ID != 0 && reward_ID != 1 */\n    tag_117:\n        /* \"DegenToken.sol\":1858:1908  reward_ID != 0 && reward_ID != 1 && reward_ID != 2 */\n      dup1\n      iszero\n      tag_118\n      jumpi\n      pop\n        /* \"DegenToken.sol\":1907:1908  2 */\n      0x02\n        /* \"DegenToken.sol\":1894:1903  reward_ID */\n      dup3\n        /* \"DegenToken.sol\":1894:1908  reward_ID != 2 */\n      eq\n      iszero\n        /* \"DegenToken.sol\":1858:1908  reward_ID != 0 && reward_ID != 1 && reward_ID != 2 */\n    tag_118:\n        /* \"DegenToken.sol\":1855:1955  if(reward_ID != 0 && reward_ID != 1 && reward_ID != 2){... */\n      iszero\n      tag_119\n      jumpi\n        /* \"DegenToken.sol\":1920:1947  revert(\"Invalid reward ID\") */\n      mload(0x40)\n      0x08c379a000000000000000000000000000000000000000000000000000000000\n      dup2\n      mstore\n      0x04\n      add\n      tag_120\n      swap1\n      tag_121\n      jump\t// in\n    tag_120:\n      mload(0x40)\n      dup1\n      swap2\n      sub\n      swap1\n      revert\n        /* \"DegenToken.sol\":1855:1955  if(reward_ID != 0 && reward_ID != 1 && reward_ID != 2){... */\n    tag_119:\n        /* \"DegenToken.sol\":1965:1978  redeemedItems */\n      0x06\n        /* \"DegenToken.sol\":1965:1990  redeemedItems[msg.sender] */\n      0x00\n        /* \"DegenToken.sol\":1979:1989  msg.sender */\n      caller\n        /* \"DegenToken.sol\":1965:1990  redeemedItems[msg.sender] */\n      0xffffffffffffffffffffffffffffffffffffffff\n      and\n      0xffffffffffffffffffffffffffffffffffffffff\n      and\n      dup2\n      mstore\n      0x20\n      add\n      swap1\n      dup2\n      mstore\n      0x20\n      add\n      0x00\n      keccak256\n        /* \"DegenToken.sol\":1996:2002  Reward */\n      0x05\n        /* \"DegenToken.sol\":1996:2013  Reward[reward_ID] */\n      0x00\n        /* \"DegenToken.sol\":2003:2012  reward_ID */\n      dup5\n        /* \"DegenToken.sol\":1996:2013  Reward[reward_ID] */\n      dup2\n      mstore\n      0x20\n      add\n      swap1\n      dup2\n      mstore\n      0x20\n      add\n      0x00\n      keccak256\n        /* \"DegenToken.sol\":1996:2018  Reward[reward_ID].name */\n      0x00\n      add\n        /* \"DegenToken.sol\":1965:2019  redeemedItems[msg.sender].push(Reward[reward_ID].name) */\n      swap1\n      dup1\n      0x01\n      dup2\n      sload\n      add\n      dup1\n      dup3\n      sstore\n      dup1\n      swap2\n      pop\n      pop\n      0x01\n      swap1\n      sub\n      swap1\n      0x00\n      mstore\n      keccak256(0x00, 0x20)\n      add\n      0x00\n      swap1\n      swap2\n      swap1\n      swap2\n      swap1\n      swap2\n      pop\n      swap1\n      dup2\n      tag_123\n      swap2\n      swap1\n      tag_124\n      jump\t// in\n    tag_123:\n      pop\n        /* \"DegenToken.sol\":2071:2077  Reward */\n      0x05\n        /* \"DegenToken.sol\":2071:2088  Reward[reward_ID] */\n      0x00\n        /* \"DegenToken.sol\":2078:2087  reward_ID */\n      dup4\n        /* \"DegenToken.sol\":2071:2088  Reward[reward_ID] */\n      dup2\n      mstore\n      0x20\n      add\n      swap1\n      dup2\n      mstore\n      0x20\n      add\n      0x00\n      keccak256\n        /* \"DegenToken.sol\":2071:2094  Reward[reward_ID].price */\n      0x01\n      add\n      sload\n        /* \"DegenToken.sol\":2051:2058  balance */\n      0x04\n        /* \"DegenToken.sol\":2051:2070  balance[msg.sender] */\n      0x00\n        /* \"DegenToken.sol\":2059:2069  msg.sender */\n      caller\n        /* \"DegenToken.sol\":2051:2070  balance[msg.sender] */\n      0xffffffffffffffffffffffffffffffffffffffff\n      and\n      0xffffffffffffffffffffffffffffffffffffffff\n      and\n      dup2\n      mstore\n      0x20\n      add\n      swap1\n      dup2\n      mstore\n      0x20\n      add\n      0x00\n      keccak256\n      sload\n        /* \"DegenToken.sol\":2051:2094  balance[msg.sender]-Reward[reward_ID].price */\n      tag_125\n      swap2\n      swap1\n      tag_82\n      jump\t// in\n    tag_125:\n        /* \"DegenToken.sol\":2030:2037  balance */\n      0x04\n        /* \"DegenToken.sol\":2030:2049  balance[msg.sender] */\n      0x00\n        /* \"DegenToken.sol\":2038:2048  msg.sender */\n      caller\n        /* \"DegenToken.sol\":2030:2049  balance[msg.sender] */\n      0xffffffffffffffffffffffffffffffffffffffff\n      and\n      0xffffffffffffffffffffffffffffffffffffffff\n      and\n      dup2\n      mstore\n      0x20\n      add\n      swap1\n      dup2\n      mstore\n      0x20\n      add\n      0x00\n      keccak256\n        /* \"DegenToken.sol\":2030:2094  balance[msg.sender]= balance[msg.sender]-Reward[reward_ID].price */\n      dup2\n      swap1\n      sstore\n      pop\n        /* \"DegenToken.sol\":2112:2118  Reward */\n      0x05\n        /* \"DegenToken.sol\":2112:2129  Reward[reward_ID] */\n      0x00\n        /* \"DegenToken.sol\":2119:2128  reward_ID */\n      dup4\n        /* \"DegenToken.sol\":2112:2129  Reward[reward_ID] */\n      dup2\n      mstore\n      0x20\n      add\n      swap1\n      dup2\n      mstore\n      0x20\n      add\n      0x00\n      keccak256\n        /* \"DegenToken.sol\":2112:2134  Reward[reward_ID].name */\n      0x00\n      add\n        /* \"DegenToken.sol\":2105:2134  return Reward[reward_ID].name */\n      dup1\n      sload\n      tag_126\n      swap1\n      tag_67\n      jump\t// in\n    tag_126:\n      dup1\n      0x1f\n      add\n      0x20\n      dup1\n      swap2\n      div\n      mul\n      0x20\n      add\n      mload(0x40)\n      swap1\n      dup2\n      add\n      0x40\n      mstore\n      dup1\n      swap3\n      swap2\n      swap1\n      dup2\n      dup2\n      mstore\n      0x20\n      add\n      dup3\n      dup1\n      sload\n      tag_127\n      swap1\n      tag_67\n      jump\t// in\n    tag_127:\n      dup1\n      iszero\n      tag_128\n      jumpi\n      dup1\n      0x1f\n      lt\n      tag_129\n      jumpi\n      0x0100\n      dup1\n      dup4\n      sload\n      div\n      mul\n      dup4\n      mstore\n      swap2\n      0x20\n      add\n      swap2\n      jump(tag_128)\n    tag_129:\n      dup3\n      add\n      swap2\n      swap1\n      0x00\n      mstore\n      keccak256(0x00, 0x20)\n      swap1\n    tag_130:\n      dup2\n      sload\n      dup2\n      mstore\n      swap1\n      0x01\n      add\n      swap1\n      0x20\n      add\n      dup1\n      dup4\n      gt\n      tag_130\n      jumpi\n      dup3\n      swap1\n      sub\n      0x1f\n      and\n      dup3\n      add\n      swap2\n    tag_128:\n      pop\n      pop\n      pop\n      pop\n      pop\n      swap1\n      pop\n        /* \"DegenToken.sol\":1691:2142  function redeem(uint reward_ID) external returns (string memory){... */\n      swap2\n      swap1\n      pop\n      jump\t// out\n        /* \"DegenToken.sol\":197:218  uint public Supply =0 */\n    tag_59:\n      sload(0x03)\n      dup2\n      jump\t// out\n        /* \"DegenToken.sol\":2151:2276  function getRedeemedItems(address user) external view returns (string[] memory) {... */\n    tag_63:\n        /* \"DegenToken.sol\":2214:2229  string[] memory */\n      0x60\n        /* \"DegenToken.sol\":2249:2262  redeemedItems */\n      0x06\n        /* \"DegenToken.sol\":2249:2268  redeemedItems[user] */\n      0x00\n        /* \"DegenToken.sol\":2263:2267  user */\n      dup4\n        /* \"DegenToken.sol\":2249:2268  redeemedItems[user] */\n      0xffffffffffffffffffffffffffffffffffffffff\n      and\n      0xffffffffffffffffffffffffffffffffffffffff\n      and\n      dup2\n      mstore\n      0x20\n      add\n      swap1\n      dup2\n      mstore\n      0x20\n      add\n      0x00\n      keccak256\n        /* \"DegenToken.sol\":2242:2268  return redeemedItems[user] */\n      dup1\n      sload\n      dup1\n      0x20\n      mul\n      0x20\n      add\n      mload(0x40)\n      swap1\n      dup2\n      add\n      0x40\n      mstore\n      dup1\n      swap3\n      swap2\n      swap1\n      dup2\n      dup2\n      mstore\n      0x20\n      add\n      0x00\n      swap1\n    tag_132:\n      dup3\n      dup3\n      lt\n      iszero\n      tag_133\n      jumpi\n      dup4\n      dup3\n      swap1\n      0x00\n      mstore\n      keccak256(0x00, 0x20)\n      add\n      dup1\n      sload\n      tag_135\n      swap1\n      tag_67\n      jump\t// in\n    tag_135:\n      dup1\n      0x1f\n      add\n      0x20\n      dup1\n      swap2\n      div\n      mul\n      0x20\n      add\n      mload(0x40)\n      swap1\n      dup2\n      add\n      0x40\n      mstore\n      dup1\n      swap3\n      swap2\n      swap1\n      dup2\n      dup2\n      mstore\n      0x20\n      add\n      dup3\n      dup1\n      sload\n      tag_136\n      swap1\n      tag_67\n      jump\t// in\n    tag_136:\n      dup1\n      iszero\n      tag_137\n      jumpi\n      dup1\n      0x1f\n      lt\n      tag_138\n      jumpi\n      0x0100\n      dup1\n      dup4\n      sload\n      div\n      mul\n      dup4\n      mstore\n      swap2\n      0x20\n      add\n      swap2\n      jump(tag_137)\n    tag_138:\n      dup3\n      add\n      swap2\n      swap1\n      0x00\n      mstore\n      keccak256(0x00, 0x20)\n      swap1\n    tag_139:\n      dup2\n      sload\n      dup2\n      mstore\n      swap1\n      0x01\n      add\n      swap1\n      0x20\n      add\n      dup1\n      dup4\n      gt\n      tag_139\n      jumpi\n      dup3\n      swap1\n      sub\n      0x1f\n      and\n      dup3\n      add\n      swap2\n    tag_137:\n      pop\n      pop\n      pop\n      pop\n      pop\n      dup2\n      mstore\n      0x20\n      add\n      swap1\n      0x01\n      add\n      swap1\n      jump(tag_132)\n    tag_133:\n      pop\n      pop\n      pop\n      pop\n      swap1\n      pop\n        /* \"DegenToken.sol\":2151:2276  function getRedeemedItems(address user) external view returns (string[] memory) {... */\n      swap2\n      swap1\n      pop\n      jump\t// out\n        /* \"#utility.yul\":7:106   */\n    tag_140:\n        /* \"#utility.yul\":59:65   */\n      0x00\n        /* \"#utility.yul\":93:98   */\n      dup2\n        /* \"#utility.yul\":87:99   */\n      mload\n        /* \"#utility.yul\":77:99   */\n      swap1\n      pop\n        /* \"#utility.yul\":7:106   */\n      swap2\n      swap1\n      pop\n      jump\t// out\n        /* \"#utility.yul\":112:281   */\n    tag_141:\n        /* \"#utility.yul\":196:207   */\n      0x00\n        /* \"#utility.yul\":230:236   */\n      dup3\n        /* \"#utility.yul\":225:228   */\n      dup3\n        /* \"#utility.yul\":218:237   */\n      mstore\n        /* \"#utility.yul\":270:274   */\n      0x20\n        /* \"#utility.yul\":265:268   */\n      dup3\n        /* \"#utility.yul\":261:275   */\n      add\n        /* \"#utility.yul\":246:275   */\n      swap1\n      pop\n        /* \"#utility.yul\":112:281   */\n      swap3\n      swap2\n      pop\n      pop\n      jump\t// out\n        /* \"#utility.yul\":287:426   */\n    tag_142:\n        /* \"#utility.yul\":376:382   */\n      dup3\n        /* \"#utility.yul\":371:374   */\n      dup2\n        /* \"#utility.yul\":366:369   */\n      dup4\n        /* \"#utility.yul\":360:383   */\n      mcopy\n        /* \"#utility.yul\":417:418   */\n      0x00\n        /* \"#utility.yul\":408:414   */\n      dup4\n        /* \"#utility.yul\":403:406   */\n      dup4\n        /* \"#utility.yul\":399:415   */\n      add\n        /* \"#utility.yul\":392:419   */\n      mstore\n        /* \"#utility.yul\":287:426   */\n      pop\n      pop\n      pop\n      jump\t// out\n        /* \"#utility.yul\":432:534   */\n    tag_143:\n        /* \"#utility.yul\":473:479   */\n      0x00\n        /* \"#utility.yul\":524:526   */\n      0x1f\n        /* \"#utility.yul\":520:527   */\n      not\n        /* \"#utility.yul\":515:517   */\n      0x1f\n        /* \"#utility.yul\":508:513   */\n      dup4\n        /* \"#utility.yul\":504:518   */\n      add\n        /* \"#utility.yul\":500:528   */\n      and\n        /* \"#utility.yul\":490:528   */\n      swap1\n      pop\n        /* \"#utility.yul\":432:534   */\n      swap2\n      swap1\n      pop\n      jump\t// out\n        /* \"#utility.yul\":540:917   */\n    tag_144:\n        /* \"#utility.yul\":628:631   */\n      0x00\n        /* \"#utility.yul\":656:695   */\n      tag_203\n        /* \"#utility.yul\":689:694   */\n      dup3\n        /* \"#utility.yul\":656:695   */\n      tag_140\n      jump\t// in\n    tag_203:\n        /* \"#utility.yul\":711:782   */\n      tag_204\n        /* \"#utility.yul\":775:781   */\n      dup2\n        /* \"#utility.yul\":770:773   */\n      dup6\n        /* \"#utility.yul\":711:782   */\n      tag_141\n      jump\t// in\n    tag_204:\n        /* \"#utility.yul\":704:782   */\n      swap4\n      pop\n        /* \"#utility.yul\":791:856   */\n      tag_205\n        /* \"#utility.yul\":849:855   */\n      dup2\n        /* \"#utility.yul\":844:847   */\n      dup6\n        /* \"#utility.yul\":837:841   */\n      0x20\n        /* \"#utility.yul\":830:835   */\n      dup7\n        /* \"#utility.yul\":826:842   */\n      add\n        /* \"#utility.yul\":791:856   */\n      tag_142\n      jump\t// in\n    tag_205:\n        /* \"#utility.yul\":881:910   */\n      tag_206\n        /* \"#utility.yul\":903:909   */\n      dup2\n        /* \"#utility.yul\":881:910   */\n      tag_143\n      jump\t// in\n    tag_206:\n        /* \"#utility.yul\":876:879   */\n      dup5\n        /* \"#utility.yul\":872:911   */\n      add\n        /* \"#utility.yul\":865:911   */\n      swap2\n      pop\n        /* \"#utility.yul\":632:917   */\n      pop\n        /* \"#utility.yul\":540:917   */\n      swap3\n      swap2\n      pop\n      pop\n      jump\t// out\n        /* \"#utility.yul\":923:1236   */\n    tag_19:\n        /* \"#utility.yul\":1036:1040   */\n      0x00\n        /* \"#utility.yul\":1074:1076   */\n      0x20\n        /* \"#utility.yul\":1063:1072   */\n      dup3\n        /* \"#utility.yul\":1059:1077   */\n      add\n        /* \"#utility.yul\":1051:1077   */\n      swap1\n      pop\n        /* \"#utility.yul\":1123:1132   */\n      dup2\n        /* \"#utility.yul\":1117:1121   */\n      dup2\n        /* \"#utility.yul\":1113:1133   */\n      sub\n        /* \"#utility.yul\":1109:1110   */\n      0x00\n        /* \"#utility.yul\":1098:1107   */\n      dup4\n        /* \"#utility.yul\":1094:1111   */\n      add\n        /* \"#utility.yul\":1087:1134   */\n      mstore\n        /* \"#utility.yul\":1151:1229   */\n      tag_208\n        /* \"#utility.yul\":1224:1228   */\n      dup2\n        /* \"#utility.yul\":1215:1221   */\n      dup5\n        /* \"#utility.yul\":1151:1229   */\n      tag_144\n      jump\t// in\n    tag_208:\n        /* \"#utility.yul\":1143:1229   */\n      swap1\n      pop\n        /* \"#utility.yul\":923:1236   */\n      swap3\n      swap2\n      pop\n      pop\n      jump\t// out\n        /* \"#utility.yul\":1242:1368   */\n    tag_145:\n        /* \"#utility.yul\":1279:1286   */\n      0x00\n        /* \"#utility.yul\":1319:1361   */\n      0xffffffffffffffffffffffffffffffffffffffff\n        /* \"#utility.yul\":1312:1317   */\n      dup3\n        /* \"#utility.yul\":1308:1362   */\n      and\n        /* \"#utility.yul\":1297:1362   */\n      swap1\n      pop\n        /* \"#utility.yul\":1242:1368   */\n      swap2\n      swap1\n      pop\n      jump\t// out\n        /* \"#utility.yul\":1374:1470   */\n    tag_146:\n        /* \"#utility.yul\":1411:1418   */\n      0x00\n        /* \"#utility.yul\":1440:1464   */\n      tag_211\n        /* \"#utility.yul\":1458:1463   */\n      dup3\n        /* \"#utility.yul\":1440:1464   */\n      tag_145\n      jump\t// in\n    tag_211:\n        /* \"#utility.yul\":1429:1464   */\n      swap1\n      pop\n        /* \"#utility.yul\":1374:1470   */\n      swap2\n      swap1\n      pop\n      jump\t// out\n        /* \"#utility.yul\":1476:1594   */\n    tag_147:\n        /* \"#utility.yul\":1563:1587   */\n      tag_213\n        /* \"#utility.yul\":1581:1586   */\n      dup2\n        /* \"#utility.yul\":1563:1587   */\n      tag_146\n      jump\t// in\n    tag_213:\n        /* \"#utility.yul\":1558:1561   */\n      dup3\n        /* \"#utility.yul\":1551:1588   */\n      mstore\n        /* \"#utility.yul\":1476:1594   */\n      pop\n      pop\n      jump\t// out\n        /* \"#utility.yul\":1600:1822   */\n    tag_23:\n        /* \"#utility.yul\":1693:1697   */\n      0x00\n        /* \"#utility.yul\":1731:1733   */\n      0x20\n        /* \"#utility.yul\":1720:1729   */\n      dup3\n        /* \"#utility.yul\":1716:1734   */\n      add\n        /* \"#utility.yul\":1708:1734   */\n      swap1\n      pop\n        /* \"#utility.yul\":1744:1815   */\n      tag_215\n        /* \"#utility.yul\":1812:1813   */\n      0x00\n        /* \"#utility.yul\":1801:1810   */\n      dup4\n        /* \"#utility.yul\":1797:1814   */\n      add\n        /* \"#utility.yul\":1788:1794   */\n      dup5\n        /* \"#utility.yul\":1744:1815   */\n      tag_147\n      jump\t// in\n    tag_215:\n        /* \"#utility.yul\":1600:1822   */\n      swap3\n      swap2\n      pop\n      pop\n      jump\t// out\n        /* \"#utility.yul\":1909:2026   */\n    tag_149:\n        /* \"#utility.yul\":2018:2019   */\n      0x00\n        /* \"#utility.yul\":2015:2016   */\n      dup1\n        /* \"#utility.yul\":2008:2020   */\n      revert\n        /* \"#utility.yul\":2155:2232   */\n    tag_151:\n        /* \"#utility.yul\":2192:2199   */\n      0x00\n        /* \"#utility.yul\":2221:2226   */\n      dup2\n        /* \"#utility.yul\":2210:2226   */\n      swap1\n      pop\n        /* \"#utility.yul\":2155:2232   */\n      swap2\n      swap1\n      pop\n      jump\t// out\n        /* \"#utility.yul\":2238:2360   */\n    tag_152:\n        /* \"#utility.yul\":2311:2335   */\n      tag_221\n        /* \"#utility.yul\":2329:2334   */\n      dup2\n        /* \"#utility.yul\":2311:2335   */\n      tag_151\n      jump\t// in\n    tag_221:\n        /* \"#utility.yul\":2304:2309   */\n      dup2\n        /* \"#utility.yul\":2301:2336   */\n      eq\n        /* \"#utility.yul\":2291:2354   */\n      tag_222\n      jumpi\n        /* \"#utility.yul\":2350:2351   */\n      0x00\n        /* \"#utility.yul\":2347:2348   */\n      dup1\n        /* \"#utility.yul\":2340:2352   */\n      revert\n        /* \"#utility.yul\":2291:2354   */\n    tag_222:\n        /* \"#utility.yul\":2238:2360   */\n      pop\n      jump\t// out\n        /* \"#utility.yul\":2366:2505   */\n    tag_153:\n        /* \"#utility.yul\":2412:2417   */\n      0x00\n        /* \"#utility.yul\":2450:2456   */\n      dup2\n        /* \"#utility.yul\":2437:2457   */\n      calldataload\n        /* \"#utility.yul\":2428:2457   */\n      swap1\n      pop\n        /* \"#utility.yul\":2466:2499   */\n      tag_224\n        /* \"#utility.yul\":2493:2498   */\n      dup2\n        /* \"#utility.yul\":2466:2499   */\n      tag_152\n      jump\t// in\n    tag_224:\n        /* \"#utility.yul\":2366:2505   */\n      swap3\n      swap2\n      pop\n      pop\n      jump\t// out\n        /* \"#utility.yul\":2511:2840   */\n    tag_26:\n        /* \"#utility.yul\":2570:2576   */\n      0x00\n        /* \"#utility.yul\":2619:2621   */\n      0x20\n        /* \"#utility.yul\":2607:2616   */\n      dup3\n        /* \"#utility.yul\":2598:2605   */\n      dup5\n        /* \"#utility.yul\":2594:2617   */\n      sub\n        /* \"#utility.yul\":2590:2622   */\n      slt\n        /* \"#utility.yul\":2587:2706   */\n      iszero\n      tag_226\n      jumpi\n        /* \"#utility.yul\":2625:2704   */\n      tag_227\n      tag_149\n      jump\t// in\n    tag_227:\n        /* \"#utility.yul\":2587:2706   */\n    tag_226:\n        /* \"#utility.yul\":2745:2746   */\n      0x00\n        /* \"#utility.yul\":2770:2823   */\n      tag_228\n        /* \"#utility.yul\":2815:2822   */\n      dup5\n        /* \"#utility.yul\":2806:2812   */\n      dup3\n        /* \"#utility.yul\":2795:2804   */\n      dup6\n        /* \"#utility.yul\":2791:2813   */\n      add\n        /* \"#utility.yul\":2770:2823   */\n      tag_153\n      jump\t// in\n    tag_228:\n        /* \"#utility.yul\":2760:2823   */\n      swap2\n      pop\n        /* \"#utility.yul\":2716:2833   */\n      pop\n        /* \"#utility.yul\":2511:2840   */\n      swap3\n      swap2\n      pop\n      pop\n      jump\t// out\n        /* \"#utility.yul\":2846:2964   */\n    tag_154:\n        /* \"#utility.yul\":2933:2957   */\n      tag_230\n        /* \"#utility.yul\":2951:2956   */\n      dup2\n        /* \"#utility.yul\":2933:2957   */\n      tag_151\n      jump\t// in\n    tag_230:\n        /* \"#utility.yul\":2928:2931   */\n      dup3\n        /* \"#utility.yul\":2921:2958   */\n      mstore\n        /* \"#utility.yul\":2846:2964   */\n      pop\n      pop\n      jump\t// out\n        /* \"#utility.yul\":2970:3393   */\n    tag_29:\n        /* \"#utility.yul\":3111:3115   */\n      0x00\n        /* \"#utility.yul\":3149:3151   */\n      0x40\n        /* \"#utility.yul\":3138:3147   */\n      dup3\n        /* \"#utility.yul\":3134:3152   */\n      add\n        /* \"#utility.yul\":3126:3152   */\n      swap1\n      pop\n        /* \"#utility.yul\":3198:3207   */\n      dup2\n        /* \"#utility.yul\":3192:3196   */\n      dup2\n        /* \"#utility.yul\":3188:3208   */\n      sub\n        /* \"#utility.yul\":3184:3185   */\n      0x00\n        /* \"#utility.yul\":3173:3182   */\n      dup4\n        /* \"#utility.yul\":3169:3186   */\n      add\n        /* \"#utility.yul\":3162:3209   */\n      mstore\n        /* \"#utility.yul\":3226:3304   */\n      tag_232\n        /* \"#utility.yul\":3299:3303   */\n      dup2\n        /* \"#utility.yul\":3290:3296   */\n      dup6\n        /* \"#utility.yul\":3226:3304   */\n      tag_144\n      jump\t// in\n    tag_232:\n        /* \"#utility.yul\":3218:3304   */\n      swap1\n      pop\n        /* \"#utility.yul\":3314:3386   */\n      tag_233\n        /* \"#utility.yul\":3382:3384   */\n      0x20\n        /* \"#utility.yul\":3371:3380   */\n      dup4\n        /* \"#utility.yul\":3367:3385   */\n      add\n        /* \"#utility.yul\":3358:3364   */\n      dup5\n        /* \"#utility.yul\":3314:3386   */\n      tag_154\n      jump\t// in\n    tag_233:\n        /* \"#utility.yul\":2970:3393   */\n      swap4\n      swap3\n      pop\n      pop\n      pop\n      jump\t// out\n        /* \"#utility.yul\":3399:3521   */\n    tag_155:\n        /* \"#utility.yul\":3472:3496   */\n      tag_235\n        /* \"#utility.yul\":3490:3495   */\n      dup2\n        /* \"#utility.yul\":3472:3496   */\n      tag_146\n      jump\t// in\n    tag_235:\n        /* \"#utility.yul\":3465:3470   */\n      dup2\n        /* \"#utility.yul\":3462:3497   */\n      eq\n        /* \"#utility.yul\":3452:3515   */\n      tag_236\n      jumpi\n        /* \"#utility.yul\":3511:3512   */\n      0x00\n        /* \"#utility.yul\":3508:3509   */\n      dup1\n        /* \"#utility.yul\":3501:3513   */\n      revert\n        /* \"#utility.yul\":3452:3515   */\n    tag_236:\n        /* \"#utility.yul\":3399:3521   */\n      pop\n      jump\t// out\n        /* \"#utility.yul\":3527:3666   */\n    tag_156:\n        /* \"#utility.yul\":3573:3578   */\n      0x00\n        /* \"#utility.yul\":3611:3617   */\n      dup2\n        /* \"#utility.yul\":3598:3618   */\n      calldataload\n        /* \"#utility.yul\":3589:3618   */\n      swap1\n      pop\n        /* \"#utility.yul\":3627:3660   */\n      tag_238\n        /* \"#utility.yul\":3654:3659   */\n      dup2\n        /* \"#utility.yul\":3627:3660   */\n      tag_155\n      jump\t// in\n    tag_238:\n        /* \"#utility.yul\":3527:3666   */\n      swap3\n      swap2\n      pop\n      pop\n      jump\t// out\n        /* \"#utility.yul\":3672:4001   */\n    tag_35:\n        /* \"#utility.yul\":3731:3737   */\n      0x00\n        /* \"#utility.yul\":3780:3782   */\n      0x20\n        /* \"#utility.yul\":3768:3777   */\n      dup3\n        /* \"#utility.yul\":3759:3766   */\n      dup5\n        /* \"#utility.yul\":3755:3778   */\n      sub\n        /* \"#utility.yul\":3751:3783   */\n      slt\n        /* \"#utility.yul\":3748:3867   */\n      iszero\n      tag_240\n      jumpi\n        /* \"#utility.yul\":3786:3865   */\n      tag_241\n      tag_149\n      jump\t// in\n    tag_241:\n        /* \"#utility.yul\":3748:3867   */\n    tag_240:\n        /* \"#utility.yul\":3906:3907   */\n      0x00\n        /* \"#utility.yul\":3931:3984   */\n      tag_242\n        /* \"#utility.yul\":3976:3983   */\n      dup5\n        /* \"#utility.yul\":3967:3973   */\n      dup3\n        /* \"#utility.yul\":3956:3965   */\n      dup6\n        /* \"#utility.yul\":3952:3974   */\n      add\n        /* \"#utility.yul\":3931:3984   */\n      tag_156\n      jump\t// in\n    tag_242:\n        /* \"#utility.yul\":3921:3984   */\n      swap2\n      pop\n        /* \"#utility.yul\":3877:3994   */\n      pop\n        /* \"#utility.yul\":3672:4001   */\n      swap3\n      swap2\n      pop\n      pop\n      jump\t// out\n        /* \"#utility.yul\":4007:4229   */\n    tag_38:\n        /* \"#utility.yul\":4100:4104   */\n      0x00\n        /* \"#utility.yul\":4138:4140   */\n      0x20\n        /* \"#utility.yul\":4127:4136   */\n      dup3\n        /* \"#utility.yul\":4123:4141   */\n      add\n        /* \"#utility.yul\":4115:4141   */\n      swap1\n      pop\n        /* \"#utility.yul\":4151:4222   */\n      tag_244\n        /* \"#utility.yul\":4219:4220   */\n      0x00\n        /* \"#utility.yul\":4208:4217   */\n      dup4\n        /* \"#utility.yul\":4204:4221   */\n      add\n        /* \"#utility.yul\":4195:4201   */\n      dup5\n        /* \"#utility.yul\":4151:4222   */\n      tag_154\n      jump\t// in\n    tag_244:\n        /* \"#utility.yul\":4007:4229   */\n      swap3\n      swap2\n      pop\n      pop\n      jump\t// out\n        /* \"#utility.yul\":4235:4709   */\n    tag_41:\n        /* \"#utility.yul\":4303:4309   */\n      0x00\n        /* \"#utility.yul\":4311:4317   */\n      dup1\n        /* \"#utility.yul\":4360:4362   */\n      0x40\n        /* \"#utility.yul\":4348:4357   */\n      dup4\n        /* \"#utility.yul\":4339:4346   */\n      dup6\n        /* \"#utility.yul\":4335:4358   */\n      sub\n        /* \"#utility.yul\":4331:4363   */\n      slt\n        /* \"#utility.yul\":4328:4447   */\n      iszero\n      tag_246\n      jumpi\n        /* \"#utility.yul\":4366:4445   */\n      tag_247\n      tag_149\n      jump\t// in\n    tag_247:\n        /* \"#utility.yul\":4328:4447   */\n    tag_246:\n        /* \"#utility.yul\":4486:4487   */\n      0x00\n        /* \"#utility.yul\":4511:4564   */\n      tag_248\n        /* \"#utility.yul\":4556:4563   */\n      dup6\n        /* \"#utility.yul\":4547:4553   */\n      dup3\n        /* \"#utility.yul\":4536:4545   */\n      dup7\n        /* \"#utility.yul\":4532:4554   */\n      add\n        /* \"#utility.yul\":4511:4564   */\n      tag_153\n      jump\t// in\n    tag_248:\n        /* \"#utility.yul\":4501:4564   */\n      swap3\n      pop\n        /* \"#utility.yul\":4457:4574   */\n      pop\n        /* \"#utility.yul\":4613:4615   */\n      0x20\n        /* \"#utility.yul\":4639:4692   */\n      tag_249\n        /* \"#utility.yul\":4684:4691   */\n      dup6\n        /* \"#utility.yul\":4675:4681   */\n      dup3\n        /* \"#utility.yul\":4664:4673   */\n      dup7\n        /* \"#utility.yul\":4660:4682   */\n      add\n        /* \"#utility.yul\":4639:4692   */\n      tag_156\n      jump\t// in\n    tag_249:\n        /* \"#utility.yul\":4629:4692   */\n      swap2\n      pop\n        /* \"#utility.yul\":4584:4702   */\n      pop\n        /* \"#utility.yul\":4235:4709   */\n      swap3\n      pop\n      swap3\n      swap1\n      pop\n      jump\t// out\n        /* \"#utility.yul\":4715:5189   */\n    tag_51:\n        /* \"#utility.yul\":4783:4789   */\n      0x00\n        /* \"#utility.yul\":4791:4797   */\n      dup1\n        /* \"#utility.yul\":4840:4842   */\n      0x40\n        /* \"#utility.yul\":4828:4837   */\n      dup4\n        /* \"#utility.yul\":4819:4826   */\n      dup6\n        /* \"#utility.yul\":4815:4838   */\n      sub\n        /* \"#utility.yul\":4811:4843   */\n      slt\n        /* \"#utility.yul\":4808:4927   */\n      iszero\n      tag_251\n      jumpi\n        /* \"#utility.yul\":4846:4925   */\n      tag_252\n      tag_149\n      jump\t// in\n    tag_252:\n        /* \"#utility.yul\":4808:4927   */\n    tag_251:\n        /* \"#utility.yul\":4966:4967   */\n      0x00\n        /* \"#utility.yul\":4991:5044   */\n      tag_253\n        /* \"#utility.yul\":5036:5043   */\n      dup6\n        /* \"#utility.yul\":5027:5033   */\n      dup3\n        /* \"#utility.yul\":5016:5025   */\n      dup7\n        /* \"#utility.yul\":5012:5034   */\n      add\n        /* \"#utility.yul\":4991:5044   */\n      tag_156\n      jump\t// in\n    tag_253:\n        /* \"#utility.yul\":4981:5044   */\n      swap3\n      pop\n        /* \"#utility.yul\":4937:5054   */\n      pop\n        /* \"#utility.yul\":5093:5095   */\n      0x20\n        /* \"#utility.yul\":5119:5172   */\n      tag_254\n        /* \"#utility.yul\":5164:5171   */\n      dup6\n        /* \"#utility.yul\":5155:5161   */\n      dup3\n        /* \"#utility.yul\":5144:5153   */\n      dup7\n        /* \"#utility.yul\":5140:5162   */\n      add\n        /* \"#utility.yul\":5119:5172   */\n      tag_153\n      jump\t// in\n    tag_254:\n        /* \"#utility.yul\":5109:5172   */\n      swap2\n      pop\n        /* \"#utility.yul\":5064:5182   */\n      pop\n        /* \"#utility.yul\":4715:5189   */\n      swap3\n      pop\n      swap3\n      swap1\n      pop\n      jump\t// out\n        /* \"#utility.yul\":5195:5319   */\n    tag_157:\n        /* \"#utility.yul\":5272:5278   */\n      0x00\n        /* \"#utility.yul\":5306:5311   */\n      dup2\n        /* \"#utility.yul\":5300:5312   */\n      mload\n        /* \"#utility.yul\":5290:5312   */\n      swap1\n      pop\n        /* \"#utility.yul\":5195:5319   */\n      swap2\n      swap1\n      pop\n      jump\t// out\n        /* \"#utility.yul\":5325:5519   */\n    tag_158:\n        /* \"#utility.yul\":5434:5445   */\n      0x00\n        /* \"#utility.yul\":5468:5474   */\n      dup3\n        /* \"#utility.yul\":5463:5466   */\n      dup3\n        /* \"#utility.yul\":5456:5475   */\n      mstore\n        /* \"#utility.yul\":5508:5512   */\n      0x20\n        /* \"#utility.yul\":5503:5506   */\n      dup3\n        /* \"#utility.yul\":5499:5513   */\n      add\n        /* \"#utility.yul\":5484:5513   */\n      swap1\n      pop\n        /* \"#utility.yul\":5325:5519   */\n      swap3\n      swap2\n      pop\n      pop\n      jump\t// out\n        /* \"#utility.yul\":5525:5667   */\n    tag_159:\n        /* \"#utility.yul\":5602:5606   */\n      0x00\n        /* \"#utility.yul\":5625:5628   */\n      dup2\n        /* \"#utility.yul\":5617:5628   */\n      swap1\n      pop\n        /* \"#utility.yul\":5655:5659   */\n      0x20\n        /* \"#utility.yul\":5650:5653   */\n      dup3\n        /* \"#utility.yul\":5646:5660   */\n      add\n        /* \"#utility.yul\":5638:5660   */\n      swap1\n      pop\n        /* \"#utility.yul\":5525:5667   */\n      swap2\n      swap1\n      pop\n      jump\t// out\n        /* \"#utility.yul\":5673:5832   */\n    tag_160:\n        /* \"#utility.yul\":5747:5758   */\n      0x00\n        /* \"#utility.yul\":5781:5787   */\n      dup3\n        /* \"#utility.yul\":5776:5779   */\n      dup3\n        /* \"#utility.yul\":5769:5788   */\n      mstore\n        /* \"#utility.yul\":5821:5825   */\n      0x20\n        /* \"#utility.yul\":5816:5819   */\n      dup3\n        /* \"#utility.yul\":5812:5826   */\n      add\n        /* \"#utility.yul\":5797:5826   */\n      swap1\n      pop\n        /* \"#utility.yul\":5673:5832   */\n      swap3\n      swap2\n      pop\n      pop\n      jump\t// out\n        /* \"#utility.yul\":5838:6195   */\n    tag_161:\n        /* \"#utility.yul\":5916:5919   */\n      0x00\n        /* \"#utility.yul\":5944:5983   */\n      tag_260\n        /* \"#utility.yul\":5977:5982   */\n      dup3\n        /* \"#utility.yul\":5944:5983   */\n      tag_140\n      jump\t// in\n    tag_260:\n        /* \"#utility.yul\":5999:6060   */\n      tag_261\n        /* \"#utility.yul\":6053:6059   */\n      dup2\n        /* \"#utility.yul\":6048:6051   */\n      dup6\n        /* \"#utility.yul\":5999:6060   */\n      tag_160\n      jump\t// in\n    tag_261:\n        /* \"#utility.yul\":5992:6060   */\n      swap4\n      pop\n        /* \"#utility.yul\":6069:6134   */\n      tag_262\n        /* \"#utility.yul\":6127:6133   */\n      dup2\n        /* \"#utility.yul\":6122:6125   */\n      dup6\n        /* \"#utility.yul\":6115:6119   */\n      0x20\n        /* \"#utility.yul\":6108:6113   */\n      dup7\n        /* \"#utility.yul\":6104:6120   */\n      add\n        /* \"#utility.yul\":6069:6134   */\n      tag_142\n      jump\t// in\n    tag_262:\n        /* \"#utility.yul\":6159:6188   */\n      tag_263\n        /* \"#utility.yul\":6181:6187   */\n      dup2\n        /* \"#utility.yul\":6159:6188   */\n      tag_143\n      jump\t// in\n    tag_263:\n        /* \"#utility.yul\":6154:6157   */\n      dup5\n        /* \"#utility.yul\":6150:6189   */\n      add\n        /* \"#utility.yul\":6143:6189   */\n      swap2\n      pop\n        /* \"#utility.yul\":5920:6195   */\n      pop\n        /* \"#utility.yul\":5838:6195   */\n      swap3\n      swap2\n      pop\n      pop\n      jump\t// out\n        /* \"#utility.yul\":6201:6397   */\n    tag_162:\n        /* \"#utility.yul\":6290:6300   */\n      0x00\n        /* \"#utility.yul\":6325:6391   */\n      tag_265\n        /* \"#utility.yul\":6387:6390   */\n      dup4\n        /* \"#utility.yul\":6379:6385   */\n      dup4\n        /* \"#utility.yul\":6325:6391   */\n      tag_161\n      jump\t// in\n    tag_265:\n        /* \"#utility.yul\":6311:6391   */\n      swap1\n      pop\n        /* \"#utility.yul\":6201:6397   */\n      swap3\n      swap2\n      pop\n      pop\n      jump\t// out\n        /* \"#utility.yul\":6403:6526   */\n    tag_163:\n        /* \"#utility.yul\":6483:6487   */\n      0x00\n        /* \"#utility.yul\":6515:6519   */\n      0x20\n        /* \"#utility.yul\":6510:6513   */\n      dup3\n        /* \"#utility.yul\":6506:6520   */\n      add\n        /* \"#utility.yul\":6498:6520   */\n      swap1\n      pop\n        /* \"#utility.yul\":6403:6526   */\n      swap2\n      swap1\n      pop\n      jump\t// out\n        /* \"#utility.yul\":6560:7551   */\n    tag_164:\n        /* \"#utility.yul\":6699:6702   */\n      0x00\n        /* \"#utility.yul\":6728:6792   */\n      tag_268\n        /* \"#utility.yul\":6786:6791   */\n      dup3\n        /* \"#utility.yul\":6728:6792   */\n      tag_157\n      jump\t// in\n    tag_268:\n        /* \"#utility.yul\":6808:6904   */\n      tag_269\n        /* \"#utility.yul\":6897:6903   */\n      dup2\n        /* \"#utility.yul\":6892:6895   */\n      dup6\n        /* \"#utility.yul\":6808:6904   */\n      tag_158\n      jump\t// in\n    tag_269:\n        /* \"#utility.yul\":6801:6904   */\n      swap4\n      pop\n        /* \"#utility.yul\":6930:6933   */\n      dup4\n        /* \"#utility.yul\":6975:6979   */\n      0x20\n        /* \"#utility.yul\":6967:6973   */\n      dup3\n        /* \"#utility.yul\":6963:6980   */\n      mul\n        /* \"#utility.yul\":6958:6961   */\n      dup6\n        /* \"#utility.yul\":6954:6981   */\n      add\n        /* \"#utility.yul\":7005:7071   */\n      tag_270\n        /* \"#utility.yul\":7065:7070   */\n      dup6\n        /* \"#utility.yul\":7005:7071   */\n      tag_159\n      jump\t// in\n    tag_270:\n        /* \"#utility.yul\":7094:7101   */\n      dup1\n        /* \"#utility.yul\":7125:7126   */\n      0x00\n        /* \"#utility.yul\":7110:7506   */\n    tag_271:\n        /* \"#utility.yul\":7135:7141   */\n      dup6\n        /* \"#utility.yul\":7132:7133   */\n      dup2\n        /* \"#utility.yul\":7129:7142   */\n      lt\n        /* \"#utility.yul\":7110:7506   */\n      iszero\n      tag_273\n      jumpi\n        /* \"#utility.yul\":7206:7215   */\n      dup5\n        /* \"#utility.yul\":7200:7204   */\n      dup5\n        /* \"#utility.yul\":7196:7216   */\n      sub\n        /* \"#utility.yul\":7191:7194   */\n      dup10\n        /* \"#utility.yul\":7184:7217   */\n      mstore\n        /* \"#utility.yul\":7257:7263   */\n      dup2\n        /* \"#utility.yul\":7251:7264   */\n      mload\n        /* \"#utility.yul\":7285:7369   */\n      tag_274\n        /* \"#utility.yul\":7364:7368   */\n      dup6\n        /* \"#utility.yul\":7349:7362   */\n      dup3\n        /* \"#utility.yul\":7285:7369   */\n      tag_162\n      jump\t// in\n    tag_274:\n        /* \"#utility.yul\":7277:7369   */\n      swap5\n      pop\n        /* \"#utility.yul\":7392:7462   */\n      tag_275\n        /* \"#utility.yul\":7455:7461   */\n      dup4\n        /* \"#utility.yul\":7392:7462   */\n      tag_163\n      jump\t// in\n    tag_275:\n        /* \"#utility.yul\":7382:7462   */\n      swap3\n      pop\n        /* \"#utility.yul\":7491:7495   */\n      0x20\n        /* \"#utility.yul\":7486:7489   */\n      dup11\n        /* \"#utility.yul\":7482:7496   */\n      add\n        /* \"#utility.yul\":7475:7496   */\n      swap10\n      pop\n        /* \"#utility.yul\":7170:7506   */\n      pop\n        /* \"#utility.yul\":7157:7158   */\n      0x01\n        /* \"#utility.yul\":7154:7155   */\n      dup2\n        /* \"#utility.yul\":7150:7159   */\n      add\n        /* \"#utility.yul\":7145:7159   */\n      swap1\n      pop\n        /* \"#utility.yul\":7110:7506   */\n      jump(tag_271)\n    tag_273:\n        /* \"#utility.yul\":7114:7128   */\n      pop\n        /* \"#utility.yul\":7522:7526   */\n      dup3\n        /* \"#utility.yul\":7515:7526   */\n      swap8\n      pop\n        /* \"#utility.yul\":7542:7545   */\n      dup8\n        /* \"#utility.yul\":7535:7545   */\n      swap6\n      pop\n        /* \"#utility.yul\":6704:7551   */\n      pop\n      pop\n      pop\n      pop\n      pop\n        /* \"#utility.yul\":6560:7551   */\n      swap3\n      swap2\n      pop\n      pop\n      jump\t// out\n        /* \"#utility.yul\":7557:7970   */\n    tag_65:\n        /* \"#utility.yul\":7720:7724   */\n      0x00\n        /* \"#utility.yul\":7758:7760   */\n      0x20\n        /* \"#utility.yul\":7747:7756   */\n      dup3\n        /* \"#utility.yul\":7743:7761   */\n      add\n        /* \"#utility.yul\":7735:7761   */\n      swap1\n      pop\n        /* \"#utility.yul\":7807:7816   */\n      dup2\n        /* \"#utility.yul\":7801:7805   */\n      dup2\n        /* \"#utility.yul\":7797:7817   */\n      sub\n        /* \"#utility.yul\":7793:7794   */\n      0x00\n        /* \"#utility.yul\":7782:7791   */\n      dup4\n        /* \"#utility.yul\":7778:7795   */\n      add\n        /* \"#utility.yul\":7771:7818   */\n      mstore\n        /* \"#utility.yul\":7835:7963   */\n      tag_277\n        /* \"#utility.yul\":7958:7962   */\n      dup2\n        /* \"#utility.yul\":7949:7955   */\n      dup5\n        /* \"#utility.yul\":7835:7963   */\n      tag_164\n      jump\t// in\n    tag_277:\n        /* \"#utility.yul\":7827:7963   */\n      swap1\n      pop\n        /* \"#utility.yul\":7557:7970   */\n      swap3\n      swap2\n      pop\n      pop\n      jump\t// out\n        /* \"#utility.yul\":7976:8156   */\n    tag_165:\n        /* \"#utility.yul\":8024:8101   */\n      0x4e487b7100000000000000000000000000000000000000000000000000000000\n        /* \"#utility.yul\":8021:8022   */\n      0x00\n        /* \"#utility.yul\":8014:8102   */\n      mstore\n        /* \"#utility.yul\":8121:8125   */\n      0x22\n        /* \"#utility.yul\":8118:8119   */\n      0x04\n        /* \"#utility.yul\":8111:8126   */\n      mstore\n        /* \"#utility.yul\":8145:8149   */\n      0x24\n        /* \"#utility.yul\":8142:8143   */\n      0x00\n        /* \"#utility.yul\":8135:8150   */\n      revert\n        /* \"#utility.yul\":8162:8482   */\n    tag_67:\n        /* \"#utility.yul\":8206:8212   */\n      0x00\n        /* \"#utility.yul\":8243:8244   */\n      0x02\n        /* \"#utility.yul\":8237:8241   */\n      dup3\n        /* \"#utility.yul\":8233:8245   */\n      div\n        /* \"#utility.yul\":8223:8245   */\n      swap1\n      pop\n        /* \"#utility.yul\":8290:8291   */\n      0x01\n        /* \"#utility.yul\":8284:8288   */\n      dup3\n        /* \"#utility.yul\":8280:8292   */\n      and\n        /* \"#utility.yul\":8311:8329   */\n      dup1\n        /* \"#utility.yul\":8301:8382   */\n      tag_280\n      jumpi\n        /* \"#utility.yul\":8367:8371   */\n      0x7f\n        /* \"#utility.yul\":8359:8365   */\n      dup3\n        /* \"#utility.yul\":8355:8372   */\n      and\n        /* \"#utility.yul\":8345:8372   */\n      swap2\n      pop\n        /* \"#utility.yul\":8301:8382   */\n    tag_280:\n        /* \"#utility.yul\":8429:8431   */\n      0x20\n        /* \"#utility.yul\":8421:8427   */\n      dup3\n        /* \"#utility.yul\":8418:8432   */\n      lt\n        /* \"#utility.yul\":8398:8416   */\n      dup2\n        /* \"#utility.yul\":8395:8433   */\n      sub\n        /* \"#utility.yul\":8392:8476   */\n      tag_281\n      jumpi\n        /* \"#utility.yul\":8448:8466   */\n      tag_282\n      tag_165\n      jump\t// in\n    tag_282:\n        /* \"#utility.yul\":8392:8476   */\n    tag_281:\n        /* \"#utility.yul\":8213:8482   */\n      pop\n        /* \"#utility.yul\":8162:8482   */\n      swap2\n      swap1\n      pop\n      jump\t// out\n        /* \"#utility.yul\":8488:8670   */\n    tag_166:\n        /* \"#utility.yul\":8628:8662   */\n      0x416d6f756e742073686f756c64206e6f74206578636565642062616c616e6365\n        /* \"#utility.yul\":8624:8625   */\n      0x00\n        /* \"#utility.yul\":8616:8622   */\n      dup3\n        /* \"#utility.yul\":8612:8626   */\n      add\n        /* \"#utility.yul\":8605:8663   */\n      mstore\n        /* \"#utility.yul\":8488:8670   */\n      pop\n      jump\t// out\n        /* \"#utility.yul\":8676:9042   */\n    tag_167:\n        /* \"#utility.yul\":8818:8821   */\n      0x00\n        /* \"#utility.yul\":8839:8906   */\n      tag_285\n        /* \"#utility.yul\":8903:8905   */\n      0x20\n        /* \"#utility.yul\":8898:8901   */\n      dup4\n        /* \"#utility.yul\":8839:8906   */\n      tag_141\n      jump\t// in\n    tag_285:\n        /* \"#utility.yul\":8832:8906   */\n      swap2\n      pop\n        /* \"#utility.yul\":8915:9008   */\n      tag_286\n        /* \"#utility.yul\":9004:9007   */\n      dup3\n        /* \"#utility.yul\":8915:9008   */\n      tag_166\n      jump\t// in\n    tag_286:\n        /* \"#utility.yul\":9033:9035   */\n      0x20\n        /* \"#utility.yul\":9028:9031   */\n      dup3\n        /* \"#utility.yul\":9024:9036   */\n      add\n        /* \"#utility.yul\":9017:9036   */\n      swap1\n      pop\n        /* \"#utility.yul\":8676:9042   */\n      swap2\n      swap1\n      pop\n      jump\t// out\n        /* \"#utility.yul\":9048:9467   */\n    tag_80:\n        /* \"#utility.yul\":9214:9218   */\n      0x00\n        /* \"#utility.yul\":9252:9254   */\n      0x20\n        /* \"#utility.yul\":9241:9250   */\n      dup3\n        /* \"#utility.yul\":9237:9255   */\n      add\n        /* \"#utility.yul\":9229:9255   */\n      swap1\n      pop\n        /* \"#utility.yul\":9301:9310   */\n      dup2\n        /* \"#utility.yul\":9295:9299   */\n      dup2\n        /* \"#utility.yul\":9291:9311   */\n      sub\n        /* \"#utility.yul\":9287:9288   */\n      0x00\n        /* \"#utility.yul\":9276:9285   */\n      dup4\n        /* \"#utility.yul\":9272:9289   */\n      add\n        /* \"#utility.yul\":9265:9312   */\n      mstore\n        /* \"#utility.yul\":9329:9460   */\n      tag_288\n        /* \"#utility.yul\":9455:9459   */\n      dup2\n        /* \"#utility.yul\":9329:9460   */\n      tag_167\n      jump\t// in\n    tag_288:\n        /* \"#utility.yul\":9321:9460   */\n      swap1\n      pop\n        /* \"#utility.yul\":9048:9467   */\n      swap2\n      swap1\n      pop\n      jump\t// out\n        /* \"#utility.yul\":9473:9653   */\n    tag_168:\n        /* \"#utility.yul\":9521:9598   */\n      0x4e487b7100000000000000000000000000000000000000000000000000000000\n        /* \"#utility.yul\":9518:9519   */\n      0x00\n        /* \"#utility.yul\":9511:9599   */\n      mstore\n        /* \"#utility.yul\":9618:9622   */\n      0x11\n        /* \"#utility.yul\":9615:9616   */\n      0x04\n        /* \"#utility.yul\":9608:9623   */\n      mstore\n        /* \"#utility.yul\":9642:9646   */\n      0x24\n        /* \"#utility.yul\":9639:9640   */\n      0x00\n        /* \"#utility.yul\":9632:9647   */\n      revert\n        /* \"#utility.yul\":9659:9853   */\n    tag_82:\n        /* \"#utility.yul\":9699:9703   */\n      0x00\n        /* \"#utility.yul\":9719:9739   */\n      tag_291\n        /* \"#utility.yul\":9737:9738   */\n      dup3\n        /* \"#utility.yul\":9719:9739   */\n      tag_151\n      jump\t// in\n    tag_291:\n        /* \"#utility.yul\":9714:9739   */\n      swap2\n      pop\n        /* \"#utility.yul\":9753:9773   */\n      tag_292\n        /* \"#utility.yul\":9771:9772   */\n      dup4\n        /* \"#utility.yul\":9753:9773   */\n      tag_151\n      jump\t// in\n    tag_292:\n        /* \"#utility.yul\":9748:9773   */\n      swap3\n      pop\n        /* \"#utility.yul\":9797:9798   */\n      dup3\n        /* \"#utility.yul\":9794:9795   */\n      dup3\n        /* \"#utility.yul\":9790:9799   */\n      sub\n        /* \"#utility.yul\":9782:9799   */\n      swap1\n      pop\n        /* \"#utility.yul\":9821:9822   */\n      dup2\n        /* \"#utility.yul\":9815:9819   */\n      dup2\n        /* \"#utility.yul\":9812:9823   */\n      gt\n        /* \"#utility.yul\":9809:9846   */\n      iszero\n      tag_293\n      jumpi\n        /* \"#utility.yul\":9826:9844   */\n      tag_294\n      tag_168\n      jump\t// in\n    tag_294:\n        /* \"#utility.yul\":9809:9846   */\n    tag_293:\n        /* \"#utility.yul\":9659:9853   */\n      swap3\n      swap2\n      pop\n      pop\n      jump\t// out\n        /* \"#utility.yul\":9859:10089   */\n    tag_169:\n        /* \"#utility.yul\":9999:10033   */\n      0x436f6d6d616e642063656e746572206861732072696768747320746f206d696e\n        /* \"#utility.yul\":9995:9996   */\n      0x00\n        /* \"#utility.yul\":9987:9993   */\n      dup3\n        /* \"#utility.yul\":9983:9997   */\n      add\n        /* \"#utility.yul\":9976:10034   */\n      mstore\n        /* \"#utility.yul\":10068:10081   */\n      0x74206e657720746f6b656e000000000000000000000000000000000000000000\n        /* \"#utility.yul\":10063:10065   */\n      0x20\n        /* \"#utility.yul\":10055:10061   */\n      dup3\n        /* \"#utility.yul\":10051:10066   */\n      add\n        /* \"#utility.yul\":10044:10082   */\n      mstore\n        /* \"#utility.yul\":9859:10089   */\n      pop\n      jump\t// out\n        /* \"#utility.yul\":10095:10461   */\n    tag_170:\n        /* \"#utility.yul\":10237:10240   */\n      0x00\n        /* \"#utility.yul\":10258:10325   */\n      tag_297\n        /* \"#utility.yul\":10322:10324   */\n      0x2b\n        /* \"#utility.yul\":10317:10320   */\n      dup4\n        /* \"#utility.yul\":10258:10325   */\n      tag_141\n      jump\t// in\n    tag_297:\n        /* \"#utility.yul\":10251:10325   */\n      swap2\n      pop\n        /* \"#utility.yul\":10334:10427   */\n      tag_298\n        /* \"#utility.yul\":10423:10426   */\n      dup3\n        /* \"#utility.yul\":10334:10427   */\n      tag_169\n      jump\t// in\n    tag_298:\n        /* \"#utility.yul\":10452:10454   */\n      0x40\n        /* \"#utility.yul\":10447:10450   */\n      dup3\n        /* \"#utility.yul\":10443:10455   */\n      add\n        /* \"#utility.yul\":10436:10455   */\n      swap1\n      pop\n        /* \"#utility.yul\":10095:10461   */\n      swap2\n      swap1\n      pop\n      jump\t// out\n        /* \"#utility.yul\":10467:10886   */\n    tag_87:\n        /* \"#utility.yul\":10633:10637   */\n      0x00\n        /* \"#utility.yul\":10671:10673   */\n      0x20\n        /* \"#utility.yul\":10660:10669   */\n      dup3\n        /* \"#utility.yul\":10656:10674   */\n      add\n        /* \"#utility.yul\":10648:10674   */\n      swap1\n      pop\n        /* \"#utility.yul\":10720:10729   */\n      dup2\n        /* \"#utility.yul\":10714:10718   */\n      dup2\n        /* \"#utility.yul\":10710:10730   */\n      sub\n        /* \"#utility.yul\":10706:10707   */\n      0x00\n        /* \"#utility.yul\":10695:10704   */\n      dup4\n        /* \"#utility.yul\":10691:10708   */\n      add\n        /* \"#utility.yul\":10684:10731   */\n      mstore\n        /* \"#utility.yul\":10748:10879   */\n      tag_300\n        /* \"#utility.yul\":10874:10878   */\n      dup2\n        /* \"#utility.yul\":10748:10879   */\n      tag_170\n      jump\t// in\n    tag_300:\n        /* \"#utility.yul\":10740:10879   */\n      swap1\n      pop\n        /* \"#utility.yul\":10467:10886   */\n      swap2\n      swap1\n      pop\n      jump\t// out\n        /* \"#utility.yul\":10892:11118   */\n    tag_171:\n        /* \"#utility.yul\":11032:11066   */\n      0x4d696e74696e6720616d6f756e742073686f756c642062652067726561746572\n        /* \"#utility.yul\":11028:11029   */\n      0x00\n        /* \"#utility.yul\":11020:11026   */\n      dup3\n        /* \"#utility.yul\":11016:11030   */\n      add\n        /* \"#utility.yul\":11009:11067   */\n      mstore\n        /* \"#utility.yul\":11101:11110   */\n      0x207468616e203000000000000000000000000000000000000000000000000000\n        /* \"#utility.yul\":11096:11098   */\n      0x20\n        /* \"#utility.yul\":11088:11094   */\n      dup3\n        /* \"#utility.yul\":11084:11099   */\n      add\n        /* \"#utility.yul\":11077:11111   */\n      mstore\n        /* \"#utility.yul\":10892:11118   */\n      pop\n      jump\t// out\n        /* \"#utility.yul\":11124:11490   */\n    tag_172:\n        /* \"#utility.yul\":11266:11269   */\n      0x00\n        /* \"#utility.yul\":11287:11354   */\n      tag_303\n        /* \"#utility.yul\":11351:11353   */\n      0x27\n        /* \"#utility.yul\":11346:11349   */\n      dup4\n        /* \"#utility.yul\":11287:11354   */\n      tag_141\n      jump\t// in\n    tag_303:\n        /* \"#utility.yul\":11280:11354   */\n      swap2\n      pop\n        /* \"#utility.yul\":11363:11456   */\n      tag_304\n        /* \"#utility.yul\":11452:11455   */\n      dup3\n        /* \"#utility.yul\":11363:11456   */\n      tag_171\n      jump\t// in\n    tag_304:\n        /* \"#utility.yul\":11481:11483   */\n      0x40\n        /* \"#utility.yul\":11476:11479   */\n      dup3\n        /* \"#utility.yul\":11472:11484   */\n      add\n        /* \"#utility.yul\":11465:11484   */\n      swap1\n      pop\n        /* \"#utility.yul\":11124:11490   */\n      swap2\n      swap1\n      pop\n      jump\t// out\n        /* \"#utility.yul\":11496:11915   */\n    tag_91:\n        /* \"#utility.yul\":11662:11666   */\n      0x00\n        /* \"#utility.yul\":11700:11702   */\n      0x20\n        /* \"#utility.yul\":11689:11698   */\n      dup3\n        /* \"#utility.yul\":11685:11703   */\n      add\n        /* \"#utility.yul\":11677:11703   */\n      swap1\n      pop\n        /* \"#utility.yul\":11749:11758   */\n      dup2\n        /* \"#utility.yul\":11743:11747   */\n      dup2\n        /* \"#utility.yul\":11739:11759   */\n      sub\n        /* \"#utility.yul\":11735:11736   */\n      0x00\n        /* \"#utility.yul\":11724:11733   */\n      dup4\n        /* \"#utility.yul\":11720:11737   */\n      add\n        /* \"#utility.yul\":11713:11760   */\n      mstore\n        /* \"#utility.yul\":11777:11908   */\n      tag_306\n        /* \"#utility.yul\":11903:11907   */\n      dup2\n        /* \"#utility.yul\":11777:11908   */\n      tag_172\n      jump\t// in\n    tag_306:\n        /* \"#utility.yul\":11769:11908   */\n      swap1\n      pop\n        /* \"#utility.yul\":11496:11915   */\n      swap2\n      swap1\n      pop\n      jump\t// out\n        /* \"#utility.yul\":11921:12112   */\n    tag_93:\n        /* \"#utility.yul\":11961:11964   */\n      0x00\n        /* \"#utility.yul\":11980:12000   */\n      tag_308\n        /* \"#utility.yul\":11998:11999   */\n      dup3\n        /* \"#utility.yul\":11980:12000   */\n      tag_151\n      jump\t// in\n    tag_308:\n        /* \"#utility.yul\":11975:12000   */\n      swap2\n      pop\n        /* \"#utility.yul\":12014:12034   */\n      tag_309\n        /* \"#utility.yul\":12032:12033   */\n      dup4\n        /* \"#utility.yul\":12014:12034   */\n      tag_151\n      jump\t// in\n    tag_309:\n        /* \"#utility.yul\":12009:12034   */\n      swap3\n      pop\n        /* \"#utility.yul\":12057:12058   */\n      dup3\n        /* \"#utility.yul\":12054:12055   */\n      dup3\n        /* \"#utility.yul\":12050:12059   */\n      add\n        /* \"#utility.yul\":12043:12059   */\n      swap1\n      pop\n        /* \"#utility.yul\":12078:12081   */\n      dup1\n        /* \"#utility.yul\":12075:12076   */\n      dup3\n        /* \"#utility.yul\":12072:12082   */\n      gt\n        /* \"#utility.yul\":12069:12105   */\n      iszero\n      tag_310\n      jumpi\n        /* \"#utility.yul\":12085:12103   */\n      tag_311\n      tag_168\n      jump\t// in\n    tag_311:\n        /* \"#utility.yul\":12069:12105   */\n    tag_310:\n        /* \"#utility.yul\":11921:12112   */\n      swap3\n      swap2\n      pop\n      pop\n      jump\t// out\n        /* \"#utility.yul\":12118:12352   */\n    tag_173:\n        /* \"#utility.yul\":12258:12292   */\n      0x416d6f756e742073686f756c64206265206c657373207468616e207468652073\n        /* \"#utility.yul\":12254:12255   */\n      0x00\n        /* \"#utility.yul\":12246:12252   */\n      dup3\n        /* \"#utility.yul\":12242:12256   */\n      add\n        /* \"#utility.yul\":12235:12293   */\n      mstore\n        /* \"#utility.yul\":12327:12344   */\n      0x656e64657227732062616c616e63650000000000000000000000000000000000\n        /* \"#utility.yul\":12322:12324   */\n      0x20\n        /* \"#utility.yul\":12314:12320   */\n      dup3\n        /* \"#utility.yul\":12310:12325   */\n      add\n        /* \"#utility.yul\":12303:12345   */\n      mstore\n        /* \"#utility.yul\":12118:12352   */\n      pop\n      jump\t// out\n        /* \"#utility.yul\":12358:12724   */\n    tag_174:\n        /* \"#utility.yul\":12500:12503   */\n      0x00\n        /* \"#utility.yul\":12521:12588   */\n      tag_314\n        /* \"#utility.yul\":12585:12587   */\n      0x2f\n        /* \"#utility.yul\":12580:12583   */\n      dup4\n        /* \"#utility.yul\":12521:12588   */\n      tag_141\n      jump\t// in\n    tag_314:\n        /* \"#utility.yul\":12514:12588   */\n      swap2\n      pop\n        /* \"#utility.yul\":12597:12690   */\n      tag_315\n        /* \"#utility.yul\":12686:12689   */\n      dup3\n        /* \"#utility.yul\":12597:12690   */\n      tag_173\n      jump\t// in\n    tag_315:\n        /* \"#utility.yul\":12715:12717   */\n      0x40\n        /* \"#utility.yul\":12710:12713   */\n      dup3\n        /* \"#utility.yul\":12706:12718   */\n      add\n        /* \"#utility.yul\":12699:12718   */\n      swap1\n      pop\n        /* \"#utility.yul\":12358:12724   */\n      swap2\n      swap1\n      pop\n      jump\t// out\n        /* \"#utility.yul\":12730:13149   */\n    tag_103:\n        /* \"#utility.yul\":12896:12900   */\n      0x00\n        /* \"#utility.yul\":12934:12936   */\n      0x20\n        /* \"#utility.yul\":12923:12932   */\n      dup3\n        /* \"#utility.yul\":12919:12937   */\n      add\n        /* \"#utility.yul\":12911:12937   */\n      swap1\n      pop\n        /* \"#utility.yul\":12983:12992   */\n      dup2\n        /* \"#utility.yul\":12977:12981   */\n      dup2\n        /* \"#utility.yul\":12973:12993   */\n      sub\n        /* \"#utility.yul\":12969:12970   */\n      0x00\n        /* \"#utility.yul\":12958:12967   */\n      dup4\n        /* \"#utility.yul\":12954:12971   */\n      add\n        /* \"#utility.yul\":12947:12994   */\n      mstore\n        /* \"#utility.yul\":13011:13142   */\n      tag_317\n        /* \"#utility.yul\":13137:13141   */\n      dup2\n        /* \"#utility.yul\":13011:13142   */\n      tag_174\n      jump\t// in\n    tag_317:\n        /* \"#utility.yul\":13003:13142   */\n      swap1\n      pop\n        /* \"#utility.yul\":12730:13149   */\n      swap2\n      swap1\n      pop\n      jump\t// out\n        /* \"#utility.yul\":13155:13325   */\n    tag_175:\n        /* \"#utility.yul\":13295:13317   */\n      0x496e73756666696369656e742042616c616e6365000000000000000000000000\n        /* \"#utility.yul\":13291:13292   */\n      0x00\n        /* \"#utility.yul\":13283:13289   */\n      dup3\n        /* \"#utility.yul\":13279:13293   */\n      add\n        /* \"#utility.yul\":13272:13318   */\n      mstore\n        /* \"#utility.yul\":13155:13325   */\n      pop\n      jump\t// out\n        /* \"#utility.yul\":13331:13697   */\n    tag_176:\n        /* \"#utility.yul\":13473:13476   */\n      0x00\n        /* \"#utility.yul\":13494:13561   */\n      tag_320\n        /* \"#utility.yul\":13558:13560   */\n      0x14\n        /* \"#utility.yul\":13553:13556   */\n      dup4\n        /* \"#utility.yul\":13494:13561   */\n      tag_141\n      jump\t// in\n    tag_320:\n        /* \"#utility.yul\":13487:13561   */\n      swap2\n      pop\n        /* \"#utility.yul\":13570:13663   */\n      tag_321\n        /* \"#utility.yul\":13659:13662   */\n      dup3\n        /* \"#utility.yul\":13570:13663   */\n      tag_175\n      jump\t// in\n    tag_321:\n        /* \"#utility.yul\":13688:13690   */\n      0x20\n        /* \"#utility.yul\":13683:13686   */\n      dup3\n        /* \"#utility.yul\":13679:13691   */\n      add\n        /* \"#utility.yul\":13672:13691   */\n      swap1\n      pop\n        /* \"#utility.yul\":13331:13697   */\n      swap2\n      swap1\n      pop\n      jump\t// out\n        /* \"#utility.yul\":13703:14122   */\n    tag_116:\n        /* \"#utility.yul\":13869:13873   */\n      0x00\n        /* \"#utility.yul\":13907:13909   */\n      0x20\n        /* \"#utility.yul\":13896:13905   */\n      dup3\n        /* \"#utility.yul\":13892:13910   */\n      add\n        /* \"#utility.yul\":13884:13910   */\n      swap1\n      pop\n        /* \"#utility.yul\":13956:13965   */\n      dup2\n        /* \"#utility.yul\":13950:13954   */\n      dup2\n        /* \"#utility.yul\":13946:13966   */\n      sub\n        /* \"#utility.yul\":13942:13943   */\n      0x00\n        /* \"#utility.yul\":13931:13940   */\n      dup4\n        /* \"#utility.yul\":13927:13944   */\n      add\n        /* \"#utility.yul\":13920:13967   */\n      mstore\n        /* \"#utility.yul\":13984:14115   */\n      tag_323\n        /* \"#utility.yul\":14110:14114   */\n      dup2\n        /* \"#utility.yul\":13984:14115   */\n      tag_176\n      jump\t// in\n    tag_323:\n        /* \"#utility.yul\":13976:14115   */\n      swap1\n      pop\n        /* \"#utility.yul\":13703:14122   */\n      swap2\n      swap1\n      pop\n      jump\t// out\n        /* \"#utility.yul\":14128:14295   */\n    tag_177:\n        /* \"#utility.yul\":14268:14287   */\n      0x496e76616c696420726577617264204944000000000000000000000000000000\n        /* \"#utility.yul\":14264:14265   */\n      0x00\n        /* \"#utility.yul\":14256:14262   */\n      dup3\n        /* \"#utility.yul\":14252:14266   */\n      add\n        /* \"#utility.yul\":14245:14288   */\n      mstore\n        /* \"#utility.yul\":14128:14295   */\n      pop\n      jump\t// out\n        /* \"#utility.yul\":14301:14667   */\n    tag_178:\n        /* \"#utility.yul\":14443:14446   */\n      0x00\n        /* \"#utility.yul\":14464:14531   */\n      tag_326\n        /* \"#utility.yul\":14528:14530   */\n      0x11\n        /* \"#utility.yul\":14523:14526   */\n      dup4\n        /* \"#utility.yul\":14464:14531   */\n      tag_141\n      jump\t// in\n    tag_326:\n        /* \"#utility.yul\":14457:14531   */\n      swap2\n      pop\n        /* \"#utility.yul\":14540:14633   */\n      tag_327\n        /* \"#utility.yul\":14629:14632   */\n      dup3\n        /* \"#utility.yul\":14540:14633   */\n      tag_177\n      jump\t// in\n    tag_327:\n        /* \"#utility.yul\":14658:14660   */\n      0x20\n        /* \"#utility.yul\":14653:14656   */\n      dup3\n        /* \"#utility.yul\":14649:14661   */\n      add\n        /* \"#utility.yul\":14642:14661   */\n      swap1\n      pop\n        /* \"#utility.yul\":14301:14667   */\n      swap2\n      swap1\n      pop\n      jump\t// out\n        /* \"#utility.yul\":14673:15092   */\n    tag_121:\n        /* \"#utility.yul\":14839:14843   */\n      0x00\n        /* \"#utility.yul\":14877:14879   */\n      0x20\n        /* \"#utility.yul\":14866:14875   */\n      dup3\n        /* \"#utility.yul\":14862:14880   */\n      add\n        /* \"#utility.yul\":14854:14880   */\n      swap1\n      pop\n        /* \"#utility.yul\":14926:14935   */\n      dup2\n        /* \"#utility.yul\":14920:14924   */\n      dup2\n        /* \"#utility.yul\":14916:14936   */\n      sub\n        /* \"#utility.yul\":14912:14913   */\n      0x00\n        /* \"#utility.yul\":14901:14910   */\n      dup4\n        /* \"#utility.yul\":14897:14914   */\n      add\n        /* \"#utility.yul\":14890:14937   */\n      mstore\n        /* \"#utility.yul\":14954:15085   */\n      tag_329\n        /* \"#utility.yul\":15080:15084   */\n      dup2\n        /* \"#utility.yul\":14954:15085   */\n      tag_178\n      jump\t// in\n    tag_329:\n        /* \"#utility.yul\":14946:15085   */\n      swap1\n      pop\n        /* \"#utility.yul\":14673:15092   */\n      swap2\n      swap1\n      pop\n      jump\t// out\n        /* \"#utility.yul\":15098:15251   */\n    tag_179:\n        /* \"#utility.yul\":15151:15157   */\n      0x00\n        /* \"#utility.yul\":15185:15190   */\n      dup2\n        /* \"#utility.yul\":15179:15191   */\n      sload\n        /* \"#utility.yul\":15169:15191   */\n      swap1\n      pop\n        /* \"#utility.yul\":15211:15244   */\n      tag_331\n        /* \"#utility.yul\":15237:15243   */\n      dup2\n        /* \"#utility.yul\":15211:15244   */\n      tag_67\n      jump\t// in\n    tag_331:\n        /* \"#utility.yul\":15201:15244   */\n      swap1\n      pop\n        /* \"#utility.yul\":15098:15251   */\n      swap2\n      swap1\n      pop\n      jump\t// out\n        /* \"#utility.yul\":15257:15437   */\n    tag_180:\n        /* \"#utility.yul\":15305:15382   */\n      0x4e487b7100000000000000000000000000000000000000000000000000000000\n        /* \"#utility.yul\":15302:15303   */\n      0x00\n        /* \"#utility.yul\":15295:15383   */\n      mstore\n        /* \"#utility.yul\":15402:15406   */\n      0x41\n        /* \"#utility.yul\":15399:15400   */\n      0x04\n        /* \"#utility.yul\":15392:15407   */\n      mstore\n        /* \"#utility.yul\":15426:15430   */\n      0x24\n        /* \"#utility.yul\":15423:15424   */\n      0x00\n        /* \"#utility.yul\":15416:15431   */\n      revert\n        /* \"#utility.yul\":15443:15584   */\n    tag_181:\n        /* \"#utility.yul\":15492:15496   */\n      0x00\n        /* \"#utility.yul\":15515:15518   */\n      dup2\n        /* \"#utility.yul\":15507:15518   */\n      swap1\n      pop\n        /* \"#utility.yul\":15538:15541   */\n      dup2\n        /* \"#utility.yul\":15535:15536   */\n      0x00\n        /* \"#utility.yul\":15528:15542   */\n      mstore\n        /* \"#utility.yul\":15572:15576   */\n      0x20\n        /* \"#utility.yul\":15569:15570   */\n      0x00\n        /* \"#utility.yul\":15559:15577   */\n      keccak256\n        /* \"#utility.yul\":15551:15577   */\n      swap1\n      pop\n        /* \"#utility.yul\":15443:15584   */\n      swap2\n      swap1\n      pop\n      jump\t// out\n        /* \"#utility.yul\":15590:15735   */\n    tag_182:\n        /* \"#utility.yul\":15643:15647   */\n      0x00\n        /* \"#utility.yul\":15666:15669   */\n      dup2\n        /* \"#utility.yul\":15658:15669   */\n      swap1\n      pop\n        /* \"#utility.yul\":15689:15692   */\n      dup2\n        /* \"#utility.yul\":15686:15687   */\n      0x00\n        /* \"#utility.yul\":15679:15693   */\n      mstore\n        /* \"#utility.yul\":15723:15727   */\n      0x20\n        /* \"#utility.yul\":15720:15721   */\n      0x00\n        /* \"#utility.yul\":15710:15728   */\n      keccak256\n        /* \"#utility.yul\":15702:15728   */\n      swap1\n      pop\n        /* \"#utility.yul\":15590:15735   */\n      swap2\n      swap1\n      pop\n      jump\t// out\n        /* \"#utility.yul\":15741:15834   */\n    tag_183:\n        /* \"#utility.yul\":15778:15784   */\n      0x00\n        /* \"#utility.yul\":15825:15827   */\n      0x20\n        /* \"#utility.yul\":15820:15822   */\n      0x1f\n        /* \"#utility.yul\":15813:15818   */\n      dup4\n        /* \"#utility.yul\":15809:15823   */\n      add\n        /* \"#utility.yul\":15805:15828   */\n      div\n        /* \"#utility.yul\":15795:15828   */\n      swap1\n      pop\n        /* \"#utility.yul\":15741:15834   */\n      swap2\n      swap1\n      pop\n      jump\t// out\n        /* \"#utility.yul\":15840:15947   */\n    tag_184:\n        /* \"#utility.yul\":15884:15892   */\n      0x00\n        /* \"#utility.yul\":15934:15939   */\n      dup3\n        /* \"#utility.yul\":15928:15932   */\n      dup3\n        /* \"#utility.yul\":15924:15940   */\n      shl\n        /* \"#utility.yul\":15903:15940   */\n      swap1\n      pop\n        /* \"#utility.yul\":15840:15947   */\n      swap3\n      swap2\n      pop\n      pop\n      jump\t// out\n        /* \"#utility.yul\":15953:16346   */\n    tag_185:\n        /* \"#utility.yul\":16022:16028   */\n      0x00\n        /* \"#utility.yul\":16072:16073   */\n      0x08\n        /* \"#utility.yul\":16060:16070   */\n      dup4\n        /* \"#utility.yul\":16056:16074   */\n      mul\n        /* \"#utility.yul\":16095:16192   */\n      tag_338\n        /* \"#utility.yul\":16125:16191   */\n      0xffffffffffffffffffffffffffffffffffffffffffffffffffffffffffffffff\n        /* \"#utility.yul\":16114:16123   */\n      dup3\n        /* \"#utility.yul\":16095:16192   */\n      tag_184\n      jump\t// in\n    tag_338:\n        /* \"#utility.yul\":16213:16252   */\n      tag_339\n        /* \"#utility.yul\":16243:16251   */\n      dup7\n        /* \"#utility.yul\":16232:16241   */\n      dup4\n        /* \"#utility.yul\":16213:16252   */\n      tag_184\n      jump\t// in\n    tag_339:\n        /* \"#utility.yul\":16201:16252   */\n      swap6\n      pop\n        /* \"#utility.yul\":16285:16289   */\n      dup1\n        /* \"#utility.yul\":16281:16290   */\n      not\n        /* \"#utility.yul\":16274:16279   */\n      dup5\n        /* \"#utility.yul\":16270:16291   */\n      and\n        /* \"#utility.yul\":16261:16291   */\n      swap4\n      pop\n        /* \"#utility.yul\":16334:16338   */\n      dup1\n        /* \"#utility.yul\":16324:16332   */\n      dup7\n        /* \"#utility.yul\":16320:16339   */\n      and\n        /* \"#utility.yul\":16313:16318   */\n      dup5\n        /* \"#utility.yul\":16310:16340   */\n      or\n        /* \"#utility.yul\":16300:16340   */\n      swap3\n      pop\n        /* \"#utility.yul\":16029:16346   */\n      pop\n      pop\n        /* \"#utility.yul\":15953:16346   */\n      swap4\n      swap3\n      pop\n      pop\n      pop\n      jump\t// out\n        /* \"#utility.yul\":16352:16412   */\n    tag_186:\n        /* \"#utility.yul\":16380:16383   */\n      0x00\n        /* \"#utility.yul\":16401:16406   */\n      dup2\n        /* \"#utility.yul\":16394:16406   */\n      swap1\n      pop\n        /* \"#utility.yul\":16352:16412   */\n      swap2\n      swap1\n      pop\n      jump\t// out\n        /* \"#utility.yul\":16418:16560   */\n    tag_187:\n        /* \"#utility.yul\":16468:16477   */\n      0x00\n        /* \"#utility.yul\":16501:16554   */\n      tag_342\n        /* \"#utility.yul\":16519:16553   */\n      tag_343\n        /* \"#utility.yul\":16528:16552   */\n      tag_344\n        /* \"#utility.yul\":16546:16551   */\n      dup5\n        /* \"#utility.yul\":16528:16552   */\n      tag_151\n      jump\t// in\n    tag_344:\n        /* \"#utility.yul\":16519:16553   */\n      tag_186\n      jump\t// in\n    tag_343:\n        /* \"#utility.yul\":16501:16554   */\n      tag_151\n      jump\t// in\n    tag_342:\n        /* \"#utility.yul\":16488:16554   */\n      swap1\n      pop\n        /* \"#utility.yul\":16418:16560   */\n      swap2\n      swap1\n      pop\n      jump\t// out\n        /* \"#utility.yul\":16566:16641   */\n    tag_188:\n        /* \"#utility.yul\":16609:16612   */\n      0x00\n        /* \"#utility.yul\":16630:16635   */\n      dup2\n        /* \"#utility.yul\":16623:16635   */\n      swap1\n      pop\n        /* \"#utility.yul\":16566:16641   */\n      swap2\n      swap1\n      pop\n      jump\t// out\n        /* \"#utility.yul\":16647:16916   */\n    tag_189:\n        /* \"#utility.yul\":16757:16796   */\n      tag_347\n        /* \"#utility.yul\":16788:16795   */\n      dup4\n        /* \"#utility.yul\":16757:16796   */\n      tag_187\n      jump\t// in\n    tag_347:\n        /* \"#utility.yul\":16818:16909   */\n      tag_348\n        /* \"#utility.yul\":16867:16908   */\n      tag_349\n        /* \"#utility.yul\":16891:16907   */\n      dup3\n        /* \"#utility.yul\":16867:16908   */\n      tag_188\n      jump\t// in\n    tag_349:\n        /* \"#utility.yul\":16859:16865   */\n      dup5\n        /* \"#utility.yul\":16852:16856   */\n      dup5\n        /* \"#utility.yul\":16846:16857   */\n      sload\n        /* \"#utility.yul\":16818:16909   */\n      tag_185\n      jump\t// in\n    tag_348:\n        /* \"#utility.yul\":16812:16816   */\n      dup3\n        /* \"#utility.yul\":16805:16910   */\n      sstore\n        /* \"#utility.yul\":16723:16916   */\n      pop\n        /* \"#utility.yul\":16647:16916   */\n      pop\n      pop\n      pop\n      jump\t// out\n        /* \"#utility.yul\":16922:16995   */\n    tag_190:\n        /* \"#utility.yul\":16967:16970   */\n      0x00\n        /* \"#utility.yul\":16922:16995   */\n      swap1\n      jump\t// out\n        /* \"#utility.yul\":17001:17190   */\n    tag_191:\n        /* \"#utility.yul\":17078:17110   */\n      tag_352\n      tag_190\n      jump\t// in\n    tag_352:\n        /* \"#utility.yul\":17119:17184   */\n      tag_353\n        /* \"#utility.yul\":17177:17183   */\n      dup2\n        /* \"#utility.yul\":17169:17175   */\n      dup5\n        /* \"#utility.yul\":17163:17167   */\n      dup5\n        /* \"#utility.yul\":17119:17184   */\n      tag_189\n      jump\t// in\n    tag_353:\n        /* \"#utility.yul\":17054:17190   */\n      pop\n        /* \"#utility.yul\":17001:17190   */\n      pop\n      pop\n      jump\t// out\n        /* \"#utility.yul\":17196:17382   */\n    tag_192:\n        /* \"#utility.yul\":17256:17376   */\n    tag_355:\n        /* \"#utility.yul\":17273:17276   */\n      dup2\n        /* \"#utility.yul\":17266:17271   */\n      dup2\n        /* \"#utility.yul\":17263:17277   */\n      lt\n        /* \"#utility.yul\":17256:17376   */\n      iszero\n      tag_357\n      jumpi\n        /* \"#utility.yul\":17327:17366   */\n      tag_358\n        /* \"#utility.yul\":17364:17365   */\n      0x00\n        /* \"#utility.yul\":17357:17362   */\n      dup3\n        /* \"#utility.yul\":17327:17366   */\n      tag_191\n      jump\t// in\n    tag_358:\n        /* \"#utility.yul\":17300:17301   */\n      0x01\n        /* \"#utility.yul\":17293:17298   */\n      dup2\n        /* \"#utility.yul\":17289:17302   */\n      add\n        /* \"#utility.yul\":17280:17302   */\n      swap1\n      pop\n        /* \"#utility.yul\":17256:17376   */\n      jump(tag_355)\n    tag_357:\n        /* \"#utility.yul\":17196:17382   */\n      pop\n      pop\n      jump\t// out\n        /* \"#utility.yul\":17388:17931   */\n    tag_193:\n        /* \"#utility.yul\":17489:17491   */\n      0x1f\n        /* \"#utility.yul\":17484:17487   */\n      dup3\n        /* \"#utility.yul\":17481:17492   */\n      gt\n        /* \"#utility.yul\":17478:17924   */\n      iszero\n      tag_360\n      jumpi\n        /* \"#utility.yul\":17523:17561   */\n      tag_361\n        /* \"#utility.yul\":17555:17560   */\n      dup2\n        /* \"#utility.yul\":17523:17561   */\n      tag_181\n      jump\t// in\n    tag_361:\n        /* \"#utility.yul\":17607:17636   */\n      tag_362\n        /* \"#utility.yul\":17625:17635   */\n      dup5\n        /* \"#utility.yul\":17607:17636   */\n      tag_183\n      jump\t// in\n    tag_362:\n        /* \"#utility.yul\":17597:17605   */\n      dup2\n        /* \"#utility.yul\":17593:17637   */\n      add\n        /* \"#utility.yul\":17790:17792   */\n      0x20\n        /* \"#utility.yul\":17778:17788   */\n      dup6\n        /* \"#utility.yul\":17775:17793   */\n      lt\n        /* \"#utility.yul\":17772:17821   */\n      iszero\n      tag_363\n      jumpi\n        /* \"#utility.yul\":17811:17819   */\n      dup2\n        /* \"#utility.yul\":17796:17819   */\n      swap1\n      pop\n        /* \"#utility.yul\":17772:17821   */\n    tag_363:\n        /* \"#utility.yul\":17834:17914   */\n      tag_364\n        /* \"#utility.yul\":17890:17912   */\n      tag_365\n        /* \"#utility.yul\":17908:17911   */\n      dup6\n        /* \"#utility.yul\":17890:17912   */\n      tag_183\n      jump\t// in\n    tag_365:\n        /* \"#utility.yul\":17880:17888   */\n      dup4\n        /* \"#utility.yul\":17876:17913   */\n      add\n        /* \"#utility.yul\":17863:17874   */\n      dup3\n        /* \"#utility.yul\":17834:17914   */\n      tag_192\n      jump\t// in\n    tag_364:\n        /* \"#utility.yul\":17493:17924   */\n      pop\n      pop\n        /* \"#utility.yul\":17478:17924   */\n    tag_360:\n        /* \"#utility.yul\":17388:17931   */\n      pop\n      pop\n      pop\n      jump\t// out\n        /* \"#utility.yul\":17937:18054   */\n    tag_194:\n        /* \"#utility.yul\":17991:17999   */\n      0x00\n        /* \"#utility.yul\":18041:18046   */\n      dup3\n        /* \"#utility.yul\":18035:18039   */\n      dup3\n        /* \"#utility.yul\":18031:18047   */\n      shr\n        /* \"#utility.yul\":18010:18047   */\n      swap1\n      pop\n        /* \"#utility.yul\":17937:18054   */\n      swap3\n      swap2\n      pop\n      pop\n      jump\t// out\n        /* \"#utility.yul\":18060:18229   */\n    tag_195:\n        /* \"#utility.yul\":18104:18110   */\n      0x00\n        /* \"#utility.yul\":18137:18188   */\n      tag_368\n        /* \"#utility.yul\":18185:18186   */\n      0x00\n        /* \"#utility.yul\":18181:18187   */\n      not\n        /* \"#utility.yul\":18173:18178   */\n      dup5\n        /* \"#utility.yul\":18170:18171   */\n      0x08\n        /* \"#utility.yul\":18166:18179   */\n      mul\n        /* \"#utility.yul\":18137:18188   */\n      tag_194\n      jump\t// in\n    tag_368:\n        /* \"#utility.yul\":18133:18189   */\n      not\n        /* \"#utility.yul\":18218:18222   */\n      dup1\n        /* \"#utility.yul\":18212:18216   */\n      dup4\n        /* \"#utility.yul\":18208:18223   */\n      and\n        /* \"#utility.yul\":18198:18223   */\n      swap2\n      pop\n        /* \"#utility.yul\":18111:18229   */\n      pop\n        /* \"#utility.yul\":18060:18229   */\n      swap3\n      swap2\n      pop\n      pop\n      jump\t// out\n        /* \"#utility.yul\":18234:18529   */\n    tag_196:\n        /* \"#utility.yul\":18310:18314   */\n      0x00\n        /* \"#utility.yul\":18456:18485   */\n      tag_370\n        /* \"#utility.yul\":18481:18484   */\n      dup4\n        /* \"#utility.yul\":18475:18479   */\n      dup4\n        /* \"#utility.yul\":18456:18485   */\n      tag_195\n      jump\t// in\n    tag_370:\n        /* \"#utility.yul\":18448:18485   */\n      swap2\n      pop\n        /* \"#utility.yul\":18518:18521   */\n      dup3\n        /* \"#utility.yul\":18515:18516   */\n      0x02\n        /* \"#utility.yul\":18511:18522   */\n      mul\n        /* \"#utility.yul\":18505:18509   */\n      dup3\n        /* \"#utility.yul\":18502:18523   */\n      or\n        /* \"#utility.yul\":18494:18523   */\n      swap1\n      pop\n        /* \"#utility.yul\":18234:18529   */\n      swap3\n      swap2\n      pop\n      pop\n      jump\t// out\n        /* \"#utility.yul\":18534:19997   */\n    tag_124:\n        /* \"#utility.yul\":18649:18652   */\n      dup2\n        /* \"#utility.yul\":18643:18647   */\n      dup2\n        /* \"#utility.yul\":18640:18653   */\n      sub\n        /* \"#utility.yul\":18637:18663   */\n      tag_372\n      jumpi\n        /* \"#utility.yul\":18656:18661   */\n      pop\n      pop\n      jump(tag_371)\n        /* \"#utility.yul\":18637:18663   */\n    tag_372:\n        /* \"#utility.yul\":18687:18725   */\n      tag_373\n        /* \"#utility.yul\":18721:18724   */\n      dup3\n        /* \"#utility.yul\":18687:18725   */\n      tag_179\n      jump\t// in\n    tag_373:\n        /* \"#utility.yul\":18790:18808   */\n      0xffffffffffffffff\n        /* \"#utility.yul\":18782:18788   */\n      dup2\n        /* \"#utility.yul\":18779:18809   */\n      gt\n        /* \"#utility.yul\":18776:18832   */\n      iszero\n      tag_374\n      jumpi\n        /* \"#utility.yul\":18812:18830   */\n      tag_375\n      tag_180\n      jump\t// in\n    tag_375:\n        /* \"#utility.yul\":18776:18832   */\n    tag_374:\n        /* \"#utility.yul\":18856:18894   */\n      tag_376\n        /* \"#utility.yul\":18888:18892   */\n      dup3\n        /* \"#utility.yul\":18882:18893   */\n      sload\n        /* \"#utility.yul\":18856:18894   */\n      tag_67\n      jump\t// in\n    tag_376:\n        /* \"#utility.yul\":18941:19008   */\n      tag_377\n        /* \"#utility.yul\":19001:19007   */\n      dup3\n        /* \"#utility.yul\":18993:18999   */\n      dup3\n        /* \"#utility.yul\":18987:18991   */\n      dup6\n        /* \"#utility.yul\":18941:19008   */\n      tag_193\n      jump\t// in\n    tag_377:\n        /* \"#utility.yul\":19035:19036   */\n      0x00\n        /* \"#utility.yul\":19064:19066   */\n      0x1f\n        /* \"#utility.yul\":19056:19062   */\n      dup4\n        /* \"#utility.yul\":19053:19067   */\n      gt\n        /* \"#utility.yul\":19081:19082   */\n      0x01\n        /* \"#utility.yul\":19076:19752   */\n      dup2\n      eq\n      tag_379\n      jumpi\n        /* \"#utility.yul\":19796:19797   */\n      0x00\n        /* \"#utility.yul\":19813:19819   */\n      dup5\n        /* \"#utility.yul\":19810:19887   */\n      iszero\n      tag_380\n      jumpi\n        /* \"#utility.yul\":19862:19871   */\n      dup3\n        /* \"#utility.yul\":19857:19860   */\n      dup8\n        /* \"#utility.yul\":19853:19872   */\n      add\n        /* \"#utility.yul\":19847:19873   */\n      sload\n        /* \"#utility.yul\":19838:19873   */\n      swap1\n      pop\n        /* \"#utility.yul\":19810:19887   */\n    tag_380:\n        /* \"#utility.yul\":19913:19980   */\n      tag_381\n        /* \"#utility.yul\":19973:19979   */\n      dup6\n        /* \"#utility.yul\":19966:19971   */\n      dup3\n        /* \"#utility.yul\":19913:19980   */\n      tag_196\n      jump\t// in\n    tag_381:\n        /* \"#utility.yul\":19907:19911   */\n      dup7\n        /* \"#utility.yul\":19900:19981   */\n      sstore\n        /* \"#utility.yul\":19769:19991   */\n      pop\n        /* \"#utility.yul\":19046:19991   */\n      jump(tag_378)\n        /* \"#utility.yul\":19076:19752   */\n    tag_379:\n        /* \"#utility.yul\":19128:19132   */\n      0x1f\n        /* \"#utility.yul\":19124:19133   */\n      not\n        /* \"#utility.yul\":19116:19122   */\n      dup5\n        /* \"#utility.yul\":19112:19134   */\n      and\n        /* \"#utility.yul\":19154:19194   */\n      tag_382\n        /* \"#utility.yul\":19190:19193   */\n      dup8\n        /* \"#utility.yul\":19154:19194   */\n      tag_182\n      jump\t// in\n    tag_382:\n        /* \"#utility.yul\":19147:19194   */\n      swap7\n      pop\n        /* \"#utility.yul\":19221:19258   */\n      tag_383\n        /* \"#utility.yul\":19253:19257   */\n      dup7\n        /* \"#utility.yul\":19221:19258   */\n      tag_181\n      jump\t// in\n    tag_383:\n        /* \"#utility.yul\":19280:19281   */\n      0x00\n        /* \"#utility.yul\":19294:19501   */\n    tag_384:\n        /* \"#utility.yul\":19308:19315   */\n      dup3\n        /* \"#utility.yul\":19305:19306   */\n      dup2\n        /* \"#utility.yul\":19302:19316   */\n      lt\n        /* \"#utility.yul\":19294:19501   */\n      iszero\n      tag_386\n      jumpi\n        /* \"#utility.yul\":19387:19396   */\n      dup5\n        /* \"#utility.yul\":19382:19385   */\n      dup10\n        /* \"#utility.yul\":19378:19397   */\n      add\n        /* \"#utility.yul\":19372:19398   */\n      sload\n        /* \"#utility.yul\":19364:19370   */\n      dup3\n        /* \"#utility.yul\":19357:19399   */\n      sstore\n        /* \"#utility.yul\":19438:19439   */\n      0x01\n        /* \"#utility.yul\":19430:19436   */\n      dup3\n        /* \"#utility.yul\":19426:19440   */\n      add\n        /* \"#utility.yul\":19416:19440   */\n      swap2\n      pop\n        /* \"#utility.yul\":19485:19486   */\n      0x01\n        /* \"#utility.yul\":19474:19483   */\n      dup6\n        /* \"#utility.yul\":19470:19487   */\n      add\n        /* \"#utility.yul\":19457:19487   */\n      swap5\n      pop\n        /* \"#utility.yul\":19331:19335   */\n      0x20\n        /* \"#utility.yul\":19328:19329   */\n      dup2\n        /* \"#utility.yul\":19324:19336   */\n      add\n        /* \"#utility.yul\":19319:19336   */\n      swap1\n      pop\n        /* \"#utility.yul\":19294:19501   */\n      jump(tag_384)\n    tag_386:\n        /* \"#utility.yul\":19529:19535   */\n      dup7\n        /* \"#utility.yul\":19520:19527   */\n      dup4\n        /* \"#utility.yul\":19517:19536   */\n      lt\n        /* \"#utility.yul\":19514:19693   */\n      iszero\n      tag_387\n      jumpi\n        /* \"#utility.yul\":19587:19596   */\n      dup5\n        /* \"#utility.yul\":19582:19585   */\n      dup10\n        /* \"#utility.yul\":19578:19597   */\n      add\n        /* \"#utility.yul\":19572:19598   */\n      sload\n        /* \"#utility.yul\":19630:19678   */\n      tag_388\n        /* \"#utility.yul\":19672:19676   */\n      0x1f\n        /* \"#utility.yul\":19664:19670   */\n      dup10\n        /* \"#utility.yul\":19660:19677   */\n      and\n        /* \"#utility.yul\":19649:19658   */\n      dup3\n        /* \"#utility.yul\":19630:19678   */\n      tag_195\n      jump\t// in\n    tag_388:\n        /* \"#utility.yul\":19622:19628   */\n      dup4\n        /* \"#utility.yul\":19615:19679   */\n      sstore\n        /* \"#utility.yul\":19537:19693   */\n      pop\n        /* \"#utility.yul\":19514:19693   */\n    tag_387:\n        /* \"#utility.yul\":19739:19740   */\n      0x01\n        /* \"#utility.yul\":19735:19736   */\n      0x02\n        /* \"#utility.yul\":19727:19733   */\n      dup9\n        /* \"#utility.yul\":19723:19737   */\n      mul\n        /* \"#utility.yul\":19719:19741   */\n      add\n        /* \"#utility.yul\":19713:19717   */\n      dup9\n        /* \"#utility.yul\":19706:19742   */\n      sstore\n        /* \"#utility.yul\":19083:19752   */\n      pop\n      pop\n      pop\n        /* \"#utility.yul\":19046:19991   */\n    tag_378:\n      pop\n        /* \"#utility.yul\":18627:19997   */\n      pop\n      pop\n      pop\n        /* \"#utility.yul\":18534:19997   */\n      pop\n      pop\n    tag_371:\n      jump\t// out\n\n    auxdata: 0xa26469706673582212205ee0740cb8b96ef723a69013417da850bde93421cdea72730d855ca65c7a565d64736f6c634300081a0033\n}\n",
				"bytecode": {
					"linkReferences": {},
					"object": "60806040526040518060400160405280600581526020017f446567656e000000000000000000000000000000000000000000000000000000815250600190816100489190610495565b506040518060400160405280600381526020017f44474e00000000000000000000000000000000000000000000000000000000008152506002908161008d9190610495565b505f60035534801561009d575f80fd5b50335f806101000a81548173ffffffffffffffffffffffffffffffffffffffff021916908373ffffffffffffffffffffffffffffffffffffffff16021790555060405180604001604052806040518060400160405280600c81526020017f536c617965722053776f726400000000000000000000000000000000000000008152508152602001600281525060055f8081526020019081526020015f205f820151815f01908161014c9190610495565b506020820151816001015590505060405180604001604052806040518060400160405280600d81526020017f447261676f6e20536869656c64000000000000000000000000000000000000008152508152602001600381525060055f600181526020019081526020015f205f820151815f0190816101ca9190610495565b506020820151816001015590505060405180604001604052806040518060400160405280600881526020017f474f442048414e440000000000000000000000000000000000000000000000008152508152602001600581525060055f600281526020019081526020015f205f820151815f0190816102489190610495565b5060208201518160010155905050610564565b5f81519050919050565b7f4e487b71000000000000000000000000000000000000000000000000000000005f52604160045260245ffd5b7f4e487b71000000000000000000000000000000000000000000000000000000005f52602260045260245ffd5b5f60028204905060018216806102d657607f821691505b6020821081036102e9576102e8610292565b5b50919050565b5f819050815f5260205f209050919050565b5f6020601f8301049050919050565b5f82821b905092915050565b5f6008830261034b7fffffffffffffffffffffffffffffffffffffffffffffffffffffffffffffffff82610310565b6103558683610310565b95508019841693508086168417925050509392505050565b5f819050919050565b5f819050919050565b5f61039961039461038f8461036d565b610376565b61036d565b9050919050565b5f819050919050565b6103b28361037f565b6103c66103be826103a0565b84845461031c565b825550505050565b5f90565b6103da6103ce565b6103e58184846103a9565b505050565b5b81811015610408576103fd5f826103d2565b6001810190506103eb565b5050565b601f82111561044d5761041e816102ef565b61042784610301565b81016020851015610436578190505b61044a61044285610301565b8301826103ea565b50505b505050565b5f82821c905092915050565b5f61046d5f1984600802610452565b1980831691505092915050565b5f610485838361045e565b9150826002028217905092915050565b61049e8261025b565b67ffffffffffffffff8111156104b7576104b6610265565b5b6104c182546102bf565b6104cc82828561040c565b5f60209050601f8311600181146104fd575f84156104eb578287015190505b6104f5858261047a565b86555061055c565b601f19841661050b866102ef565b5f5b828110156105325784890151825560018201915060208501945060208101905061050d565b8683101561054f578489015161054b601f89168261045e565b8355505b6001600288020188555050505b505050505050565b61179c806105715f395ff3fe608060405234801561000f575f80fd5b50600436106100b2575f3560e01c8063b6d7855a1161006f578063b6d7855a1461018b578063b7760c8f146101a9578063c00aa3a5146101c5578063db006a75146101f5578063ee07bf2214610225578063f8f4b57414610243576100b2565b80633045aaf3146100b657806337fa221b146100d45780633ac0594a146100f257806342966c68146101235780636428f5301461013f57806394bf804d1461016f575b5f80fd5b6100be610273565b6040516100cb9190610d9a565b60405180910390f35b6100dc6102ff565b6040516100e99190610df9565b60405180910390f35b61010c60048036038101906101079190610e49565b610322565b60405161011a929190610e83565b60405180910390f35b61013d60048036038101906101389190610e49565b6103c8565b005b61015960048036038101906101549190610edb565b6104d5565b6040516101669190610f06565b60405180910390f35b61018960048036038101906101849190610f1f565b61051b565b005b61019361068c565b6040516101a09190610d9a565b60405180910390f35b6101c360048036038101906101be9190610f1f565b610718565b005b6101df60048036038101906101da9190610f5d565b6108b0565b6040516101ec9190610d9a565b60405180910390f35b61020f600480360381019061020a9190610e49565b610961565b60405161021c9190610d9a565b60405180910390f35b61022d610c13565b60405161023a9190610f06565b60405180910390f35b61025d60048036038101906102589190610edb565b610c19565b60405161026a919061109e565b60405180910390f35b60028054610280906110eb565b80601f01602080910402602001604051908101604052809291908181526020018280546102ac906110eb565b80156102f75780601f106102ce576101008083540402835291602001916102f7565b820191905f5260205f20905b8154815290600101906020018083116102da57829003601f168201915b505050505081565b5f8054906101000a900473ffffffffffffffffffffffffffffffffffffffff1681565b6005602052805f5260405f205f91509050805f018054610341906110eb565b80601f016020809104026020016040519081016040528092919081815260200182805461036d906110eb565b80156103b85780601f1061038f576101008083540402835291602001916103b8565b820191905f5260205f20905b81548152906001019060200180831161039b57829003601f168201915b5050505050908060010154905082565b60045f3373ffffffffffffffffffffffffffffffffffffffff1673ffffffffffffffffffffffffffffffffffffffff1681526020019081526020015f2054811115610448576040517f08c379a000000000000000000000000000000000000000000000000000000000815260040161043f90611165565b60405180910390fd5b8060045f3373ffffffffffffffffffffffffffffffffffffffff1673ffffffffffffffffffffffffffffffffffffffff1681526020019081526020015f205461049191906111b0565b60045f3373ffffffffffffffffffffffffffffffffffffffff1673ffffffffffffffffffffffffffffffffffffffff1681526020019081526020015f208190555050565b5f60045f8373ffffffffffffffffffffffffffffffffffffffff1673ffffffffffffffffffffffffffffffffffffffff1681526020019081526020015f20549050919050565b5f8054906101000a900473ffffffffffffffffffffffffffffffffffffffff1673ffffffffffffffffffffffffffffffffffffffff163373ffffffffffffffffffffffffffffffffffffffff16146105a8576040517f08c379a000000000000000000000000000000000000000000000000000000000815260040161059f90611253565b60405180910390fd5b5f82116105ea576040517f08c379a00000000000000000000000000000000000000000000000000000000081526004016105e1906112e1565b60405180910390fd5b816003546105f891906112ff565b6003819055508160045f8373ffffffffffffffffffffffffffffffffffffffff1673ffffffffffffffffffffffffffffffffffffffff1681526020019081526020015f205461064791906112ff565b60045f8373ffffffffffffffffffffffffffffffffffffffff1673ffffffffffffffffffffffffffffffffffffffff1681526020019081526020015f20819055505050565b60018054610699906110eb565b80601f01602080910402602001604051908101604052809291908181526020018280546106c5906110eb565b80156107105780601f106106e757610100808354040283529160200191610710565b820191905f5260205f20905b8154815290600101906020018083116106f357829003601f168201915b505050505081565b60045f3373ffffffffffffffffffffffffffffffffffffffff1673ffffffffffffffffffffffffffffffffffffffff1681526020019081526020015f2054821115610798576040517f08c379a000000000000000000000000000000000000000000000000000000000815260040161078f906113a2565b60405180910390fd5b8160045f8373ffffffffffffffffffffffffffffffffffffffff1673ffffffffffffffffffffffffffffffffffffffff1681526020019081526020015f20546107e191906112ff565b60045f8373ffffffffffffffffffffffffffffffffffffffff1673ffffffffffffffffffffffffffffffffffffffff1681526020019081526020015f20819055508160045f3373ffffffffffffffffffffffffffffffffffffffff1673ffffffffffffffffffffffffffffffffffffffff1681526020019081526020015f205461086b91906111b0565b60045f3373ffffffffffffffffffffffffffffffffffffffff1673ffffffffffffffffffffffffffffffffffffffff1681526020019081526020015f20819055505050565b6006602052815f5260405f2081815481106108c9575f80fd5b905f5260205f20015f915091505080546108e2906110eb565b80601f016020809104026020016040519081016040528092919081815260200182805461090e906110eb565b80156109595780601f1061093057610100808354040283529160200191610959565b820191905f5260205f20905b81548152906001019060200180831161093c57829003601f168201915b505050505081565b606060045f3373ffffffffffffffffffffffffffffffffffffffff1673ffffffffffffffffffffffffffffffffffffffff1681526020019081526020015f205460055f8481526020019081526020015f206001015411156109f7576040517f08c379a00000000000000000000000000000000000000000000000000000000081526004016109ee9061140a565b60405180910390fd5b5f8214158015610a08575060018214155b8015610a15575060028214155b15610a55576040517f08c379a0000000000000000000000000000000000000000000000000000000008152600401610a4c90611472565b60405180910390fd5b60065f3373ffffffffffffffffffffffffffffffffffffffff1673ffffffffffffffffffffffffffffffffffffffff1681526020019081526020015f2060055f8481526020019081526020015f205f01908060018154018082558091505060019003905f5260205f20015f909190919091509081610ad39190611681565b5060055f8381526020019081526020015f206001015460045f3373ffffffffffffffffffffffffffffffffffffffff1673ffffffffffffffffffffffffffffffffffffffff1681526020019081526020015f2054610b3191906111b0565b60045f3373ffffffffffffffffffffffffffffffffffffffff1673ffffffffffffffffffffffffffffffffffffffff1681526020019081526020015f208190555060055f8381526020019081526020015f205f018054610b90906110eb565b80601f0160208091040260200160405190810160405280929190818152602001828054610bbc906110eb565b8015610c075780601f10610bde57610100808354040283529160200191610c07565b820191905f5260205f20905b815481529060010190602001808311610bea57829003601f168201915b50505050509050919050565b60035481565b606060065f8373ffffffffffffffffffffffffffffffffffffffff1673ffffffffffffffffffffffffffffffffffffffff1681526020019081526020015f20805480602002602001604051908101604052809291908181526020015f905b82821015610d1f578382905f5260205f20018054610c94906110eb565b80601f0160208091040260200160405190810160405280929190818152602001828054610cc0906110eb565b8015610d0b5780601f10610ce257610100808354040283529160200191610d0b565b820191905f5260205f20905b815481529060010190602001808311610cee57829003601f168201915b505050505081526020019060010190610c77565b505050509050919050565b5f81519050919050565b5f82825260208201905092915050565b8281835e5f83830152505050565b5f601f19601f8301169050919050565b5f610d6c82610d2a565b610d768185610d34565b9350610d86818560208601610d44565b610d8f81610d52565b840191505092915050565b5f6020820190508181035f830152610db28184610d62565b905092915050565b5f73ffffffffffffffffffffffffffffffffffffffff82169050919050565b5f610de382610dba565b9050919050565b610df381610dd9565b82525050565b5f602082019050610e0c5f830184610dea565b92915050565b5f80fd5b5f819050919050565b610e2881610e16565b8114610e32575f80fd5b50565b5f81359050610e4381610e1f565b92915050565b5f60208284031215610e5e57610e5d610e12565b5b5f610e6b84828501610e35565b91505092915050565b610e7d81610e16565b82525050565b5f6040820190508181035f830152610e9b8185610d62565b9050610eaa6020830184610e74565b9392505050565b610eba81610dd9565b8114610ec4575f80fd5b50565b5f81359050610ed581610eb1565b92915050565b5f60208284031215610ef057610eef610e12565b5b5f610efd84828501610ec7565b91505092915050565b5f602082019050610f195f830184610e74565b92915050565b5f8060408385031215610f3557610f34610e12565b5b5f610f4285828601610e35565b9250506020610f5385828601610ec7565b9150509250929050565b5f8060408385031215610f7357610f72610e12565b5b5f610f8085828601610ec7565b9250506020610f9185828601610e35565b9150509250929050565b5f81519050919050565b5f82825260208201905092915050565b5f819050602082019050919050565b5f82825260208201905092915050565b5f610fde82610d2a565b610fe88185610fc4565b9350610ff8818560208601610d44565b61100181610d52565b840191505092915050565b5f6110178383610fd4565b905092915050565b5f602082019050919050565b5f61103582610f9b565b61103f8185610fa5565b93508360208202850161105185610fb5565b805f5b8581101561108c578484038952815161106d858261100c565b94506110788361101f565b925060208a01995050600181019050611054565b50829750879550505050505092915050565b5f6020820190508181035f8301526110b6818461102b565b905092915050565b7f4e487b71000000000000000000000000000000000000000000000000000000005f52602260045260245ffd5b5f600282049050600182168061110257607f821691505b602082108103611115576111146110be565b5b50919050565b7f416d6f756e742073686f756c64206e6f74206578636565642062616c616e63655f82015250565b5f61114f602083610d34565b915061115a8261111b565b602082019050919050565b5f6020820190508181035f83015261117c81611143565b9050919050565b7f4e487b71000000000000000000000000000000000000000000000000000000005f52601160045260245ffd5b5f6111ba82610e16565b91506111c583610e16565b92508282039050818111156111dd576111dc611183565b5b92915050565b7f436f6d6d616e642063656e746572206861732072696768747320746f206d696e5f8201527f74206e657720746f6b656e000000000000000000000000000000000000000000602082015250565b5f61123d602b83610d34565b9150611248826111e3565b604082019050919050565b5f6020820190508181035f83015261126a81611231565b9050919050565b7f4d696e74696e6720616d6f756e742073686f756c6420626520677265617465725f8201527f207468616e203000000000000000000000000000000000000000000000000000602082015250565b5f6112cb602783610d34565b91506112d682611271565b604082019050919050565b5f6020820190508181035f8301526112f8816112bf565b9050919050565b5f61130982610e16565b915061131483610e16565b925082820190508082111561132c5761132b611183565b5b92915050565b7f416d6f756e742073686f756c64206265206c657373207468616e2074686520735f8201527f656e64657227732062616c616e63650000000000000000000000000000000000602082015250565b5f61138c602f83610d34565b915061139782611332565b604082019050919050565b5f6020820190508181035f8301526113b981611380565b9050919050565b7f496e73756666696369656e742042616c616e63650000000000000000000000005f82015250565b5f6113f4601483610d34565b91506113ff826113c0565b602082019050919050565b5f6020820190508181035f830152611421816113e8565b9050919050565b7f496e76616c6964207265776172642049440000000000000000000000000000005f82015250565b5f61145c601183610d34565b915061146782611428565b602082019050919050565b5f6020820190508181035f83015261148981611450565b9050919050565b5f8154905061149e816110eb565b9050919050565b7f4e487b71000000000000000000000000000000000000000000000000000000005f52604160045260245ffd5b5f819050815f5260205f209050919050565b5f819050815f5260205f209050919050565b5f6020601f8301049050919050565b5f82821b905092915050565b5f600883026115407fffffffffffffffffffffffffffffffffffffffffffffffffffffffffffffffff82611505565b61154a8683611505565b95508019841693508086168417925050509392505050565b5f819050919050565b5f61158561158061157b84610e16565b611562565b610e16565b9050919050565b5f819050919050565b61159e8361156b565b6115b26115aa8261158c565b848454611511565b825550505050565b5f90565b6115c66115ba565b6115d1818484611595565b505050565b5b818110156115f4576115e95f826115be565b6001810190506115d7565b5050565b601f8211156116395761160a816114d2565b611613846114f6565b81016020851015611622578190505b61163661162e856114f6565b8301826115d6565b50505b505050565b5f82821c905092915050565b5f6116595f198460080261163e565b1980831691505092915050565b5f611671838361164a565b9150826002028217905092915050565b81810361168f575050611764565b61169882611490565b67ffffffffffffffff8111156116b1576116b06114a5565b5b6116bb82546110eb565b6116c68282856115f8565b5f601f8311600181146116f3575f84156116e1578287015490505b6116eb8582611666565b86555061175d565b601f198416611701876114e4565b965061170c866114d2565b5f5b828110156117335784890154825560018201915060018501945060208101905061170e565b86831015611750578489015461174c601f89168261164a565b8355505b6001600288020188555050505b5050505050505b56fea26469706673582212205ee0740cb8b96ef723a69013417da850bde93421cdea72730d855ca65c7a565d64736f6c634300081a0033",
					"opcodes": "PUSH1 0x80 PUSH1 0x40 MSTORE PUSH1 0x40 MLOAD DUP1 PUSH1 0x40 ADD PUSH1 0x40 MSTORE DUP1 PUSH1 0x5 DUP2 MSTORE PUSH1 0x20 ADD PUSH32 0x446567656E000000000000000000000000000000000000000000000000000000 DUP2 MSTORE POP PUSH1 0x1 SWAP1 DUP2 PUSH2 0x48 SWAP2 SWAP1 PUSH2 0x495 JUMP JUMPDEST POP PUSH1 0x40 MLOAD DUP1 PUSH1 0x40 ADD PUSH1 0x40 MSTORE DUP1 PUSH1 0x3 DUP2 MSTORE PUSH1 0x20 ADD PUSH32 0x44474E0000000000000000000000000000000000000000000000000000000000 DUP2 MSTORE POP PUSH1 0x2 SWAP1 DUP2 PUSH2 0x8D SWAP2 SWAP1 PUSH2 0x495 JUMP JUMPDEST POP PUSH0 PUSH1 0x3 SSTORE CALLVALUE DUP1 ISZERO PUSH2 0x9D JUMPI PUSH0 DUP1 REVERT JUMPDEST POP CALLER PUSH0 DUP1 PUSH2 0x100 EXP DUP2 SLOAD DUP2 PUSH20 0xFFFFFFFFFFFFFFFFFFFFFFFFFFFFFFFFFFFFFFFF MUL NOT AND SWAP1 DUP4 PUSH20 0xFFFFFFFFFFFFFFFFFFFFFFFFFFFFFFFFFFFFFFFF AND MUL OR SWAP1 SSTORE POP PUSH1 0x40 MLOAD DUP1 PUSH1 0x40 ADD PUSH1 0x40 MSTORE DUP1 PUSH1 0x40 MLOAD DUP1 PUSH1 0x40 ADD PUSH1 0x40 MSTORE DUP1 PUSH1 0xC DUP2 MSTORE PUSH1 0x20 ADD PUSH32 0x536C617965722053776F72640000000000000000000000000000000000000000 DUP2 MSTORE POP DUP2 MSTORE PUSH1 0x20 ADD PUSH1 0x2 DUP2 MSTORE POP PUSH1 0x5 PUSH0 DUP1 DUP2 MSTORE PUSH1 0x20 ADD SWAP1 DUP2 MSTORE PUSH1 0x20 ADD PUSH0 KECCAK256 PUSH0 DUP3 ADD MLOAD DUP2 PUSH0 ADD SWAP1 DUP2 PUSH2 0x14C SWAP2 SWAP1 PUSH2 0x495 JUMP JUMPDEST POP PUSH1 0x20 DUP3 ADD MLOAD DUP2 PUSH1 0x1 ADD SSTORE SWAP1 POP POP PUSH1 0x40 MLOAD DUP1 PUSH1 0x40 ADD PUSH1 0x40 MSTORE DUP1 PUSH1 0x40 MLOAD DUP1 PUSH1 0x40 ADD PUSH1 0x40 MSTORE DUP1 PUSH1 0xD DUP2 MSTORE PUSH1 0x20 ADD PUSH32 0x447261676F6E20536869656C6400000000000000000000000000000000000000 DUP2 MSTORE POP DUP2 MSTORE PUSH1 0x20 ADD PUSH1 0x3 DUP2 MSTORE POP PUSH1 0x5 PUSH0 PUSH1 0x1 DUP2 MSTORE PUSH1 0x20 ADD SWAP1 DUP2 MSTORE PUSH1 0x20 ADD PUSH0 KECCAK256 PUSH0 DUP3 ADD MLOAD DUP2 PUSH0 ADD SWAP1 DUP2 PUSH2 0x1CA SWAP2 SWAP1 PUSH2 0x495 JUMP JUMPDEST POP PUSH1 0x20 DUP3 ADD MLOAD DUP2 PUSH1 0x1 ADD SSTORE SWAP1 POP POP PUSH1 0x40 MLOAD DUP1 PUSH1 0x40 ADD PUSH1 0x40 MSTORE DUP1 PUSH1 0x40 MLOAD DUP1 PUSH1 0x40 ADD PUSH1 0x40 MSTORE DUP1 PUSH1 0x8 DUP2 MSTORE PUSH1 0x20 ADD PUSH32 0x474F442048414E44000000000000000000000000000000000000000000000000 DUP2 MSTORE POP DUP2 MSTORE PUSH1 0x20 ADD PUSH1 0x5 DUP2 MSTORE POP PUSH1 0x5 PUSH0 PUSH1 0x2 DUP2 MSTORE PUSH1 0x20 ADD SWAP1 DUP2 MSTORE PUSH1 0x20 ADD PUSH0 KECCAK256 PUSH0 DUP3 ADD MLOAD DUP2 PUSH0 ADD SWAP1 DUP2 PUSH2 0x248 SWAP2 SWAP1 PUSH2 0x495 JUMP JUMPDEST POP PUSH1 0x20 DUP3 ADD MLOAD DUP2 PUSH1 0x1 ADD SSTORE SWAP1 POP POP PUSH2 0x564 JUMP JUMPDEST PUSH0 DUP2 MLOAD SWAP1 POP SWAP2 SWAP1 POP JUMP JUMPDEST PUSH32 0x4E487B7100000000000000000000000000000000000000000000000000000000 PUSH0 MSTORE PUSH1 0x41 PUSH1 0x4 MSTORE PUSH1 0x24 PUSH0 REVERT JUMPDEST PUSH32 0x4E487B7100000000000000000000000000000000000000000000000000000000 PUSH0 MSTORE PUSH1 0x22 PUSH1 0x4 MSTORE PUSH1 0x24 PUSH0 REVERT JUMPDEST PUSH0 PUSH1 0x2 DUP3 DIV SWAP1 POP PUSH1 0x1 DUP3 AND DUP1 PUSH2 0x2D6 JUMPI PUSH1 0x7F DUP3 AND SWAP2 POP JUMPDEST PUSH1 0x20 DUP3 LT DUP2 SUB PUSH2 0x2E9 JUMPI PUSH2 0x2E8 PUSH2 0x292 JUMP JUMPDEST JUMPDEST POP SWAP2 SWAP1 POP JUMP JUMPDEST PUSH0 DUP2 SWAP1 POP DUP2 PUSH0 MSTORE PUSH1 0x20 PUSH0 KECCAK256 SWAP1 POP SWAP2 SWAP1 POP JUMP JUMPDEST PUSH0 PUSH1 0x20 PUSH1 0x1F DUP4 ADD DIV SWAP1 POP SWAP2 SWAP1 POP JUMP JUMPDEST PUSH0 DUP3 DUP3 SHL SWAP1 POP SWAP3 SWAP2 POP POP JUMP JUMPDEST PUSH0 PUSH1 0x8 DUP4 MUL PUSH2 0x34B PUSH32 0xFFFFFFFFFFFFFFFFFFFFFFFFFFFFFFFFFFFFFFFFFFFFFFFFFFFFFFFFFFFFFFFF DUP3 PUSH2 0x310 JUMP JUMPDEST PUSH2 0x355 DUP7 DUP4 PUSH2 0x310 JUMP JUMPDEST SWAP6 POP DUP1 NOT DUP5 AND SWAP4 POP DUP1 DUP7 AND DUP5 OR SWAP3 POP POP POP SWAP4 SWAP3 POP POP POP JUMP JUMPDEST PUSH0 DUP2 SWAP1 POP SWAP2 SWAP1 POP JUMP JUMPDEST PUSH0 DUP2 SWAP1 POP SWAP2 SWAP1 POP JUMP JUMPDEST PUSH0 PUSH2 0x399 PUSH2 0x394 PUSH2 0x38F DUP5 PUSH2 0x36D JUMP JUMPDEST PUSH2 0x376 JUMP JUMPDEST PUSH2 0x36D JUMP JUMPDEST SWAP1 POP SWAP2 SWAP1 POP JUMP JUMPDEST PUSH0 DUP2 SWAP1 POP SWAP2 SWAP1 POP JUMP JUMPDEST PUSH2 0x3B2 DUP4 PUSH2 0x37F JUMP JUMPDEST PUSH2 0x3C6 PUSH2 0x3BE DUP3 PUSH2 0x3A0 JUMP JUMPDEST DUP5 DUP5 SLOAD PUSH2 0x31C JUMP JUMPDEST DUP3 SSTORE POP POP POP POP JUMP JUMPDEST PUSH0 SWAP1 JUMP JUMPDEST PUSH2 0x3DA PUSH2 0x3CE JUMP JUMPDEST PUSH2 0x3E5 DUP2 DUP5 DUP5 PUSH2 0x3A9 JUMP JUMPDEST POP POP POP JUMP JUMPDEST JUMPDEST DUP2 DUP2 LT ISZERO PUSH2 0x408 JUMPI PUSH2 0x3FD PUSH0 DUP3 PUSH2 0x3D2 JUMP JUMPDEST PUSH1 0x1 DUP2 ADD SWAP1 POP PUSH2 0x3EB JUMP JUMPDEST POP POP JUMP JUMPDEST PUSH1 0x1F DUP3 GT ISZERO PUSH2 0x44D JUMPI PUSH2 0x41E DUP2 PUSH2 0x2EF JUMP JUMPDEST PUSH2 0x427 DUP5 PUSH2 0x301 JUMP JUMPDEST DUP2 ADD PUSH1 0x20 DUP6 LT ISZERO PUSH2 0x436 JUMPI DUP2 SWAP1 POP JUMPDEST PUSH2 0x44A PUSH2 0x442 DUP6 PUSH2 0x301 JUMP JUMPDEST DUP4 ADD DUP3 PUSH2 0x3EA JUMP JUMPDEST POP POP JUMPDEST POP POP POP JUMP JUMPDEST PUSH0 DUP3 DUP3 SHR SWAP1 POP SWAP3 SWAP2 POP POP JUMP JUMPDEST PUSH0 PUSH2 0x46D PUSH0 NOT DUP5 PUSH1 0x8 MUL PUSH2 0x452 JUMP JUMPDEST NOT DUP1 DUP4 AND SWAP2 POP POP SWAP3 SWAP2 POP POP JUMP JUMPDEST PUSH0 PUSH2 0x485 DUP4 DUP4 PUSH2 0x45E JUMP JUMPDEST SWAP2 POP DUP3 PUSH1 0x2 MUL DUP3 OR SWAP1 POP SWAP3 SWAP2 POP POP JUMP JUMPDEST PUSH2 0x49E DUP3 PUSH2 0x25B JUMP JUMPDEST PUSH8 0xFFFFFFFFFFFFFFFF DUP2 GT ISZERO PUSH2 0x4B7 JUMPI PUSH2 0x4B6 PUSH2 0x265 JUMP JUMPDEST JUMPDEST PUSH2 0x4C1 DUP3 SLOAD PUSH2 0x2BF JUMP JUMPDEST PUSH2 0x4CC DUP3 DUP3 DUP6 PUSH2 0x40C JUMP JUMPDEST PUSH0 PUSH1 0x20 SWAP1 POP PUSH1 0x1F DUP4 GT PUSH1 0x1 DUP2 EQ PUSH2 0x4FD JUMPI PUSH0 DUP5 ISZERO PUSH2 0x4EB JUMPI DUP3 DUP8 ADD MLOAD SWAP1 POP JUMPDEST PUSH2 0x4F5 DUP6 DUP3 PUSH2 0x47A JUMP JUMPDEST DUP7 SSTORE POP PUSH2 0x55C JUMP JUMPDEST PUSH1 0x1F NOT DUP5 AND PUSH2 0x50B DUP7 PUSH2 0x2EF JUMP JUMPDEST PUSH0 JUMPDEST DUP3 DUP2 LT ISZERO PUSH2 0x532 JUMPI DUP5 DUP10 ADD MLOAD DUP3 SSTORE PUSH1 0x1 DUP3 ADD SWAP2 POP PUSH1 0x20 DUP6 ADD SWAP5 POP PUSH1 0x20 DUP2 ADD SWAP1 POP PUSH2 0x50D JUMP JUMPDEST DUP7 DUP4 LT ISZERO PUSH2 0x54F JUMPI DUP5 DUP10 ADD MLOAD PUSH2 0x54B PUSH1 0x1F DUP10 AND DUP3 PUSH2 0x45E JUMP JUMPDEST DUP4 SSTORE POP JUMPDEST PUSH1 0x1 PUSH1 0x2 DUP9 MUL ADD DUP9 SSTORE POP POP POP JUMPDEST POP POP POP POP POP POP JUMP JUMPDEST PUSH2 0x179C DUP1 PUSH2 0x571 PUSH0 CODECOPY PUSH0 RETURN INVALID PUSH1 0x80 PUSH1 0x40 MSTORE CALLVALUE DUP1 ISZERO PUSH2 0xF JUMPI PUSH0 DUP1 REVERT JUMPDEST POP PUSH1 0x4 CALLDATASIZE LT PUSH2 0xB2 JUMPI PUSH0 CALLDATALOAD PUSH1 0xE0 SHR DUP1 PUSH4 0xB6D7855A GT PUSH2 0x6F JUMPI DUP1 PUSH4 0xB6D7855A EQ PUSH2 0x18B JUMPI DUP1 PUSH4 0xB7760C8F EQ PUSH2 0x1A9 JUMPI DUP1 PUSH4 0xC00AA3A5 EQ PUSH2 0x1C5 JUMPI DUP1 PUSH4 0xDB006A75 EQ PUSH2 0x1F5 JUMPI DUP1 PUSH4 0xEE07BF22 EQ PUSH2 0x225 JUMPI DUP1 PUSH4 0xF8F4B574 EQ PUSH2 0x243 JUMPI PUSH2 0xB2 JUMP JUMPDEST DUP1 PUSH4 0x3045AAF3 EQ PUSH2 0xB6 JUMPI DUP1 PUSH4 0x37FA221B EQ PUSH2 0xD4 JUMPI DUP1 PUSH4 0x3AC0594A EQ PUSH2 0xF2 JUMPI DUP1 PUSH4 0x42966C68 EQ PUSH2 0x123 JUMPI DUP1 PUSH4 0x6428F530 EQ PUSH2 0x13F JUMPI DUP1 PUSH4 0x94BF804D EQ PUSH2 0x16F JUMPI JUMPDEST PUSH0 DUP1 REVERT JUMPDEST PUSH2 0xBE PUSH2 0x273 JUMP JUMPDEST PUSH1 0x40 MLOAD PUSH2 0xCB SWAP2 SWAP1 PUSH2 0xD9A JUMP JUMPDEST PUSH1 0x40 MLOAD DUP1 SWAP2 SUB SWAP1 RETURN JUMPDEST PUSH2 0xDC PUSH2 0x2FF JUMP JUMPDEST PUSH1 0x40 MLOAD PUSH2 0xE9 SWAP2 SWAP1 PUSH2 0xDF9 JUMP JUMPDEST PUSH1 0x40 MLOAD DUP1 SWAP2 SUB SWAP1 RETURN JUMPDEST PUSH2 0x10C PUSH1 0x4 DUP1 CALLDATASIZE SUB DUP2 ADD SWAP1 PUSH2 0x107 SWAP2 SWAP1 PUSH2 0xE49 JUMP JUMPDEST PUSH2 0x322 JUMP JUMPDEST PUSH1 0x40 MLOAD PUSH2 0x11A SWAP3 SWAP2 SWAP1 PUSH2 0xE83 JUMP JUMPDEST PUSH1 0x40 MLOAD DUP1 SWAP2 SUB SWAP1 RETURN JUMPDEST PUSH2 0x13D PUSH1 0x4 DUP1 CALLDATASIZE SUB DUP2 ADD SWAP1 PUSH2 0x138 SWAP2 SWAP1 PUSH2 0xE49 JUMP JUMPDEST PUSH2 0x3C8 JUMP JUMPDEST STOP JUMPDEST PUSH2 0x159 PUSH1 0x4 DUP1 CALLDATASIZE SUB DUP2 ADD SWAP1 PUSH2 0x154 SWAP2 SWAP1 PUSH2 0xEDB JUMP JUMPDEST PUSH2 0x4D5 JUMP JUMPDEST PUSH1 0x40 MLOAD PUSH2 0x166 SWAP2 SWAP1 PUSH2 0xF06 JUMP JUMPDEST PUSH1 0x40 MLOAD DUP1 SWAP2 SUB SWAP1 RETURN JUMPDEST PUSH2 0x189 PUSH1 0x4 DUP1 CALLDATASIZE SUB DUP2 ADD SWAP1 PUSH2 0x184 SWAP2 SWAP1 PUSH2 0xF1F JUMP JUMPDEST PUSH2 0x51B JUMP JUMPDEST STOP JUMPDEST PUSH2 0x193 PUSH2 0x68C JUMP JUMPDEST PUSH1 0x40 MLOAD PUSH2 0x1A0 SWAP2 SWAP1 PUSH2 0xD9A JUMP JUMPDEST PUSH1 0x40 MLOAD DUP1 SWAP2 SUB SWAP1 RETURN JUMPDEST PUSH2 0x1C3 PUSH1 0x4 DUP1 CALLDATASIZE SUB DUP2 ADD SWAP1 PUSH2 0x1BE SWAP2 SWAP1 PUSH2 0xF1F JUMP JUMPDEST PUSH2 0x718 JUMP JUMPDEST STOP JUMPDEST PUSH2 0x1DF PUSH1 0x4 DUP1 CALLDATASIZE SUB DUP2 ADD SWAP1 PUSH2 0x1DA SWAP2 SWAP1 PUSH2 0xF5D JUMP JUMPDEST PUSH2 0x8B0 JUMP JUMPDEST PUSH1 0x40 MLOAD PUSH2 0x1EC SWAP2 SWAP1 PUSH2 0xD9A JUMP JUMPDEST PUSH1 0x40 MLOAD DUP1 SWAP2 SUB SWAP1 RETURN JUMPDEST PUSH2 0x20F PUSH1 0x4 DUP1 CALLDATASIZE SUB DUP2 ADD SWAP1 PUSH2 0x20A SWAP2 SWAP1 PUSH2 0xE49 JUMP JUMPDEST PUSH2 0x961 JUMP JUMPDEST PUSH1 0x40 MLOAD PUSH2 0x21C SWAP2 SWAP1 PUSH2 0xD9A JUMP JUMPDEST PUSH1 0x40 MLOAD DUP1 SWAP2 SUB SWAP1 RETURN JUMPDEST PUSH2 0x22D PUSH2 0xC13 JUMP JUMPDEST PUSH1 0x40 MLOAD PUSH2 0x23A SWAP2 SWAP1 PUSH2 0xF06 JUMP JUMPDEST PUSH1 0x40 MLOAD DUP1 SWAP2 SUB SWAP1 RETURN JUMPDEST PUSH2 0x25D PUSH1 0x4 DUP1 CALLDATASIZE SUB DUP2 ADD SWAP1 PUSH2 0x258 SWAP2 SWAP1 PUSH2 0xEDB JUMP JUMPDEST PUSH2 0xC19 JUMP JUMPDEST PUSH1 0x40 MLOAD PUSH2 0x26A SWAP2 SWAP1 PUSH2 0x109E JUMP JUMPDEST PUSH1 0x40 MLOAD DUP1 SWAP2 SUB SWAP1 RETURN JUMPDEST PUSH1 0x2 DUP1 SLOAD PUSH2 0x280 SWAP1 PUSH2 0x10EB JUMP JUMPDEST DUP1 PUSH1 0x1F ADD PUSH1 0x20 DUP1 SWAP2 DIV MUL PUSH1 0x20 ADD PUSH1 0x40 MLOAD SWAP1 DUP2 ADD PUSH1 0x40 MSTORE DUP1 SWAP3 SWAP2 SWAP1 DUP2 DUP2 MSTORE PUSH1 0x20 ADD DUP3 DUP1 SLOAD PUSH2 0x2AC SWAP1 PUSH2 0x10EB JUMP JUMPDEST DUP1 ISZERO PUSH2 0x2F7 JUMPI DUP1 PUSH1 0x1F LT PUSH2 0x2CE JUMPI PUSH2 0x100 DUP1 DUP4 SLOAD DIV MUL DUP4 MSTORE SWAP2 PUSH1 0x20 ADD SWAP2 PUSH2 0x2F7 JUMP JUMPDEST DUP3 ADD SWAP2 SWAP1 PUSH0 MSTORE PUSH1 0x20 PUSH0 KECCAK256 SWAP1 JUMPDEST DUP2 SLOAD DUP2 MSTORE SWAP1 PUSH1 0x1 ADD SWAP1 PUSH1 0x20 ADD DUP1 DUP4 GT PUSH2 0x2DA JUMPI DUP3 SWAP1 SUB PUSH1 0x1F AND DUP3 ADD SWAP2 JUMPDEST POP POP POP POP POP DUP2 JUMP JUMPDEST PUSH0 DUP1 SLOAD SWAP1 PUSH2 0x100 EXP SWAP1 DIV PUSH20 0xFFFFFFFFFFFFFFFFFFFFFFFFFFFFFFFFFFFFFFFF AND DUP2 JUMP JUMPDEST PUSH1 0x5 PUSH1 0x20 MSTORE DUP1 PUSH0 MSTORE PUSH1 0x40 PUSH0 KECCAK256 PUSH0 SWAP2 POP SWAP1 POP DUP1 PUSH0 ADD DUP1 SLOAD PUSH2 0x341 SWAP1 PUSH2 0x10EB JUMP JUMPDEST DUP1 PUSH1 0x1F ADD PUSH1 0x20 DUP1 SWAP2 DIV MUL PUSH1 0x20 ADD PUSH1 0x40 MLOAD SWAP1 DUP2 ADD PUSH1 0x40 MSTORE DUP1 SWAP3 SWAP2 SWAP1 DUP2 DUP2 MSTORE PUSH1 0x20 ADD DUP3 DUP1 SLOAD PUSH2 0x36D SWAP1 PUSH2 0x10EB JUMP JUMPDEST DUP1 ISZERO PUSH2 0x3B8 JUMPI DUP1 PUSH1 0x1F LT PUSH2 0x38F JUMPI PUSH2 0x100 DUP1 DUP4 SLOAD DIV MUL DUP4 MSTORE SWAP2 PUSH1 0x20 ADD SWAP2 PUSH2 0x3B8 JUMP JUMPDEST DUP3 ADD SWAP2 SWAP1 PUSH0 MSTORE PUSH1 0x20 PUSH0 KECCAK256 SWAP1 JUMPDEST DUP2 SLOAD DUP2 MSTORE SWAP1 PUSH1 0x1 ADD SWAP1 PUSH1 0x20 ADD DUP1 DUP4 GT PUSH2 0x39B JUMPI DUP3 SWAP1 SUB PUSH1 0x1F AND DUP3 ADD SWAP2 JUMPDEST POP POP POP POP POP SWAP1 DUP1 PUSH1 0x1 ADD SLOAD SWAP1 POP DUP3 JUMP JUMPDEST PUSH1 0x4 PUSH0 CALLER PUSH20 0xFFFFFFFFFFFFFFFFFFFFFFFFFFFFFFFFFFFFFFFF AND PUSH20 0xFFFFFFFFFFFFFFFFFFFFFFFFFFFFFFFFFFFFFFFF AND DUP2 MSTORE PUSH1 0x20 ADD SWAP1 DUP2 MSTORE PUSH1 0x20 ADD PUSH0 KECCAK256 SLOAD DUP2 GT ISZERO PUSH2 0x448 JUMPI PUSH1 0x40 MLOAD PUSH32 0x8C379A000000000000000000000000000000000000000000000000000000000 DUP2 MSTORE PUSH1 0x4 ADD PUSH2 0x43F SWAP1 PUSH2 0x1165 JUMP JUMPDEST PUSH1 0x40 MLOAD DUP1 SWAP2 SUB SWAP1 REVERT JUMPDEST DUP1 PUSH1 0x4 PUSH0 CALLER PUSH20 0xFFFFFFFFFFFFFFFFFFFFFFFFFFFFFFFFFFFFFFFF AND PUSH20 0xFFFFFFFFFFFFFFFFFFFFFFFFFFFFFFFFFFFFFFFF AND DUP2 MSTORE PUSH1 0x20 ADD SWAP1 DUP2 MSTORE PUSH1 0x20 ADD PUSH0 KECCAK256 SLOAD PUSH2 0x491 SWAP2 SWAP1 PUSH2 0x11B0 JUMP JUMPDEST PUSH1 0x4 PUSH0 CALLER PUSH20 0xFFFFFFFFFFFFFFFFFFFFFFFFFFFFFFFFFFFFFFFF AND PUSH20 0xFFFFFFFFFFFFFFFFFFFFFFFFFFFFFFFFFFFFFFFF AND DUP2 MSTORE PUSH1 0x20 ADD SWAP1 DUP2 MSTORE PUSH1 0x20 ADD PUSH0 KECCAK256 DUP2 SWAP1 SSTORE POP POP JUMP JUMPDEST PUSH0 PUSH1 0x4 PUSH0 DUP4 PUSH20 0xFFFFFFFFFFFFFFFFFFFFFFFFFFFFFFFFFFFFFFFF AND PUSH20 0xFFFFFFFFFFFFFFFFFFFFFFFFFFFFFFFFFFFFFFFF AND DUP2 MSTORE PUSH1 0x20 ADD SWAP1 DUP2 MSTORE PUSH1 0x20 ADD PUSH0 KECCAK256 SLOAD SWAP1 POP SWAP2 SWAP1 POP JUMP JUMPDEST PUSH0 DUP1 SLOAD SWAP1 PUSH2 0x100 EXP SWAP1 DIV PUSH20 0xFFFFFFFFFFFFFFFFFFFFFFFFFFFFFFFFFFFFFFFF AND PUSH20 0xFFFFFFFFFFFFFFFFFFFFFFFFFFFFFFFFFFFFFFFF AND CALLER PUSH20 0xFFFFFFFFFFFFFFFFFFFFFFFFFFFFFFFFFFFFFFFF AND EQ PUSH2 0x5A8 JUMPI PUSH1 0x40 MLOAD PUSH32 0x8C379A000000000000000000000000000000000000000000000000000000000 DUP2 MSTORE PUSH1 0x4 ADD PUSH2 0x59F SWAP1 PUSH2 0x1253 JUMP JUMPDEST PUSH1 0x40 MLOAD DUP1 SWAP2 SUB SWAP1 REVERT JUMPDEST PUSH0 DUP3 GT PUSH2 0x5EA JUMPI PUSH1 0x40 MLOAD PUSH32 0x8C379A000000000000000000000000000000000000000000000000000000000 DUP2 MSTORE PUSH1 0x4 ADD PUSH2 0x5E1 SWAP1 PUSH2 0x12E1 JUMP JUMPDEST PUSH1 0x40 MLOAD DUP1 SWAP2 SUB SWAP1 REVERT JUMPDEST DUP2 PUSH1 0x3 SLOAD PUSH2 0x5F8 SWAP2 SWAP1 PUSH2 0x12FF JUMP JUMPDEST PUSH1 0x3 DUP2 SWAP1 SSTORE POP DUP2 PUSH1 0x4 PUSH0 DUP4 PUSH20 0xFFFFFFFFFFFFFFFFFFFFFFFFFFFFFFFFFFFFFFFF AND PUSH20 0xFFFFFFFFFFFFFFFFFFFFFFFFFFFFFFFFFFFFFFFF AND DUP2 MSTORE PUSH1 0x20 ADD SWAP1 DUP2 MSTORE PUSH1 0x20 ADD PUSH0 KECCAK256 SLOAD PUSH2 0x647 SWAP2 SWAP1 PUSH2 0x12FF JUMP JUMPDEST PUSH1 0x4 PUSH0 DUP4 PUSH20 0xFFFFFFFFFFFFFFFFFFFFFFFFFFFFFFFFFFFFFFFF AND PUSH20 0xFFFFFFFFFFFFFFFFFFFFFFFFFFFFFFFFFFFFFFFF AND DUP2 MSTORE PUSH1 0x20 ADD SWAP1 DUP2 MSTORE PUSH1 0x20 ADD PUSH0 KECCAK256 DUP2 SWAP1 SSTORE POP POP POP JUMP JUMPDEST PUSH1 0x1 DUP1 SLOAD PUSH2 0x699 SWAP1 PUSH2 0x10EB JUMP JUMPDEST DUP1 PUSH1 0x1F ADD PUSH1 0x20 DUP1 SWAP2 DIV MUL PUSH1 0x20 ADD PUSH1 0x40 MLOAD SWAP1 DUP2 ADD PUSH1 0x40 MSTORE DUP1 SWAP3 SWAP2 SWAP1 DUP2 DUP2 MSTORE PUSH1 0x20 ADD DUP3 DUP1 SLOAD PUSH2 0x6C5 SWAP1 PUSH2 0x10EB JUMP JUMPDEST DUP1 ISZERO PUSH2 0x710 JUMPI DUP1 PUSH1 0x1F LT PUSH2 0x6E7 JUMPI PUSH2 0x100 DUP1 DUP4 SLOAD DIV MUL DUP4 MSTORE SWAP2 PUSH1 0x20 ADD SWAP2 PUSH2 0x710 JUMP JUMPDEST DUP3 ADD SWAP2 SWAP1 PUSH0 MSTORE PUSH1 0x20 PUSH0 KECCAK256 SWAP1 JUMPDEST DUP2 SLOAD DUP2 MSTORE SWAP1 PUSH1 0x1 ADD SWAP1 PUSH1 0x20 ADD DUP1 DUP4 GT PUSH2 0x6F3 JUMPI DUP3 SWAP1 SUB PUSH1 0x1F AND DUP3 ADD SWAP2 JUMPDEST POP POP POP POP POP DUP2 JUMP JUMPDEST PUSH1 0x4 PUSH0 CALLER PUSH20 0xFFFFFFFFFFFFFFFFFFFFFFFFFFFFFFFFFFFFFFFF AND PUSH20 0xFFFFFFFFFFFFFFFFFFFFFFFFFFFFFFFFFFFFFFFF AND DUP2 MSTORE PUSH1 0x20 ADD SWAP1 DUP2 MSTORE PUSH1 0x20 ADD PUSH0 KECCAK256 SLOAD DUP3 GT ISZERO PUSH2 0x798 JUMPI PUSH1 0x40 MLOAD PUSH32 0x8C379A000000000000000000000000000000000000000000000000000000000 DUP2 MSTORE PUSH1 0x4 ADD PUSH2 0x78F SWAP1 PUSH2 0x13A2 JUMP JUMPDEST PUSH1 0x40 MLOAD DUP1 SWAP2 SUB SWAP1 REVERT JUMPDEST DUP2 PUSH1 0x4 PUSH0 DUP4 PUSH20 0xFFFFFFFFFFFFFFFFFFFFFFFFFFFFFFFFFFFFFFFF AND PUSH20 0xFFFFFFFFFFFFFFFFFFFFFFFFFFFFFFFFFFFFFFFF AND DUP2 MSTORE PUSH1 0x20 ADD SWAP1 DUP2 MSTORE PUSH1 0x20 ADD PUSH0 KECCAK256 SLOAD PUSH2 0x7E1 SWAP2 SWAP1 PUSH2 0x12FF JUMP JUMPDEST PUSH1 0x4 PUSH0 DUP4 PUSH20 0xFFFFFFFFFFFFFFFFFFFFFFFFFFFFFFFFFFFFFFFF AND PUSH20 0xFFFFFFFFFFFFFFFFFFFFFFFFFFFFFFFFFFFFFFFF AND DUP2 MSTORE PUSH1 0x20 ADD SWAP1 DUP2 MSTORE PUSH1 0x20 ADD PUSH0 KECCAK256 DUP2 SWAP1 SSTORE POP DUP2 PUSH1 0x4 PUSH0 CALLER PUSH20 0xFFFFFFFFFFFFFFFFFFFFFFFFFFFFFFFFFFFFFFFF AND PUSH20 0xFFFFFFFFFFFFFFFFFFFFFFFFFFFFFFFFFFFFFFFF AND DUP2 MSTORE PUSH1 0x20 ADD SWAP1 DUP2 MSTORE PUSH1 0x20 ADD PUSH0 KECCAK256 SLOAD PUSH2 0x86B SWAP2 SWAP1 PUSH2 0x11B0 JUMP JUMPDEST PUSH1 0x4 PUSH0 CALLER PUSH20 0xFFFFFFFFFFFFFFFFFFFFFFFFFFFFFFFFFFFFFFFF AND PUSH20 0xFFFFFFFFFFFFFFFFFFFFFFFFFFFFFFFFFFFFFFFF AND DUP2 MSTORE PUSH1 0x20 ADD SWAP1 DUP2 MSTORE PUSH1 0x20 ADD PUSH0 KECCAK256 DUP2 SWAP1 SSTORE POP POP POP JUMP JUMPDEST PUSH1 0x6 PUSH1 0x20 MSTORE DUP2 PUSH0 MSTORE PUSH1 0x40 PUSH0 KECCAK256 DUP2 DUP2 SLOAD DUP2 LT PUSH2 0x8C9 JUMPI PUSH0 DUP1 REVERT JUMPDEST SWAP1 PUSH0 MSTORE PUSH1 0x20 PUSH0 KECCAK256 ADD PUSH0 SWAP2 POP SWAP2 POP POP DUP1 SLOAD PUSH2 0x8E2 SWAP1 PUSH2 0x10EB JUMP JUMPDEST DUP1 PUSH1 0x1F ADD PUSH1 0x20 DUP1 SWAP2 DIV MUL PUSH1 0x20 ADD PUSH1 0x40 MLOAD SWAP1 DUP2 ADD PUSH1 0x40 MSTORE DUP1 SWAP3 SWAP2 SWAP1 DUP2 DUP2 MSTORE PUSH1 0x20 ADD DUP3 DUP1 SLOAD PUSH2 0x90E SWAP1 PUSH2 0x10EB JUMP JUMPDEST DUP1 ISZERO PUSH2 0x959 JUMPI DUP1 PUSH1 0x1F LT PUSH2 0x930 JUMPI PUSH2 0x100 DUP1 DUP4 SLOAD DIV MUL DUP4 MSTORE SWAP2 PUSH1 0x20 ADD SWAP2 PUSH2 0x959 JUMP JUMPDEST DUP3 ADD SWAP2 SWAP1 PUSH0 MSTORE PUSH1 0x20 PUSH0 KECCAK256 SWAP1 JUMPDEST DUP2 SLOAD DUP2 MSTORE SWAP1 PUSH1 0x1 ADD SWAP1 PUSH1 0x20 ADD DUP1 DUP4 GT PUSH2 0x93C JUMPI DUP3 SWAP1 SUB PUSH1 0x1F AND DUP3 ADD SWAP2 JUMPDEST POP POP POP POP POP DUP2 JUMP JUMPDEST PUSH1 0x60 PUSH1 0x4 PUSH0 CALLER PUSH20 0xFFFFFFFFFFFFFFFFFFFFFFFFFFFFFFFFFFFFFFFF AND PUSH20 0xFFFFFFFFFFFFFFFFFFFFFFFFFFFFFFFFFFFFFFFF AND DUP2 MSTORE PUSH1 0x20 ADD SWAP1 DUP2 MSTORE PUSH1 0x20 ADD PUSH0 KECCAK256 SLOAD PUSH1 0x5 PUSH0 DUP5 DUP2 MSTORE PUSH1 0x20 ADD SWAP1 DUP2 MSTORE PUSH1 0x20 ADD PUSH0 KECCAK256 PUSH1 0x1 ADD SLOAD GT ISZERO PUSH2 0x9F7 JUMPI PUSH1 0x40 MLOAD PUSH32 0x8C379A000000000000000000000000000000000000000000000000000000000 DUP2 MSTORE PUSH1 0x4 ADD PUSH2 0x9EE SWAP1 PUSH2 0x140A JUMP JUMPDEST PUSH1 0x40 MLOAD DUP1 SWAP2 SUB SWAP1 REVERT JUMPDEST PUSH0 DUP3 EQ ISZERO DUP1 ISZERO PUSH2 0xA08 JUMPI POP PUSH1 0x1 DUP3 EQ ISZERO JUMPDEST DUP1 ISZERO PUSH2 0xA15 JUMPI POP PUSH1 0x2 DUP3 EQ ISZERO JUMPDEST ISZERO PUSH2 0xA55 JUMPI PUSH1 0x40 MLOAD PUSH32 0x8C379A000000000000000000000000000000000000000000000000000000000 DUP2 MSTORE PUSH1 0x4 ADD PUSH2 0xA4C SWAP1 PUSH2 0x1472 JUMP JUMPDEST PUSH1 0x40 MLOAD DUP1 SWAP2 SUB SWAP1 REVERT JUMPDEST PUSH1 0x6 PUSH0 CALLER PUSH20 0xFFFFFFFFFFFFFFFFFFFFFFFFFFFFFFFFFFFFFFFF AND PUSH20 0xFFFFFFFFFFFFFFFFFFFFFFFFFFFFFFFFFFFFFFFF AND DUP2 MSTORE PUSH1 0x20 ADD SWAP1 DUP2 MSTORE PUSH1 0x20 ADD PUSH0 KECCAK256 PUSH1 0x5 PUSH0 DUP5 DUP2 MSTORE PUSH1 0x20 ADD SWAP1 DUP2 MSTORE PUSH1 0x20 ADD PUSH0 KECCAK256 PUSH0 ADD SWAP1 DUP1 PUSH1 0x1 DUP2 SLOAD ADD DUP1 DUP3 SSTORE DUP1 SWAP2 POP POP PUSH1 0x1 SWAP1 SUB SWAP1 PUSH0 MSTORE PUSH1 0x20 PUSH0 KECCAK256 ADD PUSH0 SWAP1 SWAP2 SWAP1 SWAP2 SWAP1 SWAP2 POP SWAP1 DUP2 PUSH2 0xAD3 SWAP2 SWAP1 PUSH2 0x1681 JUMP JUMPDEST POP PUSH1 0x5 PUSH0 DUP4 DUP2 MSTORE PUSH1 0x20 ADD SWAP1 DUP2 MSTORE PUSH1 0x20 ADD PUSH0 KECCAK256 PUSH1 0x1 ADD SLOAD PUSH1 0x4 PUSH0 CALLER PUSH20 0xFFFFFFFFFFFFFFFFFFFFFFFFFFFFFFFFFFFFFFFF AND PUSH20 0xFFFFFFFFFFFFFFFFFFFFFFFFFFFFFFFFFFFFFFFF AND DUP2 MSTORE PUSH1 0x20 ADD SWAP1 DUP2 MSTORE PUSH1 0x20 ADD PUSH0 KECCAK256 SLOAD PUSH2 0xB31 SWAP2 SWAP1 PUSH2 0x11B0 JUMP JUMPDEST PUSH1 0x4 PUSH0 CALLER PUSH20 0xFFFFFFFFFFFFFFFFFFFFFFFFFFFFFFFFFFFFFFFF AND PUSH20 0xFFFFFFFFFFFFFFFFFFFFFFFFFFFFFFFFFFFFFFFF AND DUP2 MSTORE PUSH1 0x20 ADD SWAP1 DUP2 MSTORE PUSH1 0x20 ADD PUSH0 KECCAK256 DUP2 SWAP1 SSTORE POP PUSH1 0x5 PUSH0 DUP4 DUP2 MSTORE PUSH1 0x20 ADD SWAP1 DUP2 MSTORE PUSH1 0x20 ADD PUSH0 KECCAK256 PUSH0 ADD DUP1 SLOAD PUSH2 0xB90 SWAP1 PUSH2 0x10EB JUMP JUMPDEST DUP1 PUSH1 0x1F ADD PUSH1 0x20 DUP1 SWAP2 DIV MUL PUSH1 0x20 ADD PUSH1 0x40 MLOAD SWAP1 DUP2 ADD PUSH1 0x40 MSTORE DUP1 SWAP3 SWAP2 SWAP1 DUP2 DUP2 MSTORE PUSH1 0x20 ADD DUP3 DUP1 SLOAD PUSH2 0xBBC SWAP1 PUSH2 0x10EB JUMP JUMPDEST DUP1 ISZERO PUSH2 0xC07 JUMPI DUP1 PUSH1 0x1F LT PUSH2 0xBDE JUMPI PUSH2 0x100 DUP1 DUP4 SLOAD DIV MUL DUP4 MSTORE SWAP2 PUSH1 0x20 ADD SWAP2 PUSH2 0xC07 JUMP JUMPDEST DUP3 ADD SWAP2 SWAP1 PUSH0 MSTORE PUSH1 0x20 PUSH0 KECCAK256 SWAP1 JUMPDEST DUP2 SLOAD DUP2 MSTORE SWAP1 PUSH1 0x1 ADD SWAP1 PUSH1 0x20 ADD DUP1 DUP4 GT PUSH2 0xBEA JUMPI DUP3 SWAP1 SUB PUSH1 0x1F AND DUP3 ADD SWAP2 JUMPDEST POP POP POP POP POP SWAP1 POP SWAP2 SWAP1 POP JUMP JUMPDEST PUSH1 0x3 SLOAD DUP2 JUMP JUMPDEST PUSH1 0x60 PUSH1 0x6 PUSH0 DUP4 PUSH20 0xFFFFFFFFFFFFFFFFFFFFFFFFFFFFFFFFFFFFFFFF AND PUSH20 0xFFFFFFFFFFFFFFFFFFFFFFFFFFFFFFFFFFFFFFFF AND DUP2 MSTORE PUSH1 0x20 ADD SWAP1 DUP2 MSTORE PUSH1 0x20 ADD PUSH0 KECCAK256 DUP1 SLOAD DUP1 PUSH1 0x20 MUL PUSH1 0x20 ADD PUSH1 0x40 MLOAD SWAP1 DUP2 ADD PUSH1 0x40 MSTORE DUP1 SWAP3 SWAP2 SWAP1 DUP2 DUP2 MSTORE PUSH1 0x20 ADD PUSH0 SWAP1 JUMPDEST DUP3 DUP3 LT ISZERO PUSH2 0xD1F JUMPI DUP4 DUP3 SWAP1 PUSH0 MSTORE PUSH1 0x20 PUSH0 KECCAK256 ADD DUP1 SLOAD PUSH2 0xC94 SWAP1 PUSH2 0x10EB JUMP JUMPDEST DUP1 PUSH1 0x1F ADD PUSH1 0x20 DUP1 SWAP2 DIV MUL PUSH1 0x20 ADD PUSH1 0x40 MLOAD SWAP1 DUP2 ADD PUSH1 0x40 MSTORE DUP1 SWAP3 SWAP2 SWAP1 DUP2 DUP2 MSTORE PUSH1 0x20 ADD DUP3 DUP1 SLOAD PUSH2 0xCC0 SWAP1 PUSH2 0x10EB JUMP JUMPDEST DUP1 ISZERO PUSH2 0xD0B JUMPI DUP1 PUSH1 0x1F LT PUSH2 0xCE2 JUMPI PUSH2 0x100 DUP1 DUP4 SLOAD DIV MUL DUP4 MSTORE SWAP2 PUSH1 0x20 ADD SWAP2 PUSH2 0xD0B JUMP JUMPDEST DUP3 ADD SWAP2 SWAP1 PUSH0 MSTORE PUSH1 0x20 PUSH0 KECCAK256 SWAP1 JUMPDEST DUP2 SLOAD DUP2 MSTORE SWAP1 PUSH1 0x1 ADD SWAP1 PUSH1 0x20 ADD DUP1 DUP4 GT PUSH2 0xCEE JUMPI DUP3 SWAP1 SUB PUSH1 0x1F AND DUP3 ADD SWAP2 JUMPDEST POP POP POP POP POP DUP2 MSTORE PUSH1 0x20 ADD SWAP1 PUSH1 0x1 ADD SWAP1 PUSH2 0xC77 JUMP JUMPDEST POP POP POP POP SWAP1 POP SWAP2 SWAP1 POP JUMP JUMPDEST PUSH0 DUP2 MLOAD SWAP1 POP SWAP2 SWAP1 POP JUMP JUMPDEST PUSH0 DUP3 DUP3 MSTORE PUSH1 0x20 DUP3 ADD SWAP1 POP SWAP3 SWAP2 POP POP JUMP JUMPDEST DUP3 DUP2 DUP4 MCOPY PUSH0 DUP4 DUP4 ADD MSTORE POP POP POP JUMP JUMPDEST PUSH0 PUSH1 0x1F NOT PUSH1 0x1F DUP4 ADD AND SWAP1 POP SWAP2 SWAP1 POP JUMP JUMPDEST PUSH0 PUSH2 0xD6C DUP3 PUSH2 0xD2A JUMP JUMPDEST PUSH2 0xD76 DUP2 DUP6 PUSH2 0xD34 JUMP JUMPDEST SWAP4 POP PUSH2 0xD86 DUP2 DUP6 PUSH1 0x20 DUP7 ADD PUSH2 0xD44 JUMP JUMPDEST PUSH2 0xD8F DUP2 PUSH2 0xD52 JUMP JUMPDEST DUP5 ADD SWAP2 POP POP SWAP3 SWAP2 POP POP JUMP JUMPDEST PUSH0 PUSH1 0x20 DUP3 ADD SWAP1 POP DUP2 DUP2 SUB PUSH0 DUP4 ADD MSTORE PUSH2 0xDB2 DUP2 DUP5 PUSH2 0xD62 JUMP JUMPDEST SWAP1 POP SWAP3 SWAP2 POP POP JUMP JUMPDEST PUSH0 PUSH20 0xFFFFFFFFFFFFFFFFFFFFFFFFFFFFFFFFFFFFFFFF DUP3 AND SWAP1 POP SWAP2 SWAP1 POP JUMP JUMPDEST PUSH0 PUSH2 0xDE3 DUP3 PUSH2 0xDBA JUMP JUMPDEST SWAP1 POP SWAP2 SWAP1 POP JUMP JUMPDEST PUSH2 0xDF3 DUP2 PUSH2 0xDD9 JUMP JUMPDEST DUP3 MSTORE POP POP JUMP JUMPDEST PUSH0 PUSH1 0x20 DUP3 ADD SWAP1 POP PUSH2 0xE0C PUSH0 DUP4 ADD DUP5 PUSH2 0xDEA JUMP JUMPDEST SWAP3 SWAP2 POP POP JUMP JUMPDEST PUSH0 DUP1 REVERT JUMPDEST PUSH0 DUP2 SWAP1 POP SWAP2 SWAP1 POP JUMP JUMPDEST PUSH2 0xE28 DUP2 PUSH2 0xE16 JUMP JUMPDEST DUP2 EQ PUSH2 0xE32 JUMPI PUSH0 DUP1 REVERT JUMPDEST POP JUMP JUMPDEST PUSH0 DUP2 CALLDATALOAD SWAP1 POP PUSH2 0xE43 DUP2 PUSH2 0xE1F JUMP JUMPDEST SWAP3 SWAP2 POP POP JUMP JUMPDEST PUSH0 PUSH1 0x20 DUP3 DUP5 SUB SLT ISZERO PUSH2 0xE5E JUMPI PUSH2 0xE5D PUSH2 0xE12 JUMP JUMPDEST JUMPDEST PUSH0 PUSH2 0xE6B DUP5 DUP3 DUP6 ADD PUSH2 0xE35 JUMP JUMPDEST SWAP2 POP POP SWAP3 SWAP2 POP POP JUMP JUMPDEST PUSH2 0xE7D DUP2 PUSH2 0xE16 JUMP JUMPDEST DUP3 MSTORE POP POP JUMP JUMPDEST PUSH0 PUSH1 0x40 DUP3 ADD SWAP1 POP DUP2 DUP2 SUB PUSH0 DUP4 ADD MSTORE PUSH2 0xE9B DUP2 DUP6 PUSH2 0xD62 JUMP JUMPDEST SWAP1 POP PUSH2 0xEAA PUSH1 0x20 DUP4 ADD DUP5 PUSH2 0xE74 JUMP JUMPDEST SWAP4 SWAP3 POP POP POP JUMP JUMPDEST PUSH2 0xEBA DUP2 PUSH2 0xDD9 JUMP JUMPDEST DUP2 EQ PUSH2 0xEC4 JUMPI PUSH0 DUP1 REVERT JUMPDEST POP JUMP JUMPDEST PUSH0 DUP2 CALLDATALOAD SWAP1 POP PUSH2 0xED5 DUP2 PUSH2 0xEB1 JUMP JUMPDEST SWAP3 SWAP2 POP POP JUMP JUMPDEST PUSH0 PUSH1 0x20 DUP3 DUP5 SUB SLT ISZERO PUSH2 0xEF0 JUMPI PUSH2 0xEEF PUSH2 0xE12 JUMP JUMPDEST JUMPDEST PUSH0 PUSH2 0xEFD DUP5 DUP3 DUP6 ADD PUSH2 0xEC7 JUMP JUMPDEST SWAP2 POP POP SWAP3 SWAP2 POP POP JUMP JUMPDEST PUSH0 PUSH1 0x20 DUP3 ADD SWAP1 POP PUSH2 0xF19 PUSH0 DUP4 ADD DUP5 PUSH2 0xE74 JUMP JUMPDEST SWAP3 SWAP2 POP POP JUMP JUMPDEST PUSH0 DUP1 PUSH1 0x40 DUP4 DUP6 SUB SLT ISZERO PUSH2 0xF35 JUMPI PUSH2 0xF34 PUSH2 0xE12 JUMP JUMPDEST JUMPDEST PUSH0 PUSH2 0xF42 DUP6 DUP3 DUP7 ADD PUSH2 0xE35 JUMP JUMPDEST SWAP3 POP POP PUSH1 0x20 PUSH2 0xF53 DUP6 DUP3 DUP7 ADD PUSH2 0xEC7 JUMP JUMPDEST SWAP2 POP POP SWAP3 POP SWAP3 SWAP1 POP JUMP JUMPDEST PUSH0 DUP1 PUSH1 0x40 DUP4 DUP6 SUB SLT ISZERO PUSH2 0xF73 JUMPI PUSH2 0xF72 PUSH2 0xE12 JUMP JUMPDEST JUMPDEST PUSH0 PUSH2 0xF80 DUP6 DUP3 DUP7 ADD PUSH2 0xEC7 JUMP JUMPDEST SWAP3 POP POP PUSH1 0x20 PUSH2 0xF91 DUP6 DUP3 DUP7 ADD PUSH2 0xE35 JUMP JUMPDEST SWAP2 POP POP SWAP3 POP SWAP3 SWAP1 POP JUMP JUMPDEST PUSH0 DUP2 MLOAD SWAP1 POP SWAP2 SWAP1 POP JUMP JUMPDEST PUSH0 DUP3 DUP3 MSTORE PUSH1 0x20 DUP3 ADD SWAP1 POP SWAP3 SWAP2 POP POP JUMP JUMPDEST PUSH0 DUP2 SWAP1 POP PUSH1 0x20 DUP3 ADD SWAP1 POP SWAP2 SWAP1 POP JUMP JUMPDEST PUSH0 DUP3 DUP3 MSTORE PUSH1 0x20 DUP3 ADD SWAP1 POP SWAP3 SWAP2 POP POP JUMP JUMPDEST PUSH0 PUSH2 0xFDE DUP3 PUSH2 0xD2A JUMP JUMPDEST PUSH2 0xFE8 DUP2 DUP6 PUSH2 0xFC4 JUMP JUMPDEST SWAP4 POP PUSH2 0xFF8 DUP2 DUP6 PUSH1 0x20 DUP7 ADD PUSH2 0xD44 JUMP JUMPDEST PUSH2 0x1001 DUP2 PUSH2 0xD52 JUMP JUMPDEST DUP5 ADD SWAP2 POP POP SWAP3 SWAP2 POP POP JUMP JUMPDEST PUSH0 PUSH2 0x1017 DUP4 DUP4 PUSH2 0xFD4 JUMP JUMPDEST SWAP1 POP SWAP3 SWAP2 POP POP JUMP JUMPDEST PUSH0 PUSH1 0x20 DUP3 ADD SWAP1 POP SWAP2 SWAP1 POP JUMP JUMPDEST PUSH0 PUSH2 0x1035 DUP3 PUSH2 0xF9B JUMP JUMPDEST PUSH2 0x103F DUP2 DUP6 PUSH2 0xFA5 JUMP JUMPDEST SWAP4 POP DUP4 PUSH1 0x20 DUP3 MUL DUP6 ADD PUSH2 0x1051 DUP6 PUSH2 0xFB5 JUMP JUMPDEST DUP1 PUSH0 JUMPDEST DUP6 DUP2 LT ISZERO PUSH2 0x108C JUMPI DUP5 DUP5 SUB DUP10 MSTORE DUP2 MLOAD PUSH2 0x106D DUP6 DUP3 PUSH2 0x100C JUMP JUMPDEST SWAP5 POP PUSH2 0x1078 DUP4 PUSH2 0x101F JUMP JUMPDEST SWAP3 POP PUSH1 0x20 DUP11 ADD SWAP10 POP POP PUSH1 0x1 DUP2 ADD SWAP1 POP PUSH2 0x1054 JUMP JUMPDEST POP DUP3 SWAP8 POP DUP8 SWAP6 POP POP POP POP POP POP SWAP3 SWAP2 POP POP JUMP JUMPDEST PUSH0 PUSH1 0x20 DUP3 ADD SWAP1 POP DUP2 DUP2 SUB PUSH0 DUP4 ADD MSTORE PUSH2 0x10B6 DUP2 DUP5 PUSH2 0x102B JUMP JUMPDEST SWAP1 POP SWAP3 SWAP2 POP POP JUMP JUMPDEST PUSH32 0x4E487B7100000000000000000000000000000000000000000000000000000000 PUSH0 MSTORE PUSH1 0x22 PUSH1 0x4 MSTORE PUSH1 0x24 PUSH0 REVERT JUMPDEST PUSH0 PUSH1 0x2 DUP3 DIV SWAP1 POP PUSH1 0x1 DUP3 AND DUP1 PUSH2 0x1102 JUMPI PUSH1 0x7F DUP3 AND SWAP2 POP JUMPDEST PUSH1 0x20 DUP3 LT DUP2 SUB PUSH2 0x1115 JUMPI PUSH2 0x1114 PUSH2 0x10BE JUMP JUMPDEST JUMPDEST POP SWAP2 SWAP1 POP JUMP JUMPDEST PUSH32 0x416D6F756E742073686F756C64206E6F74206578636565642062616C616E6365 PUSH0 DUP3 ADD MSTORE POP JUMP JUMPDEST PUSH0 PUSH2 0x114F PUSH1 0x20 DUP4 PUSH2 0xD34 JUMP JUMPDEST SWAP2 POP PUSH2 0x115A DUP3 PUSH2 0x111B JUMP JUMPDEST PUSH1 0x20 DUP3 ADD SWAP1 POP SWAP2 SWAP1 POP JUMP JUMPDEST PUSH0 PUSH1 0x20 DUP3 ADD SWAP1 POP DUP2 DUP2 SUB PUSH0 DUP4 ADD MSTORE PUSH2 0x117C DUP2 PUSH2 0x1143 JUMP JUMPDEST SWAP1 POP SWAP2 SWAP1 POP JUMP JUMPDEST PUSH32 0x4E487B7100000000000000000000000000000000000000000000000000000000 PUSH0 MSTORE PUSH1 0x11 PUSH1 0x4 MSTORE PUSH1 0x24 PUSH0 REVERT JUMPDEST PUSH0 PUSH2 0x11BA DUP3 PUSH2 0xE16 JUMP JUMPDEST SWAP2 POP PUSH2 0x11C5 DUP4 PUSH2 0xE16 JUMP JUMPDEST SWAP3 POP DUP3 DUP3 SUB SWAP1 POP DUP2 DUP2 GT ISZERO PUSH2 0x11DD JUMPI PUSH2 0x11DC PUSH2 0x1183 JUMP JUMPDEST JUMPDEST SWAP3 SWAP2 POP POP JUMP JUMPDEST PUSH32 0x436F6D6D616E642063656E746572206861732072696768747320746F206D696E PUSH0 DUP3 ADD MSTORE PUSH32 0x74206E657720746F6B656E000000000000000000000000000000000000000000 PUSH1 0x20 DUP3 ADD MSTORE POP JUMP JUMPDEST PUSH0 PUSH2 0x123D PUSH1 0x2B DUP4 PUSH2 0xD34 JUMP JUMPDEST SWAP2 POP PUSH2 0x1248 DUP3 PUSH2 0x11E3 JUMP JUMPDEST PUSH1 0x40 DUP3 ADD SWAP1 POP SWAP2 SWAP1 POP JUMP JUMPDEST PUSH0 PUSH1 0x20 DUP3 ADD SWAP1 POP DUP2 DUP2 SUB PUSH0 DUP4 ADD MSTORE PUSH2 0x126A DUP2 PUSH2 0x1231 JUMP JUMPDEST SWAP1 POP SWAP2 SWAP1 POP JUMP JUMPDEST PUSH32 0x4D696E74696E6720616D6F756E742073686F756C642062652067726561746572 PUSH0 DUP3 ADD MSTORE PUSH32 0x207468616E203000000000000000000000000000000000000000000000000000 PUSH1 0x20 DUP3 ADD MSTORE POP JUMP JUMPDEST PUSH0 PUSH2 0x12CB PUSH1 0x27 DUP4 PUSH2 0xD34 JUMP JUMPDEST SWAP2 POP PUSH2 0x12D6 DUP3 PUSH2 0x1271 JUMP JUMPDEST PUSH1 0x40 DUP3 ADD SWAP1 POP SWAP2 SWAP1 POP JUMP JUMPDEST PUSH0 PUSH1 0x20 DUP3 ADD SWAP1 POP DUP2 DUP2 SUB PUSH0 DUP4 ADD MSTORE PUSH2 0x12F8 DUP2 PUSH2 0x12BF JUMP JUMPDEST SWAP1 POP SWAP2 SWAP1 POP JUMP JUMPDEST PUSH0 PUSH2 0x1309 DUP3 PUSH2 0xE16 JUMP JUMPDEST SWAP2 POP PUSH2 0x1314 DUP4 PUSH2 0xE16 JUMP JUMPDEST SWAP3 POP DUP3 DUP3 ADD SWAP1 POP DUP1 DUP3 GT ISZERO PUSH2 0x132C JUMPI PUSH2 0x132B PUSH2 0x1183 JUMP JUMPDEST JUMPDEST SWAP3 SWAP2 POP POP JUMP JUMPDEST PUSH32 0x416D6F756E742073686F756C64206265206C657373207468616E207468652073 PUSH0 DUP3 ADD MSTORE PUSH32 0x656E64657227732062616C616E63650000000000000000000000000000000000 PUSH1 0x20 DUP3 ADD MSTORE POP JUMP JUMPDEST PUSH0 PUSH2 0x138C PUSH1 0x2F DUP4 PUSH2 0xD34 JUMP JUMPDEST SWAP2 POP PUSH2 0x1397 DUP3 PUSH2 0x1332 JUMP JUMPDEST PUSH1 0x40 DUP3 ADD SWAP1 POP SWAP2 SWAP1 POP JUMP JUMPDEST PUSH0 PUSH1 0x20 DUP3 ADD SWAP1 POP DUP2 DUP2 SUB PUSH0 DUP4 ADD MSTORE PUSH2 0x13B9 DUP2 PUSH2 0x1380 JUMP JUMPDEST SWAP1 POP SWAP2 SWAP1 POP JUMP JUMPDEST PUSH32 0x496E73756666696369656E742042616C616E6365000000000000000000000000 PUSH0 DUP3 ADD MSTORE POP JUMP JUMPDEST PUSH0 PUSH2 0x13F4 PUSH1 0x14 DUP4 PUSH2 0xD34 JUMP JUMPDEST SWAP2 POP PUSH2 0x13FF DUP3 PUSH2 0x13C0 JUMP JUMPDEST PUSH1 0x20 DUP3 ADD SWAP1 POP SWAP2 SWAP1 POP JUMP JUMPDEST PUSH0 PUSH1 0x20 DUP3 ADD SWAP1 POP DUP2 DUP2 SUB PUSH0 DUP4 ADD MSTORE PUSH2 0x1421 DUP2 PUSH2 0x13E8 JUMP JUMPDEST SWAP1 POP SWAP2 SWAP1 POP JUMP JUMPDEST PUSH32 0x496E76616C696420726577617264204944000000000000000000000000000000 PUSH0 DUP3 ADD MSTORE POP JUMP JUMPDEST PUSH0 PUSH2 0x145C PUSH1 0x11 DUP4 PUSH2 0xD34 JUMP JUMPDEST SWAP2 POP PUSH2 0x1467 DUP3 PUSH2 0x1428 JUMP JUMPDEST PUSH1 0x20 DUP3 ADD SWAP1 POP SWAP2 SWAP1 POP JUMP JUMPDEST PUSH0 PUSH1 0x20 DUP3 ADD SWAP1 POP DUP2 DUP2 SUB PUSH0 DUP4 ADD MSTORE PUSH2 0x1489 DUP2 PUSH2 0x1450 JUMP JUMPDEST SWAP1 POP SWAP2 SWAP1 POP JUMP JUMPDEST PUSH0 DUP2 SLOAD SWAP1 POP PUSH2 0x149E DUP2 PUSH2 0x10EB JUMP JUMPDEST SWAP1 POP SWAP2 SWAP1 POP JUMP JUMPDEST PUSH32 0x4E487B7100000000000000000000000000000000000000000000000000000000 PUSH0 MSTORE PUSH1 0x41 PUSH1 0x4 MSTORE PUSH1 0x24 PUSH0 REVERT JUMPDEST PUSH0 DUP2 SWAP1 POP DUP2 PUSH0 MSTORE PUSH1 0x20 PUSH0 KECCAK256 SWAP1 POP SWAP2 SWAP1 POP JUMP JUMPDEST PUSH0 DUP2 SWAP1 POP DUP2 PUSH0 MSTORE PUSH1 0x20 PUSH0 KECCAK256 SWAP1 POP SWAP2 SWAP1 POP JUMP JUMPDEST PUSH0 PUSH1 0x20 PUSH1 0x1F DUP4 ADD DIV SWAP1 POP SWAP2 SWAP1 POP JUMP JUMPDEST PUSH0 DUP3 DUP3 SHL SWAP1 POP SWAP3 SWAP2 POP POP JUMP JUMPDEST PUSH0 PUSH1 0x8 DUP4 MUL PUSH2 0x1540 PUSH32 0xFFFFFFFFFFFFFFFFFFFFFFFFFFFFFFFFFFFFFFFFFFFFFFFFFFFFFFFFFFFFFFFF DUP3 PUSH2 0x1505 JUMP JUMPDEST PUSH2 0x154A DUP7 DUP4 PUSH2 0x1505 JUMP JUMPDEST SWAP6 POP DUP1 NOT DUP5 AND SWAP4 POP DUP1 DUP7 AND DUP5 OR SWAP3 POP POP POP SWAP4 SWAP3 POP POP POP JUMP JUMPDEST PUSH0 DUP2 SWAP1 POP SWAP2 SWAP1 POP JUMP JUMPDEST PUSH0 PUSH2 0x1585 PUSH2 0x1580 PUSH2 0x157B DUP5 PUSH2 0xE16 JUMP JUMPDEST PUSH2 0x1562 JUMP JUMPDEST PUSH2 0xE16 JUMP JUMPDEST SWAP1 POP SWAP2 SWAP1 POP JUMP JUMPDEST PUSH0 DUP2 SWAP1 POP SWAP2 SWAP1 POP JUMP JUMPDEST PUSH2 0x159E DUP4 PUSH2 0x156B JUMP JUMPDEST PUSH2 0x15B2 PUSH2 0x15AA DUP3 PUSH2 0x158C JUMP JUMPDEST DUP5 DUP5 SLOAD PUSH2 0x1511 JUMP JUMPDEST DUP3 SSTORE POP POP POP POP JUMP JUMPDEST PUSH0 SWAP1 JUMP JUMPDEST PUSH2 0x15C6 PUSH2 0x15BA JUMP JUMPDEST PUSH2 0x15D1 DUP2 DUP5 DUP5 PUSH2 0x1595 JUMP JUMPDEST POP POP POP JUMP JUMPDEST JUMPDEST DUP2 DUP2 LT ISZERO PUSH2 0x15F4 JUMPI PUSH2 0x15E9 PUSH0 DUP3 PUSH2 0x15BE JUMP JUMPDEST PUSH1 0x1 DUP2 ADD SWAP1 POP PUSH2 0x15D7 JUMP JUMPDEST POP POP JUMP JUMPDEST PUSH1 0x1F DUP3 GT ISZERO PUSH2 0x1639 JUMPI PUSH2 0x160A DUP2 PUSH2 0x14D2 JUMP JUMPDEST PUSH2 0x1613 DUP5 PUSH2 0x14F6 JUMP JUMPDEST DUP2 ADD PUSH1 0x20 DUP6 LT ISZERO PUSH2 0x1622 JUMPI DUP2 SWAP1 POP JUMPDEST PUSH2 0x1636 PUSH2 0x162E DUP6 PUSH2 0x14F6 JUMP JUMPDEST DUP4 ADD DUP3 PUSH2 0x15D6 JUMP JUMPDEST POP POP JUMPDEST POP POP POP JUMP JUMPDEST PUSH0 DUP3 DUP3 SHR SWAP1 POP SWAP3 SWAP2 POP POP JUMP JUMPDEST PUSH0 PUSH2 0x1659 PUSH0 NOT DUP5 PUSH1 0x8 MUL PUSH2 0x163E JUMP JUMPDEST NOT DUP1 DUP4 AND SWAP2 POP POP SWAP3 SWAP2 POP POP JUMP JUMPDEST PUSH0 PUSH2 0x1671 DUP4 DUP4 PUSH2 0x164A JUMP JUMPDEST SWAP2 POP DUP3 PUSH1 0x2 MUL DUP3 OR SWAP1 POP SWAP3 SWAP2 POP POP JUMP JUMPDEST DUP2 DUP2 SUB PUSH2 0x168F JUMPI POP POP PUSH2 0x1764 JUMP JUMPDEST PUSH2 0x1698 DUP3 PUSH2 0x1490 JUMP JUMPDEST PUSH8 0xFFFFFFFFFFFFFFFF DUP2 GT ISZERO PUSH2 0x16B1 JUMPI PUSH2 0x16B0 PUSH2 0x14A5 JUMP JUMPDEST JUMPDEST PUSH2 0x16BB DUP3 SLOAD PUSH2 0x10EB JUMP JUMPDEST PUSH2 0x16C6 DUP3 DUP3 DUP6 PUSH2 0x15F8 JUMP JUMPDEST PUSH0 PUSH1 0x1F DUP4 GT PUSH1 0x1 DUP2 EQ PUSH2 0x16F3 JUMPI PUSH0 DUP5 ISZERO PUSH2 0x16E1 JUMPI DUP3 DUP8 ADD SLOAD SWAP1 POP JUMPDEST PUSH2 0x16EB DUP6 DUP3 PUSH2 0x1666 JUMP JUMPDEST DUP7 SSTORE POP PUSH2 0x175D JUMP JUMPDEST PUSH1 0x1F NOT DUP5 AND PUSH2 0x1701 DUP8 PUSH2 0x14E4 JUMP JUMPDEST SWAP7 POP PUSH2 0x170C DUP7 PUSH2 0x14D2 JUMP JUMPDEST PUSH0 JUMPDEST DUP3 DUP2 LT ISZERO PUSH2 0x1733 JUMPI DUP5 DUP10 ADD SLOAD DUP3 SSTORE PUSH1 0x1 DUP3 ADD SWAP2 POP PUSH1 0x1 DUP6 ADD SWAP5 POP PUSH1 0x20 DUP2 ADD SWAP1 POP PUSH2 0x170E JUMP JUMPDEST DUP7 DUP4 LT ISZERO PUSH2 0x1750 JUMPI DUP5 DUP10 ADD SLOAD PUSH2 0x174C PUSH1 0x1F DUP10 AND DUP3 PUSH2 0x164A JUMP JUMPDEST DUP4 SSTORE POP JUMPDEST PUSH1 0x1 PUSH1 0x2 DUP9 MUL ADD DUP9 SSTORE POP POP POP JUMPDEST POP POP POP POP POP POP JUMPDEST JUMP INVALID LOG2 PUSH5 0x6970667358 0x22 SLT KECCAK256 MCOPY 0xE0 PUSH21 0xCB8B96EF723A69013417DA850BDE93421CDEA7273 0xD DUP6 TLOAD 0xA6 TLOAD PUSH27 0x565D64736F6C634300081A00330000000000000000000000000000 "
				},
				"gasEstimates": {
					"creation": {
						"codeDepositCost": "1208800",
						"executionCost": "infinite",
						"totalCost": "infinite"
					},
					"external": {
						"Check_Balanace(address)": "2918",
						"Reward(uint256)": "infinite",
						"Supply()": "2513",
						"Symbol()": "infinite",
						"TokenName()": "infinite",
						"burn(uint256)": "infinite",
						"commandCenter()": "2528",
						"getRedeemedItems(address)": "infinite",
						"mint(uint256,address)": "infinite",
						"redeem(uint256)": "infinite",
						"redeemedItems(address,uint256)": "infinite",
						"transfer(uint256,address)": "infinite"
					}
				},
				"methodIdentifiers": {
					"Check_Balanace(address)": "6428f530",
					"Reward(uint256)": "3ac0594a",
					"Supply()": "ee07bf22",
					"Symbol()": "3045aaf3",
					"TokenName()": "b6d7855a",
					"burn(uint256)": "42966c68",
					"commandCenter()": "37fa221b",
					"getRedeemedItems(address)": "f8f4b574",
					"mint(uint256,address)": "94bf804d",
					"redeem(uint256)": "db006a75",
					"redeemedItems(address,uint256)": "c00aa3a5",
					"transfer(uint256,address)": "b7760c8f"
				}
			},
			"storageLayout": {
				"storage": [
					{
						"astId": 3,
						"contract": "DegenToken.sol:DeGen",
						"label": "commandCenter",
						"offset": 0,
						"slot": "0",
						"type": "t_address"
					},
					{
						"astId": 6,
						"contract": "DegenToken.sol:DeGen",
						"label": "TokenName",
						"offset": 0,
						"slot": "1",
						"type": "t_string_storage"
					},
					{
						"astId": 9,
						"contract": "DegenToken.sol:DeGen",
						"label": "Symbol",
						"offset": 0,
						"slot": "2",
						"type": "t_string_storage"
					},
					{
						"astId": 12,
						"contract": "DegenToken.sol:DeGen",
						"label": "Supply",
						"offset": 0,
						"slot": "3",
						"type": "t_uint256"
					},
					{
						"astId": 64,
						"contract": "DegenToken.sol:DeGen",
						"label": "balance",
						"offset": 0,
						"slot": "4",
						"type": "t_mapping(t_address,t_uint256)"
					},
					{
						"astId": 69,
						"contract": "DegenToken.sol:DeGen",
						"label": "Reward",
						"offset": 0,
						"slot": "5",
						"type": "t_mapping(t_uint256,t_struct(NFT)79_storage)"
					},
					{
						"astId": 74,
						"contract": "DegenToken.sol:DeGen",
						"label": "redeemedItems",
						"offset": 0,
						"slot": "6",
						"type": "t_mapping(t_address,t_array(t_string_storage)dyn_storage)"
					}
				],
				"types": {
					"t_address": {
						"encoding": "inplace",
						"label": "address",
						"numberOfBytes": "20"
					},
					"t_array(t_string_storage)dyn_storage": {
						"base": "t_string_storage",
						"encoding": "dynamic_array",
						"label": "string[]",
						"numberOfBytes": "32"
					},
					"t_mapping(t_address,t_array(t_string_storage)dyn_storage)": {
						"encoding": "mapping",
						"key": "t_address",
						"label": "mapping(address => string[])",
						"numberOfBytes": "32",
						"value": "t_array(t_string_storage)dyn_storage"
					},
					"t_mapping(t_address,t_uint256)": {
						"encoding": "mapping",
						"key": "t_address",
						"label": "mapping(address => uint256)",
						"numberOfBytes": "32",
						"value": "t_uint256"
					},
					"t_mapping(t_uint256,t_struct(NFT)79_storage)": {
						"encoding": "mapping",
						"key": "t_uint256",
						"label": "mapping(uint256 => struct DeGen.NFT)",
						"numberOfBytes": "32",
						"value": "t_struct(NFT)79_storage"
					},
					"t_string_storage": {
						"encoding": "bytes",
						"label": "string",
						"numberOfBytes": "32"
					},
					"t_struct(NFT)79_storage": {
						"encoding": "inplace",
						"label": "struct DeGen.NFT",
						"members": [
							{
								"astId": 76,
								"contract": "DegenToken.sol:DeGen",
								"label": "name",
								"offset": 0,
								"slot": "0",
								"type": "t_string_storage"
							},
							{
								"astId": 78,
								"contract": "DegenToken.sol:DeGen",
								"label": "price",
								"offset": 0,
								"slot": "1",
								"type": "t_uint256"
							}
						],
						"numberOfBytes": "64"
					},
					"t_uint256": {
						"encoding": "inplace",
						"label": "uint256",
						"numberOfBytes": "32"
					}
				}
			},
			"userdoc": {
				"kind": "user",
				"methods": {},
				"version": 1
			}
		}
	}
}